:100000000C941F0B0C94470B0C94470B0C94470B50
:100010000C94470B0C94470B0C94470B0C94470B18
:100020000C94470B0C94470B0C94470B0C94AA0DA3
:100030000C94470B0C94470B0C94470B0C94470BF8
:100040000C94040D0C94470B0C94470B0C94470B29
:100050000C94470B0C94470B0C94470B0C94470BD8
:100060000C94470B0C94470B45141E1540129C1220
:100070002B12FC122E122C1396139A13BE13DD139F
:10008000F113241506140D141114161405A84CCDE3
:10009000B2D44EB93836A9020C50B9918688083CC2
:1000A000A6AAAA2ABE000000803F0030311F3233CA
:1000B000212000231E002122001717170023000013
:1000C0002300272528001E00001D00000E00000050
:1000D000000009000A0C0B000000000900151515AE
:1000E0000000150000021A00030201020F001C1B91
:1000F0000104150015030003031A03000000170094
:1001000009021A020000021300140A0C0B0200007C
:1001100003000200000302000003000902010108BD
:1001200008BAFAFAFAFA0202FC08081517F70707E4
:10013000F0101F0808FC0232CE02FAFABA08080FC3
:1001400010131C1017171508086868E8E8E8680815
:10015000F008081313F70707F6100F0808F008084F
:10016000C8380808E808080F10131C1010101708EA
:100170000800007E42766E427E0808B0A8ACAAA9AC
:10018000FF81FF080800000000000000E0080800F0
:10019000FE01996701FE000808007F8099E6807FD4
:1001A00000080800FF00996600FF0008084281006F
:1001B000996600FF0008080000FF0000FF0000082B
:1001C00008242424242424242408082424C40408DF
:1001D000F00000080824242320100F000008080065
:1001E00000F00804C42424080800000F1020232471
:1001F00024080800000000080010080808FF81C358
:10020000243C4281C30808FF2442814224FFFF08A6
:1002100008000000FF81FFADB508087EC5A37E0081
:1002200000000008087EA3C57E000000000808004A
:100230002222555588AAAA08087EDFA3A3F7B7F79C
:100240007E080800060FFDAF06000008080028140D
:1002500008103C3C1808087F2F172F5FBBF160087F
:1002600008FE94B8FCBEDF8F060808E799E799E717
:1002700099E7990808FF818181818181FF0808FF42
:10028000996699669966990808FF9D659D659D65C3
:100290009D0808FFB9A6B9A6B9A6B90808000000CC
:1002A00000000000000808F0909090909090F008F6
:1002B00008FFABD6ACACD6ABFF0808FFD56B353525
:1002C0006BD5FF0808FFA5FF00000000000808FF2D
:1002D00081DBDB3CE781FF0808ADB5ADB5ADB5AD61
:1002E000B576312E3000090B0C131B110C160D0FB7
:1002F000130A170D1310150C1015091314131316E8
:100300000509071119030A02090C0F06030A02075F
:100310000902070204010203010154686520656EA9
:10032000642E0008083C18183C6EE7C37E0808FFDE
:1003300081BDA5A5A5A5E708080033CC00000000F5
:1003400000080880808080808000800808FF21FFEE
:1003500088FF21FF880808FFC3A59999A5C3FF0856
:1003600008FFFFEDEDFFFFFFFF08083C18186E8542
:10037000A1897E5072657373204120746F20636F72
:100380006E74696E756500476F6F64204A6F6221F5
:10039000005072657373204120746F20636F6E7418
:1003A000696E756500426C61636B6F7574210076D0
:1003B000312E30000808004060707060400008086E
:1003C0000002060E0E060200080800304878787811
:1003D0000000080800060978787800000808000086
:1003E0000000000000000808AA018001800180557B
:1003F0000808FF81C9C9818181FF0808FF819393A3
:10040000818181FF00000000000000010101010165
:1004100001010101010101010101020102010201C9
:1004200002000000000000000000000200040002C2
:1004300003000500000003000000000000000000B1
:10044000000F000000030300000000000313001968
:10045000000900000800000F000000030201020173
:1004600002000305050505050505080000021C1C22
:100470001C03000000000300030000000000000057
:10048000050000030000000300000000030002005C
:100490000000000000000000000300000003000056
:1004A0000000030000000015000000000000000331
:1004B0000015000300000000030015000003000009
:1004C00015150019000300020003000000000300DE
:1004D0000217170317171717170305030000000368
:1004E00000000000031503000003002B00000003C0
:1004F00000031500150302010101020502010102BA
:1005000001010101010201020200020203230000B5
:100510002300002300000000002120030000000051
:10052000000303232C2D2330312330310000001F22
:10053000220300000000000303212E2F213233216B
:1005400032330000272528030015000000030300B4
:100550000000000000000000000000000003000296
:10056000000000030301010101010101020000007C
:1005700000001E0300030000000303000000000051
:100580000000000000000000210300030000000341
:100590000300000000000000000005050500000346
:1005A0000003150015030300001E000000000000FA
:1005B000000000002B030003050005030300001DDD
:1005C00000000029000000000000050200030000F8
:1005D00000030300000E0009022A000000000000D2
:1005E00000140003001A00030201010101010101CE
:1005F00001010101010101020102010101020000EA
:1006000000000000000000000000000000000000EA
:1006100000020000000023000000000000000000B5
:1006200000000002030000000023000000000000A2
:10063000000000000000030316081500212000152B
:100640000000001500000000000303020101010288
:100650002300050000020108000000000203000062
:1006600000000023001E0000000000000000000346
:100670000300000000002300230000000000000031
:1006800000000303050000000021242215000000E3
:100690000000000000030300000000090000000348
:1006A0000000151500190000030217171717171778
:1006B0001717021717171717021515020000000069
:1006C0000000000000000000000000000000000228
:1006D0000101010102000000000000000000000014
:1006E00000000300001414000000000000000000DF
:1006F00000000000000216020101020000000000DC
:10070000000000001E001300000200001F20000077
:10071000000000000000002103050000000000238D
:100720002300001500000000000000050000242444
:1007300024242221242402000900000200000000D9
:1007400000000027262628000005050505050500F0
:1007500000000015001F2420000000000000000021
:1007600000000000000002002327252626280000A4
:100770000000000000000000000324220000000030
:100780000000000000152900000015000300000013
:100790000000000000000000022A0009000200031F
:1007A0000000000000000000000000030505050532
:1007B000031303000000000000000000000003001D
:1007C0002B0000030502242420000000001A000072
:1007D0000003000E0000030000002725280000028F
:1007E00001020000020505050502000000000000EE
:1007F00000000000000000000000000000000000F9
:1008000000000000000000000000000000000000E8
:1008100000001515151515151515151515151515B2
:10082000151515151500000000000000000000005F
:1008300000000000000000000002040102010102AB
:100840000101010201010101020023000003000077
:10085000030000031B00000307000F000300212416
:1008600020030000030000020000000205000F004A
:1008700003001E00230300000311001C0000000001
:100880000005020002001D00230300001B00001CE5
:10089000000000000000030003000E00230300001E
:1008A0000300000200001500000003000201010225
:1008B00023030000020000030505021500000200EA
:1008C00000000003230300001C00000300000305D8
:1008D0001500030505050003230300001C000003A9
:1008E00020000305050003000000000223030000B0
:1008F0000215150223000200000002161616160348
:100900002303000003050503230003000000030583
:100910000505050523030000030000032300030071
:1009200000000300001F24242203151A0300000303
:1009300021240307000003272625262628020A0C67
:100940000200000200000201010102010101010197
:100950000100000000000000000000000000000096
:10096000000000000201010101010101010101017A
:100970000101010101010203000000000003000069
:10098000000300000000000000030300000000134B
:100990000300000014000000000019140303000508
:1009A00005050505000000190000000000031603FE
:1009B0000300000000000000000005050505050516
:1009C00005050203000000190000000000000000FF
:1009D000000000000003020101010200000000000D
:1009E00000000000000000000303000000030000FE
:1009F00000190009001900000000000303000000B6
:100A000005000000030505050500000000000303C4
:100A100005050000000000030000000000000000C9
:100A20000003030000090000000003130000090098
:100A30000000000003020A0C0B020A0C0B020A0C55
:100A40000B020A0C0B020102000000000000000073
:100A50000002010401010101010203000000000085
:100A6000000003031C1C1C1C1C1C1C0303000000B6
:100A70000000000003030000000000151503030040
:100A8000000000000505030315000000000000033E
:100A90000305150000000010030305051500000004
:100AA00015030305050515001505030305050505D3
:100AB000000505030300000000000200030300001E
:100AC00000000003000303001515151502000303C1
:100AD00000050505050500030300000000000000F7
:100AE00003030000000000000003030000000000FA
:100AF00000000303020000000000000303030009DC
:100B0000000000000303021515151502160302016B
:100B100001010101010102000000000000000000CD
:100B200000000000000000000000000002010101C0
:100B300002010101010200000000000000000000AD
:100B40000203000000000000000003151500000073
:100B5000000000000003030000000000000000028D
:100B60000102000000000000000003030000001567
:100B70000000000000000811000000000000000359
:100B80000300000002000000000000080015000043
:100B90001500000003030000000300000000150022
:100BA0000000020000020000000303000000031523
:100BB00015151502000000030000000000000303EB
:100BC00000000003050505050300000003151515C9
:100BD00015150003030000000300000000030000DF
:100BE00000030505050502000303001A00030000C9
:100BF000000003001A000300000000031603020AAD
:100C00000C0B0200000000020A0C0B0200000000A6
:100C100002050200000000000000000000000000CB
:100C200000000002010101020302040203010101AC
:100C3000010102030000001C030000000F0000007F
:100C4000000003030008001C140000000F00000057
:100C5000000003020004010203021B020300000063
:100C6000000003030000000000000000030F0F1B42
:100C70001C1C030310000000000000000300000F14
:100C80000000030300000000000000000300000F4C
:100C9000000003030000150015000000031C1C04E5
:100CA0000F0F04031515020F02001A000300001CA9
:100CB0000000030305050500050505050300001CEC
:100CC0000000030300000000000000000300001B00
:100CD0001C1C030300000000120000000300000FB2
:100CE00000000303001900000E0000000300000FC5
:100CF00000000303000205050205140502010101BD
:100D0000021C030300000013031616160313000051
:100D100000000302010101010201010102010101C0
:100D200001010200000000000000000000000002BD
:100D300001010101010200000000000300000000A9
:100D40000003000000000003000000000001010299
:100D5000000000030000000000000003000000038A
:100D6000000000150000000201010203160200034A
:100D7000000000000000030302020003150000153C
:100D80000000030300000005050505020000030341
:100D9000000000000000000300000303000000004A
:100DA00000000003000002030015151515151503BA
:100DB00000000603150201010101010102150303F0
:100DC0000202000000000000010102020000000019
:100DD00000000000000003030000001500001500E3
:100DE00000000603000000020505020505050203D8
:100DF00000000000000003000000000200000000EE
:100E000000000201010102030000000000000000D8
:100E100000000303000000150000000000000303B1
:100E20000015150300001500000003020101010276
:100E30000101021100000303000000000000000097
:100E40000000030300000000000000000010030386
:100E50000000000000000000000003020101010288
:100E60001515151A151502000000000000000000FD
:100E7000000000000000000000000000020101016D
:100E80000101010101010101010101010101010152
:100E9000020300000000000000000000000000004D
:100EA00000000000000303000000000000000F002D
:100EB0000F0F000F000F0F000000030300000000E1
:100EC000000000000F15151515150F000400100384
:100ED0000300000000000000000201010101010206
:100EE0000000000003030000000000000F000000ED
:100EF00000000000000000000003030000000000EC
:100F0000000F0000000000000000000002050303C5
:100F10000015000015001900000900000015000070
:100F20000000000303000505050500031717171748
:100F3000171703050000000003020F000000001B4C
:100F40000205050505050502000000000502030570
:100F50000000000002150000000000150000000065
:100F6000000003030400000000010201010101016F
:100F700002001100000900030305050500050F002C
:100F800000000000000800191515151503020000E7
:100F90000000020019000000001308000201020511
:100FA000050203001818180000031818181818086C
:100FB0000000000000000303000000000000020524
:100FC00005050505020000120019140303000000C6
:100FD0000000000300000000000000000E000316E7
:100FE000030201010101011A020A0C0C0C0B021A86
:100FF000020A0C0C0B0200000000000000000000C0
:1010000000000000000002000000000800000000D6
:1010100000020000000203000000000800000000C1
:1010200000030000000307000000000000000000B3
:10103000000300000003020500000000001513007B
:101040000003000000030300000009001502050072
:10105000000200000003030101010101020500007C
:10106000000000000002020000000000000000007C
:10107000000000001303070000130000000000152B
:10108000001100020102020101010102000500023B
:101090000500000300030300141414000000000303
:1010A00000000003000302160A0C0B020A0C0B02DC
:1010B00015151502000200000000000000000000ED
:1010C000000000000000000000020102000000001B
:1010D00002010101010101010101010203000000FF
:1010E00000000000000800020000000000000303F0
:1010F00000000015000000000800030000000000D0
:1011000000030300000505050500000000020000C3
:1011100005050500030200000000000000020000B9
:1011200000000000000000020300000002000000B8
:10113000030000000000001500000303000000157C
:101140001515150300001500000002000003030040
:101150000000020202020200050505000003000073
:1011600003030000000300000003151515151515F5
:101170000316160302010101020000000201010131
:101180000101010201010200000000000000000056
:10119000000000020201020505000000000000003E
:1011A0000603000000000004050200000002030026
:1011B000190010000F0000000000030200030000EF
:1011C000000F1200000000030300030011000F0EC7
:1011D00000000000030300030000000205050005F5
:1011E00005020300030009000300090000000602D5
:1011F00016020101010201010101010201080B02B5
:101200000C000B0B07030F0D0C000B0A45006801C7
:10121000000005003801680100000A4E6F205344A9
:101220002063617264206F720A6E6F204C4F4144DC
:1012300045522E4845580A0A153A45786974001DEA
:1012400020466C617368696E670A20206C6F616468
:1012500065722E2E2E0A0A444F4E275420545552A2
:101260004E204F46462100401EAD00000000000009
:1012700000B500000077700000AD00000052400093
:1012800000B500000062500000AD000000525000A8
:1012900000B500000077700000AD00000000000005
:1012A00000B500000074275000AD000000545450F9
:1012B00000B500000064746000AD0000005454509C
:1012C00000B500000077575000AD0000000000009E
:1012D00000B500000077500000AD000FF055500041
:1012E00000B5000FF065202000AD000DD055500076
:1012F00000B5000DD077504000AD000FF000002089
:1013000000B5000FF0FF00F000AD000FF0810060AD
:1013100000B5000FF0BD006000FFFFFFFFA500F06B
:1013200000C3A66665A501B800A5B9999DA5039C53
:101330000099A66665A5030C0099B9999DA501F8C9
:1013400000A5A66665A5000000C3B9999DA500008B
:1013500000FFA66665E700000017534400161378E7
:1013600000161314001510200015201000540A0355
:10137000E181867F3E186D830F0F0E0183866033F7
:10138000186DC3198F1803C38E6033186DE330CF07
:101390001803C39E603630CDE360CF3006C79E7E13
:1013A0003E30CDB360CF300CC6F6603330D9B66076
:1013B000CF33CFCCF66061B0DB1E60CF30D86CE6A7
:1013C000C061B0DB1E618F19986CC6C063B19B0E03
:1013D000330F0FB078C6FF7E1F1B061E0FF6E8DB2B
:1013E000CFC3B8AEA49B928A827B746E68625C574E
:1013F000524E4945413E3A3734312E2C2927252378
:10140000211F1D1C1A1917161514131211100F0E77
:101410000D0C0B0A090807060A0A153A49676E6F90
:101420007265006D560A0A504C454153452054558B
:10143000524E204F464620004C4F572042415454B4
:1014400045525921200003053F213F1208120A107E
:101450000A0E1C0E0C1E0C141A14161F161E131E38
:101460001E1B1E1E1F1E3F213F3A2F3A173D173FDE
:10147000213F181F02040A041F0E04040E1F0A1F36
:101480000A0E0E1F04110E2E252E2F2A2E26292974
:10149000021F02081F08150E04040E150E15151B59
:1014A000151B040604040C040000000017000300D0
:1014B000031F0A1F16371A1904130A153A000300EE
:1014C000000E11110E000A040A040E04003000047C
:1014D00004040010001804031F111F121F101D1513
:1014E0001711151F07041F17151D1F151D01011FBB
:1014F0001F151F17151F000A00003200040A110AE9
:101500000A0A110A040115020E11171E051E1F15E5
:101510000A0E110A1F110E1F15111F05010E111DB4
:101520001F041F111F1108100F1F041B1F10101F75
:10153000061F1E040F0E110E1F09060E112E1F0589
:101540001A121509011F011F101F0F180F1F0C1F62
:101550001B041B031C03191513001F11030418118E
:101560001F000201022020200001020C121E1F1287
:101570000C0C12120C121F0C1A14041E05242A1E25
:101580001F021C141D1020201D1F0814111F101EE7
:10159000041E1E021C0C120C3E0A040C123E1E04F9
:1015A0000214160A020F120E101E0E100E1E081E36
:1015B000120C1226281E322A26041E21001F00218A
:1015C0001E040102013F213F0101FF030101F70356
:1015D000CC15C81500000000240027002A000000D8
:1015E0000000250028002B00050089300802380281
:1015F000497868140000000000002300260029003C
:1016000004040404040404040202020202020303A8
:1016100003030303010204081020408001020408B0
:101620001020010204081020000000080002010040
:1016300000030407000000000000000043301124F4
:101640001FBECFEFD8E0DEBFCDBF12E0A0E0B1E01B
:10165000E8E4FAE602C005900D92A63AB107D9F780
:1016600025E0A6EAB2E001C01D92A83FB207E1F76B
:101670001BE0CFE1DBE004C02197FE010E947E3039
:10168000CE31D107C9F70E9433210C9422350C9436
:101690000000CF92DF92EF92FF920F931F93CF93B0
:1016A000DF936C017A018B01C0E0D0E0CE15DF053D
:1016B00089F0D8016D918D01D601ED91FC910190D9
:1016C000F081E02DC6010995892B11F47E0102C03D
:1016D0002196ECCFC701DF91CF911F910F91FF9021
:1016E000EF90DF90CF9008950E947F33EF92FF92AA
:1016F0000F931F93CF93DF938C017B01C0E0D0E069
:10170000F701EC0FFD1F6491662361F0D801ED91A4
:10171000FC910190F081E02DC8010995892B11F011
:101720002196EECFCE01DF91CF911F910F91FF90C7
:10173000EF900895833081F028F4813099F0823061
:10174000A1F008958730A9F08830B9F08430D1F441
:10175000809180008F7D03C0809180008F7780937F
:101760008000089584B58F7702C084B58F7D84BDD5
:1017700008958091B0008F7703C08091B0008F7D75
:101780008093B00008951F93CF93DF93282F30E00C
:10179000F901E85DF94E8491F901EC5EF94ED491BE
:1017A000F901E050FA4EC491CC23C9F0162F8111F3
:1017B0000E949A0BEC2FF0E0EE0FFF1FE252FA4E60
:1017C000A591B4918FB7F894111105C09C91ED2F9C
:1017D000E095E92302C0EC91ED2BEC938FBFDF91F4
:1017E000CF911F910895CF93DF9390E0FC01EC5EC1
:1017F000F94E2491FC01E050FA4E8491882361F166
:1018000090E0880F991FFC01EC52FA4EC591D491DB
:10181000FC01E252FA4EA591B491611109C09FB743
:10182000F8948881209582238883EC912E230BC025
:10183000623061F49FB7F8943881822F80958323BA
:101840008883EC912E2B2C939FBF06C08FB7F89402
:10185000E8812E2B28838FBFDF91CF9108951F93AE
:10186000CF93DF93182FEB0161E00E94F30B2097D9
:1018700011F460E004C0CF3FD10539F461E0812F5D
:10188000DF91CF911F910C94C30BE12FF0E0E85D45
:10189000F94EE491E330F9F048F4E130B9F0E23088
:1018A000A1F584B5806284BDC8BD34C0E730E9F0DD
:1018B000E83019F1E43049F580918000806280932E
:1018C0008000D0938B00C0938A0024C084B58068C8
:1018D00084BDC7BD1FC08091800080688093800058
:1018E000D0938900C093880015C08091B0008068B3
:1018F0008093B000C093B3000DC08091B0008062AF
:101900008093B000C093B40005C0C038D1050CF07E
:10191000B5CFAFCFDF91CF911F9108958E3008F0F2
:101920008E508770806480937C0080917A00806400
:1019300080937A0080917A0086FDFCCF80917800B8
:101940002091790090E0922B08953FB7F894809110
:10195000DE029091DF02A091E002B091E10226B593
:10196000A89B05C02F3F19F00196A11DB11D3FBFD7
:10197000BA2FA92F982F8827820F911DA11DB11D65
:10198000BC01CD0142E0660F771F881F991F4A9561
:10199000D1F708958F929F92AF92BF92CF92DF922C
:1019A000EF92FF926B017C010E94A50C4B015C0140
:1019B000C114D104E104F104F1F00E94A50CDC0192
:1019C000CB0188199909AA09BB09883E9340A10552
:1019D000B10570F321E0C21AD108E108F10888EEE0
:1019E000880E83E0981EA11CB11CC114D104E1042F
:1019F000F10419F7DDCFFF90EF90DF90CF90BF900B
:101A0000AF909F908F9008951F920F920FB60F92F4
:101A100011242F933F938F939F93AF93BF93809104
:101A2000EA029091EB02A091EC02B091ED023091AC
:101A3000DD0223E0230F2D3720F40196A11DB11DF7
:101A400005C026E8230F0296A11DB11D2093DD02DB
:101A50008093EA029093EB02A093EC02B093ED0224
:101A60008091DE029091DF02A091E002B091E1024C
:101A70000196A11DB11D8093DE029093DF02A09319
:101A8000E002B093E102BF91AF919F918F913F919E
:101A90002F910F900FBE0F901F90189550E0DA0114
:101AA000AA0FBB1FA80FB91FD3963C91D397D4960A
:101AB0002C91D497E32FF22FE60FF11DE60FF11DC5
:101AC00065917491AD58BF4F6D937C93FB01259147
:101AD0003491FC013089329F202D1124840F951FF1
:101AE000FC01E558FF4F2083FB01A591B4914B2FDA
:101AF00050E0E22FF0E04E175F0720F4FB01459124
:101B00005491252FFC01E158FF4F239F202D1124D4
:101B1000208308958091EF04882319F08091F704C1
:101B200001C080E09091F004992319F09091F8049D
:101B3000890F9091F104992319F09091F904890F7C
:101B40009091F204992319F09091FA04890F8093EF
:101B5000B40008951F920F920FB60F9211242F9385
:101B60003F934F935F936F937F938F939F93AF9325
:101B7000BF93EF93FF936091F304611102C080E083
:101B800023C08091D9028F5F8093D9029091E202A5
:101B90008917A8F39091EF0481E089278093EF04DF
:101BA0001092D9028091E602882369F080910501A4
:101BB00093E4899F802D1124895B809305010E9405
:101BC0005E309093F70481E06091F404662319F18C
:101BD0009091DA029F5F9093DA022091E3029217CC
:101BE000D0F09091F00481E089278093F004109266
:101BF000DA028091E702882369F08091050193E47D
:101C0000899F802D1124895B809305010E945E309D
:101C10009093F80481E06091F504662319F19091A6
:101C2000DB029F5F9093DB022091E4029217D0F0D9
:101C30009091F10481E089278093F1041092DB02F6
:101C40008091E802882369F08091050193E4899FDF
:101C5000802D1124895B809305010E945E30909352
:101C6000F90481E06091F604662319F19091DC0299
:101C70009F5F9093DC022091E5029217D0F0909143
:101C8000F20481E089278093F2041092DC028091B3
:101C9000E902882379F08091050193E4899F802DE2
:101CA0001124895B809305010E945E309093FA04B1
:101CB00001C081110E948A0DFF91EF91BF91AF91F8
:101CC0009F918F917F916F915F914F913F912F9154
:101CD0000F900FBE0F901F9018954F925F926F92CA
:101CE0007F928F929F92AF92BF92CF92DF92EF92AC
:101CF000FF920F931F93CF93DF93F901C490319616
:101D00005491EC0108A164350CF018C10C2C000CA6
:101D1000DD08A62F062E000CBB0B7D01EC0CFD1C74
:101D20001E141F040CF00AC140330CF007C1A52E8D
:101D3000842E042E000C9908F401E50FF11D57FDC7
:101D4000FA951E161F060CF0F9C02E5F3F4FE601F4
:101D50002796D7FD279673E0D595C7957A95E1F735
:101D600047FF0AC0A52EA40EC89DA001C99D500D15
:101D70001124241B350B40E0EA2D0A2C000CFF0B2C
:101D8000E40FF11D47FDFA95F1971CF050E3A52EE5
:101D9000A41A67FD60E0F701E535F10514F0E4E50C
:101DA000F0E07E2FFC01D484D426862F062E000C72
:101DB000990BFC01EA1BFB0BDF017F01F7E0EF222F
:101DC000FF24E0E8F0E002C0F595E795EA94E2F739
:101DD0001E2FB7FD179653E0B595A7955A95E1F7D5
:101DE0002A0F3B1FE42FE77051E001C0550FEA9521
:101DF000EAF7459545954595B4E54B02800D911D53
:101E0000112481519D4FC12C0A2C000CBB08992430
:101E100093942E015524EC2DF0E0EA15FB050CF00F
:101E20008DC0F90144910130E1F47C01A12F862E8F
:101E3000881AB82DBE0DB71708F077C0B42FBA2393
:101E400021F0E701B881B52BB883B0E0B595A7952F
:101E5000109719F431964491A0E8DFEFED1AFD0ACE
:101E6000E8CF01111FC0752E70947C01A12FF901DC
:101E7000862E881AB82DBE0DB71708F056C0B42F9D
:101E8000BA2321F0E701B881B721B883B0E0B59556
:101E9000A795109719F431964491A0E8DFEFED1A59
:101EA000FD0AE8CF033031F07C01A12FF901862E25
:101EB000881A37C0752E7094862E7C01A12FF901E7
:101EC0008716D8F4B42FBA2359F0E701B881682CEB
:101ED0006D2460FE02C0B52B02C0B721E701B883B4
:101EE000B0E0B595A795109719F431964491A0E804
:101EF0008394DFEFED1AFD0AE3CFD92416C0B42F87
:101F0000BA2321F0E701B881B527B883B0E0B595D1
:101F1000A795109719F431964491A0E8DFEFED1AD8
:101F2000FD0AB82DBE0DB71750F3550F19F48C5A92
:101F30009F4F51E0C394240D351D6DCFDF91CF919C
:101F40001F910F91FF90EF90DF90CF90BF90AF90D7
:101F50009F908F907F906F905F904F900895FC01BD
:101F6000643508F053C0403308F050C090A1742F7E
:101F7000759575957595262F062E000C330B542FED
:101F800057709230A1F4F901E151FD4F84E57802D8
:101F9000E00DF11D1124808190E0052E02C0959581
:101FA00087950A94E2F78095982F91700AC0933034
:101FB00041F484858170462740954170841303C0A5
:101FC00014C0911112C084E57802200D311D112436
:101FD000F901E151FD4F81E090E001C0880F5A9571
:101FE000EAF780959081892310C084E57802200D5E
:101FF000311D1124F901E151FD4F81E090E001C054
:10200000880F5A95EAF79081892B80830895BF92B3
:10201000CF92DF92EF92FF920F931F93CF93DF93B4
:102020001F92CDB7DEB77C01D62EC42E002E000C39
:10203000110B040F111D47FD1A954C2D0C2C000C93
:10204000550B401751077CF4B12CB21654F46B2D8C
:102050006D0D4C2DC70129830E94AF0FB3942981C8
:10206000F4CFC394EACF0F90DF91CF911F910F91DE
:10207000FF90EF90DF90CF90BF9008956F927F9286
:102080008F929F92AF92BF92CF92DF92EF92FF9288
:102090000F931F93CF93DF93EC016A3019F42D81D6
:1020A0009885A1C06D3009F4A4C01885BA84D9847C
:1020B00088A083E58D150CF47FC08FE28B150CF49E
:1020C0007BC08C8190E00197189F9001199F300D83
:1020D0001124C9018D0D911DD7FC9A95181619066A
:1020E0000CF06AC08D81819FC00111248B0D911D60
:1020F000B7FC9A95181619060CF05EC09D2CCD2CD5
:10210000E62EF12CEC2DED190E2E000CFF0B8C8120
:1021100090E0E817F9070CF04EC00197E817F907AF
:1021200079F0E89E9001E99E300DF89E300D112463
:10213000E20FF31F8E8D9F8DE80FF91F749001C081
:10214000712C6B2CAB2C2A2D2B19022E000C330B6F
:102150008D8190E0281739075CF570FE10C01130B2
:1021600031F44A2D6C2DCE010E94AF0F1DC0012FFE
:10217000212F462D692DCE010E94071015C089A17F
:1021800098A1891789F088A3113031F44A2D6C2D5C
:10219000CE010E94AF0F07C0012F212F462D692DC0
:1021A000CE010E94071088A27694A394610ECBCF33
:1021B000C394910EA7CF88A228853C818985329F40
:1021C000800D112489879F81992399F0082E000C96
:1021D000990B44E550E0239F4019510911244817F9
:1021E00059073CF49D818A85299F800D11248A8797
:1021F000198681E090E0DF91CF911F910F91FF90C0
:10220000EF90DF90CF90BF90AF909F908F907F9096
:102210006F900895DF92EF92FF920F931F93CF93E9
:10222000DF931F92CDB7DEB78C01D62EF42EE12CB2
:10223000E21654F44E2D4F0D6D2DC80129830E94D6
:10224000AF0FE3942981F4CF0F90DF91CF911F91CD
:102250000F91FF90EF90DF900895982F22E0260FC6
:1022600088E0890F821720F0291710F081E0089587
:102270006A5F861718F081E0691708F480E0089516
:10228000EF92FF920F931F93CF93DF931F92CDB7DF
:10229000DEB77B01262F8C0134E0000F111F3A9529
:1022A000E1F7F801E455FE4F8485643048F4FB0102
:1022B000FF27E65BFA4F85A38B3008F08AE085A301
:1022C000F801E455FE4F6081243038F44E2D80E251
:1022D00095E029830E944E0D2981F801E455FE4FB7
:1022E00030855285243088F4C701992785509B4F4B
:1022F000FC01E55AFF4F40913005459F402D1124C8
:1023000045A33496832F819585A3F801E455FE4FAC
:1023100034815681243088F4C701992785509B4F1A
:10232000FC01ED59FF4F40913005459F402D112490
:1023300045A3349686EC830F85A3F801E455FE4F40
:1023400036854281243038F5B7017727CB01855097
:102350009B4FFC01E95BFF4F45A33496209130056C
:10236000239F202D112425A3E05CFF4F15A2FB0124
:10237000EE0FFF1FE258FA4F16A215A2FC01ED5A0C
:10238000FF4F21E025A361517B4FFB012083FC011E
:10239000E95AFF4F15A20F90DF91CF911F910F9136
:1023A000FF90EF900895E0910001A091B002B0E09D
:1023B000AA0FBB1FAE56BE4F6E9FF0011124E80F4F
:1023C000F11D8D919C91E80FF91F849108950E9451
:1023D000D311E82FF0E0EE0FFF1FEC5CFD4F908172
:1023E000992339F080EF890F823018F081E09F3017
:1023F00009F480E008952F923F924F925F926F927E
:102400007F928F929F92AF92BF92CF92DF92EF9284
:10241000FF920F931F93CF93DF9300D000D01F92B2
:10242000CDB7DEB7382E262E49832A830E94D311DA
:10243000E82FF0E0EE0FFF1FEC5CFD4F0190F08104
:10244000E02DFF273197E231F10508F020C2EC5C66
:10245000FF4F0C947E3008E014E00BC38091B9026A
:1024600090E02091BC023091BD024091BA0250919F
:10247000BB02E091BE02F091BF0200E010E0C7C0D5
:102480004090C5025090C6026090C7027090C8028A
:102490006091C1027091C2028091C3029091C40206
:1024A0003091CC024091CB02B8E0AB2EB2E1BB2E12
:1024B0002CEFE22E21E1F22E54E0C52E52E1D52E72
:1024C000E0E08E2EE2E19E2EF5012491231105C05D
:1024D000F6012491221509F4F5C1F4012491231188
:1024E00005C0F7012491221509F41BC2FFEFAF1AB2
:1024F000BF0A2FEFE21AF20AEFEFCE1ADE0AFFEF61
:102500008F1A9F0A20E0E21622E1F206E9F64092D5
:10251000C5025092C6026092C7027092C8026093D0
:10252000C1027093C2028093C3029093C40230939D
:10253000CC024093CB028BC18090C5029090C60222
:10254000A090C702B090C8026091C1027091C2020F
:102550008091C3029091C4024091CC022091C902A3
:102560005091CB0238E0632E32E1732EECEFEE2E69
:10257000E1E1FE2EF4E04F2EF2E15F2EA0E0CA2E44
:10258000A2E1DA2EF3013491331105C0F201349146
:10259000321509F4F5C1F6013491331105C0F70184
:1025A0003491321509F41BC2FFEF6F1A7F0A3FEF17
:1025B000E31AF30AEFEF4E1A5E0AFFEFCF1ADF0AB3
:1025C00030E0E31632E1F306E9F68092C50290921C
:1025D000C602A092C702B092C8026093C102709373
:1025E000C2028093C3029093C4024093CC025093E2
:1025F000CB022093C9022BC18091C002882309F429
:1026000046C143C16191631531F00F5F1F4F081739
:102610001907C4F33CC1D901A00FB11F6C9162111D
:10262000F4CFDA01A00FB11F6C916111EECF61E020
:1026300070E084E090E00E9440118091A6028F5FDC
:102640008093A6028091BA029091BB02F801E80F34
:10265000F91F81E080831CC18091A6028823E1F1EB
:102660004091B20250E08091B5029091B602209163
:10267000B3023091B402E091B702F091B802E12CBC
:10268000F12CE416F50644F56191631121C0DC01DB
:10269000AE0DBF1D6C9162111BC0D901AE0DBF1DE7
:1026A0006C91611115C061E070E082E090E00E94E1
:1026B00040118091B3029091B402FC01EE0DFF1D18
:1026C00081E080838091A60281508093A60204C09D
:1026D0006FEFE61AF60AD5CF4091B20250E0609152
:1026E000B5027091B602E091B702F091B80220E015
:1026F00030E080E024173507B4F4819183110FC0D6
:10270000DB01A20FB31F8C91821109C08091B3022B
:102710009091B402FC01E20FF31F808184C02F5F0F
:102720003F4F82E0E7CF8111B3C091C081E0809339
:10273000C00275C087E090E09C01E9812E1B310941
:10274000223031050CF485C1FA818F1B9109059760
:102750000CF486C161E070E087E090E00E944011D7
:102760001092CD0282E08093B1021092AD0207E098
:1027700017E025E02D8332E03C8369C062E070E021
:1027800085E090E00E9440118091AE029091AF02EE
:10279000891303C08F5F8093AF026091AF0280E026
:1027A00090E06B830E94B1346B81681721F080E068
:1027B00090E00E94B93483E046C087E090E09C013D
:1027C0004981241B310937FD52C16A81861B910959
:1027D000059708F04CC18EE18093CC021092CA029A
:1027E00046C187E090E09C01E9812E1B310937FD4D
:1027F0003EC1FA818F1B9109059708F038C182EE1E
:102800008093CB0281E08093CA0231C18EE680932F
:10281000CB0282E08093CA0202C01092C00207E09D
:1028200027C18091C002811132C02FC01092AC022A
:102830001092AB021092A8021092A7021092AA0264
:102840001092A90285E08093B1021092CD0287E038
:1028500090E09C014981241B31096C81462F50E096
:1028600024173507A4F0412F50E0421753077CF09E
:10287000EA818E1B9109FD812F2F30E0821793078B
:1028800034F010E00817190714F082E001C081E06D
:1028900090E001970F900F900F900F900F90DF91A5
:1028A000CF911F910F91FF90EF90DF90CF90BF904D
:1028B000AF909F908F907F906F905F904F903F90E0
:1028C0002F900895F401649170E080E090E00E9400
:1028D000B23120E030E040E051E40E94D7329B0169
:1028E000AC0160E070E080E591E40E9498302B013B
:1028F0003C01F701649170E080E090E00E94B23109
:1029000020E030E040E051E40E94D7329B01AC016E
:1029100060E070E080E890E40E94983048E23FE395
:10292000DCCDF501649170E080E090E00E94B2316E
:1029300020E030E040E051E40E94D7329B01AC013E
:1029400060E070E080E591E40E9498302B013C014A
:10295000F601649170E080E090E00E94B23120E0E6
:1029600030E040E051E40E94D7329B01AC0160E0CE
:1029700070E080E890E40E94983048E23FE3B6CDF2
:10298000F601649170E080E090E00E94B23120E0B6
:1029900030E040E051E40E94D732905820E030E02F
:1029A00040EA50E40E9498304B015C01F7016491C9
:1029B00070E080E090E00E94B23120E030E040E042
:1029C00051E40E94D7329B01AC0160E070E080E8E6
:1029D00090E40E94983021E058E241ECDCCDF30114
:1029E000649170E080E090E00E94B23120E030E03D
:1029F00040E051E40E94D732905820E030E040EAB5
:102A000050E40E9498304B015C01F201649170E047
:102A100080E090E00E94B23120E030E040E051E4FC
:102A20000E94D7329B01AC0160E070E080E890E446
:102A30000E94983021E058E241ECB6CD03E016E068
:102A40001D82F1E0FC8303CF07E017E023E02D8334
:102A500011C007E017E035E03D8342E04C83F7CE3C
:102A600007E017E065E06D8382E08C83F0CE04E040
:102A700017E01D821C82EBCECF93DF93BC018BEB62
:102A800095E00E94760BEC018CE992E00E941C20FC
:102A90008C0F9D1FDF91CF9108952F923F924F92FF
:102AA0005F926F927F928F929F92AF92BF92CF92DE
:102AB000DF92EF92FF920F931F93CF93DF93CDB7E7
:102AC000DEB72F970FB6F894DEBF0FBECDBF409193
:102AD000ED055091EE056091EF057091F0052FB76F
:102AE000F8948091EA029091EB02A091EC02B091EF
:102AF000ED022FBF481B590B6A0B7B0B8091EC0535
:102B000090E0A0E0B0E00091E8051091E905209187
:102B1000EA053091EB0584179507A607B70730F44F
:102B2000011511052105310509F0BBC380E0012B1A
:102B3000022B032B09F0B5C40E94F81E81E00E940D
:102B4000F81E82E00E94F81E83E00E94F81E9BEFB0
:102B5000692E94E0792E2FE5E22E25E0F22E3BE45B
:102B6000C32E35E0D32E7F866E8600E010E0BB24B6
:102B7000B394A02ED801A550BB4F99968C919997EC
:102B8000882309F4F1C08E849F8430E7830E911C62
:102B9000F40180818111E8C0F60120813181F701C3
:102BA00080819181FC01EE0FFF1FE20FF31F8591E1
:102BB0009491009711F5EE85FF85E05AFF4F8081D3
:102BC000882329F0D7011D921C92F90114C099960F
:102BD0001C92999795968C918823C1F1802F0E9421
:102BE000F81ED701ED91FC91EE0FFF1FD6018D91DC
:102BF0009C91E80FF91F859194912E853F8520586F
:102C00003F4F3A8329832E853F852C573F4F3E8384
:102C10002D832E853F8528573F4F38872F832E855C
:102C20003F8524573F4F3A8729872E843F8430E9D8
:102C3000230E311C4E845F8444E9440E511C2E85C2
:102C40003F852C583F4F3C872B872CC0802F0E94FC
:102C50006D1E8AC0BC01E6E076956795EA95E1F7BE
:102C60006F71892F86958695869580512F702230B9
:102C7000B1F140F521111EC06B3008F06AE0AB8560
:102C8000BC856C93D701ED91FC9111973196ED9332
:102C9000FC93EE0FFF1FD6018D919C91E80FF91F59
:102CA000859194919C01369527953695279580FDC1
:102CB000D1CF2CC0213031F74A2D80E295E00E941F
:102CC0004E0DE0CF2330B1F02430E1F69091300585
:102CD000699F602D1124F1016083D20115C090918C
:102CE0003005699F602D1124E981FA816083AD81EF
:102CF000BE810AC090913005699F602D1124EF813B
:102D0000F8856083A985BA858C93BCCFEE85FF8555
:102D1000E459FF4F2F73208380913005899F802DC8
:102D20001124F4018083EE85FF85E055FF4F10826A
:102D3000F801EE0FFF1FED55FA4F11821082EE855C
:102D4000FF85E858FF4FB082F801E151FB4FB08298
:102D5000EE85FF85E458FF4F1082D7018D919C913D
:102D6000119701968D939C930F5F1F4F2E853F8582
:102D70002F5F3F4F3F872E8732E0E30EF11C42E08A
:102D8000C40ED11C0430110509F0F3CEF8E2EF2E89
:102D9000F5E0FF2E0CE215E0ABEACA2EA5E0DA2E34
:102DA000B3EAAB2EB5E0BB2E1E821D828BE3282E2C
:102DB000312C92E0492E512CF301E858FF4F8081CD
:102DC000882309F400C138978081811104C08D8166
:102DD0000E946D1EF8C081508083D6018C91F30152
:102DE000EC54FF4F4F01930128543F4F3A832983FE
:102DF00081114EC0D5012D913C912F5F3F4FED8148
:102E0000FE81EE0FFF1FED56FA4FC901880F991F83
:102E10000190F081E02DE80FF91F45915491842F26
:102E20008770F4018083CA0173E0969587957A953F
:102E3000E1F7BC0176956795952F96959695A981B2
:102E4000BA819C936F7390913005699F602D112416
:102E5000F6016083ED81FE81EA51FD4F8170808330
:102E6000D50111963C932E93F301E056FF4F8081DC
:102E700090E02817390760F034962081222329F04A
:102E8000821B91098D939C9303C08D810E946D1EBE
:102E9000F601808181508083F301E458FF4F208147
:102EA0002F5F208370974081A981BA813C91340FB4
:102EB000B0978081380FF7013083F301E857FF4F57
:102EC0006081662371F070E0822F022E000C990B56
:102ED0000E946A3034968081869F300D1124D7017C
:102EE0003C93F701808190E0CB96B1010E946A305B
:102EF0008083F301EC58FF4F3081D8013C933C961E
:102F00006081662381F0062E000C770B822F022E43
:102F1000000C990B0E946A3034968081869F300D98
:102F20001124F8013083F301E057FF4F60816623DD
:102F300091F0822F220F990B70E00E946A30CB0132
:102F4000B2010E946A3034962081D8019C91289F5A
:102F5000900D11249C93F80180814F3341F08A3009
:102F60000CF089E087FD80E0D8018C9302C0F80165
:102F70001082F894D701EC91F0E0E352FC4EE4911A
:102F8000AD81BE81AE51BD4FEC93F8018081F3015C
:102F9000E454FF4F9081899F802D11249091310539
:102FA000899F802D1124D4019C91899F802D11240B
:102FB000ED81FE81ED50FB4F8083ED81FE81E95074
:102FC000FB4F808378942D813E812F5F3F4F3E835E
:102FD0002D833FEF631A730A4FEFE41AF40A0F5F71
:102FE0001F4F5FEFC51AD50A82E0A80EB11C2D81D4
:102FF0003E812430310509F0DFCE8091F30588232E
:1030000009F493C08C3020F49CE0E92EE81A01C04A
:10301000E12CFF24F394F092C3051092DB0510928B
:10302000DC053091C0054DE2D42E1D2D131B1E0D65
:1030300003E0030F2EE4412F63E08BEB95E03D8727
:103040000E9407103D850CEF030F1D5F202F41E00C
:10305000612F80E50E94B91F202F42E0612F83E09D
:103060000E94B91FF092DB05F092DC050091C005CB
:1030700013E0100FD01ADE0C23E04D2D622F8BEBE6
:1030800095E02D870E94AF0F2D852F5F2135A9F781
:103090001D0DFF24FA94F10E23E04F2D622F8BEBD0
:1030A00095E02D870E94AF0F2D852F5F2135A9F761
:1030B000035033E0D30E202F4D2D60E08BEB95E0D5
:1030C0000E940A11202F4D2D63E58BEB95E00E94A5
:1030D0000A1141E06D2D83E00E943B1F42E06D2DFF
:1030E00080E50E943B1F145044E0612F80E50E9460
:1030F0003B1F48E0612F83E00E943B1F84E08093E8
:10310000C4058091C005E81A8E2D815D8093C505A8
:103110006091F1057091F2058BEB95E00E94760BC2
:103120008091F30581508093F3058091170590916C
:103130001805892B09F48BC011E01093DB05109260
:10314000DC059091BF0585E5891B8093C40510922D
:10315000C50580911405813009F45CC030F0909170
:103160001305853008F06EC069C080E00E94931E90
:1031700081E00E94931E82E00E94931E83E00E94E1
:10318000931E1093C305E6E4F4E1E491EF5FE0934E
:10319000BF05E7E4F4E1E491EF5FE093C00588E464
:1031A00094E19093DA058093D90510921805109256
:1031B00017051092C10518EA0E944D158823E1F306
:1031C00068E374E18BEB95E00E94760B6091150546
:1031D0007091160580E090E04AE00E94342063E29E
:1031E00074E18BEB95E00E94760B612F62956F7016
:1031F00070E080E090E04AE00E94342068E174E1F1
:103200008BEB95E00E94760B80911005813009F0E0
:103210002EC11DC08091DE059091DF05A091E005D3
:10322000B091E1058F709927AA27BB270897A105C0
:10323000B10510F487E009C088E707C0992339F089
:103240008B5F03C0992319F08FE20E9475200E94C2
:103250009F208091C10581110EC088EF91E0EFEEB3
:10326000F2E0DF019C011D9221503040E1F7109205
:10327000C4051092C5050E94A50C6093E8057093E3
:10328000E9058093EA059093EB052091E4053091E0
:10329000E505621B730B7093E3056093E20580E024
:1032A00000C12FB7F8948091EA029091EB02A091AF
:1032B000EC02B091ED022FBF2091EC05820F911D21
:1032C000A11DB11D8093ED059093EE05A093EF0530
:1032D000B093F0058091DE059091DF05A091E005A7
:1032E000B091E1050196A11DB11D8093DE0590937B
:1032F000DF05A093E005B093E1051092E805109278
:10330000E9051092EA051092EB050E94A50C609366
:10331000E4057093E5058093E6059093E7058091B9
:10332000FC049091FD042FE0289F8001299F100D3F
:10333000112485E10E948E0C800F911F24E0969548
:1033400087952A95E1F79093FD048093FC042091E2
:10335000FB04222309F44BC06091FF04262F30E0C8
:1033600040E050E029833A834B835C83C0900005A2
:10337000D12CE12CF12C40910305509104054A0118
:10338000A12CB12C20910105309102052901612C5D
:10339000712C8217930728F09C014817590708F4ED
:1033A0009A01C901A0E0B0E09C01AD0124193509E2
:1033B0004609570969817A818B819C816C197D0945
:1033C0008E099F090E944E30A501940124193509E8
:1033D000460957090E94C734C20ED31EE41EF51ECB
:1033E000C092FE046C2D70E085E00E942F0C0E94BC
:1033F000DF208091170590911805892BB1F18091FC
:103400001F058F7169F584E10E948E0CBC01990F34
:10341000880B990B0E94B43126EE3FE34EEC50E44A
:103420000E94D7320E9483319B01709316056093EE
:103430001505672B91F084E080931405E7E1F5E032
:1034400080E0419151912417350718F480931405B9
:103450000CC08F5F8430A9F703C08FEF80931405F1
:1034600080911F058F5F80931F0581E01AC0115066
:1034700009F0A2CE60E070E085E00E942F0C83B7D7
:10348000817F846083BF83B7816083BF83B781609E
:1034900083BF889583B78E7F83BF83B78E7F83BFBB
:1034A0008BCE2F960FB6F894DEBF0FBECDBFDF9147
:1034B000CF911F910F91FF90EF90DF90CF90BF9031
:1034C000AF909F908F907F906F905F904F903F90C4
:1034D0002F9008954F925F926F927F92AF92BF921A
:1034E000CF92DF92EF92FF920F931F93CF93DF93D0
:1034F000EC0181E08093C3051092C2051092C105D2
:10350000109213058093DB058093DC058CE0B82EC8
:103510009FEEE92E92E0F92E28EFC22EDD24D394FF
:103520000EEF1FE30E944D158823E1F3FE01849105
:10353000882319F0A090C00501C0A12C2DE633E12D
:1035400040E060E08BEB95E00E946D0E4CE04A0D90
:1035500027E632E160E08BEB95E00E946D0E109261
:10356000C405B092C505BE018BEB95E00E94760BB9
:103570008091BF05982F990F890F81958D5A80935F
:10358000C4058091C005982F990F890F8195835D9F
:103590008093C5058091DE0584FF03C089E693E131
:1035A00002C085E693E10E943C158091BF05982FEB
:1035B000990F890F81958D5A8093C4058091C50517
:1035C0008F5F8093C50580913105882319F081E6CE
:1035D00093E102C08DE593E10E943C159091BF05F7
:1035E000892F880F980F91959D5A9093C4058091CB
:1035F000C5058F5F8093C50589E593E10E943C1561
:10360000809111058130B1F1809110058130A9F0D0
:103610008091DD05482F50E060E070E04090DE05CD
:103620005090DF056090E0057090E1054416550666
:1036300066067706A0F18F3F91F18FEF8093DD054D
:1036400080E00E94931E60E082E192E10E94BE1E33
:1036500081E080931305DF91CF911F910F91FF902F
:10366000EF90DF90CF90BF90AF907F906F905F9082
:103670004F900895809131058F5F082E000C990BB3
:103680006091320570E06F5F7F4F0E946A308093D7
:10369000310560E08CE092E10E94BE1EB5CF8091C2
:1036A0001205813009F03ECFF701C6011192019752
:1036B000E9F71092C4051092C5056FE372E18BEB38
:1036C00095E00E94760B0E949F208CB583608CBD94
:1036D0008DB58E7F8DBD8FE992E0F801099510922E
:1036E000C1058AE192E10E943C150E949F200E9440
:1036F000DF2080911005813009F414CF62E370E07F
:1037000080E090E00E94CA0CF2CFCF92DF92EF925D
:10371000FF920F931F93CF93DF9382E38093EC0587
:1037200081E090E0A0E0B0E08093E8059093E905A7
:10373000A093EA05B093EB058FEF8093DD05E0E8F9
:10374000F7E7259134912130304C09F04BC0E6E980
:10375000F7E7E491E093C605E7E9F7E7E491E09342
:10376000FF04E8E9F7E7E491E0930005E9E9F7E70A
:10377000859194919093020580930105EBE9F7E719
:10378000859194919093040580930305EDE9F7E703
:10379000E491E0933205EEE9F7E7E491E093310537
:1037A000EFE9F7E7E491E093DD05E0EAF7E78591DB
:1037B00094919093180580931705E2EAF7E78591B5
:1037C000949190931A0580931905E4EAF7E785919F
:1037D000949190931C0580931B05E6EAF7E7859189
:1037E00094912CC09CE39093C6051092FF048093A3
:1037F000000580E293E0909302058093010584ED3B
:1038000093E0909304058093030581E08093320553
:10381000809331058CEA9DE09093180580931705FD
:103820008EED9DE090931A058093190584E79EE044
:1038300090931C0580931B058CE39FE090931E05DD
:1038400080931D05C1E0C093FB046FEF70E085E03D
:103850000E942F0C88E08093050589E0809306057F
:1038600087E08093070586E08093080514E01093B5
:10387000090582E080930A0581E180930B050E948F
:10388000DF208CE39FE0909316058093150510933D
:103890001405C0931F058BE08093C9058DE08093CC
:1038A000C80580E18093CA058EE08093CC058FE047
:1038B0008093CB05C093C305C093DB051092DC0554
:1038C000C093C205E6E4F4E1E491EF5FE093BF0545
:1038D000E7E4F4E1E491EF5FE093C00588E494E16C
:1038E0009093DA058093D905CFB7F8948091EE02D2
:1038F000811127C0EAE0F6E18491EEE1F6E19491CE
:10390000E82FF0E0EE0FFF1FEC52FA4EA591B491B4
:10391000EC91E92321F461E08AE00E94C30B61E0AD
:103920008AE00E94F30B8CB580618CBD8CB58064FD
:103930008CBD61E08DE00E94F30B61E08BE00E94A2
:10394000F30B8091EE028F5F8093EE02CFBF8CB5B8
:103950008F7D8CBD8CB58C7F81608CBD8DB5816079
:103960008DBD8CB58C608CBD61E08091C9050E94D5
:10397000F30B61E08091C8050E94F30B61E0809138
:10398000CA050E94F30B8091CC0518161CF461E067
:103990000E94F30B8091CB0518161CF461E00E9485
:1039A000F30B8091CC05181674F460E00E94C30BF1
:1039B0006AE070E080E090E00E94CA0C61E08091D3
:1039C000CC050E94C30B8091C805082E000C990BF2
:1039D000FC01E050FA4EE491F0E0EE0FFF1FE252DE
:1039E000FA4E259134913093D0052093CF05FC01F8
:1039F000EC5EF94EE491E093D6058091C905082E5E
:103A0000000C990BFC01E050FA4EE491F0E0EE0F4F
:103A1000FF1FE252FA4E259134913093CE05209348
:103A2000CD05FC01EC5EF94EE491E093D505809163
:103A3000CB05082E000C990BFC01E050FA4EE491E6
:103A4000F0E0EE0FFF1FE252FA4E259134913093D1
:103A5000D2052093D105FC01EC5EF94EE491E09390
:103A6000D7058091CA05082E000C990BFC01E05087
:103A7000FA4EE491F0E0EE0FFF1FE252FA4E25916C
:103A800034913093D4052093D305FC01EC5EF94EBC
:103A9000E491E093D80581E20E94802084E10E94B5
:103AA00080208091C60587FF03C08FE78093C605FD
:103AB0008091C60580680E94802080E20E9480205C
:103AC0008CE00E9480200E949F2081E0809330053E
:103AD00087EBE82E85E0F82E03E515E0C0E0D1E0A5
:103AE00090EDC92E95E1D92EF701D1937F01F80110
:103AF000C192D1928F014C2F60E080E295E00E944C
:103B00004E0DCF5FC43081F761E070E083E00E942A
:103B10002F0C8091B100887F81608093B100F89470
:103B20001092800010928100109285001092840003
:103B300088E191E0909389008093880080918100D2
:103B400088608093810080918100816080938100F2
:103B500080916F00826080936F007894809111054E
:103B6000813059F410923105DF91CF911F910F915F
:103B7000FF90EF90DF90CF90089560E088EE95E1A0
:103B80000E94BE1E61E088EE95E10E94BE1E62E0CA
:103B900088EE95E10E94BE1E63E088EE95E1DF911C
:103BA000CF911F910F91FF90EF90DF90CF900C94E9
:103BB000BE1E2F923F924F925F926F927F928F9292
:103BC0009F92AF92BF92CF92DF92EF92FF920F93AC
:103BD0001F93CF93DF9300D01F92CDB7DEB7362E61
:103BE0006A01FA0154903196E491A52CB12C75012B
:103BF000F7E0EF0EF11C93E0F594E7949A95E1F766
:103C000020E030E8832E912C0E2F10E08150580ECA
:103C1000822F022E000C990B8A159B050CF047C0D1
:103C2000922F27FF02C097E0920F95959595959555
:103C3000822F877887FF03C08150886F8F5F3401A0
:103C400002C0759467948A95E2F7412C892F990FE9
:103C5000990BAC014E5F5F4F5B834A83252C221A80
:103C6000842D042C000C990B80179107F4F48E9D81
:103C7000F0018F9DF00D9E9DF00D11248A819B8196
:103C8000E80FF91FEC0DFD1DE491F0E0E621F721AE
:103C9000EF2B49F0442D430D622D8BEB95E02983EA
:103CA0000E94AF0F29814394DBCF2F5FB1CF0F90DC
:103CB0000F900F90DF91CF911F910F91FF90EF9098
:103CC000DF90CF90BF90AF909F908F907F906F903C
:103CD0005F904F903F902F900895843018F590E0BA
:103CE0009C0125503B4FF901ED5AFF4F15A2389723
:103CF00015A2FC01EE0FFF1FE258FA4F16A215A203
:103D0000F901E95AFF4F15A2FC01E950FB4F10825F
:103D1000FC01ED50FB4F1082FC01E151FB4F108282
:103D20000C948A0D0895CF93DF93843020F590E0B2
:103D3000EC01C550DB4FFE01ED5AFF4F15A238973D
:103D400015A2FC01EE0FFF1FE258FA4F16A215A2B2
:103D5000FE01E95AFF4F15A2FC01E950FB4F10820A
:103D6000FC01ED50FB4F1082FC01E151FB4F108232
:103D70000E948A0D19A6DF91CF9108950F931F938A
:103D8000CF93DF931F92CDB7DEB78C01862F698367
:103D90000E94931E6981E62FF0E09F01220F331FDE
:103DA00025503B4FD9019B9696961C930E93959761
:103DB000549696961C921E929597E550FB4F81E083
:103DC00081A7DF01A15BBF4F89E095968C93959702
:103DD0001C9695961C929597189695961C92E55967
:103DE000FF4F15A20F90DF91CF911F910F91089572
:103DF000CF93DF93682FA82FB0E0ED01C550DB4FC4
:103E00008DA18823A9F189A5811132C0FE017B967D
:103E100085A1AA0FBB1FA550BB4FD8962C91D89750
:103E2000D9969C91D997E22FF92FE80FF11DE80F51
:103E3000F11D259134912F3F8FEF380711F41DA20A
:103E400017C0FE01B79635A35F963327220F331FA5
:103E50009596ED91FC919697E20FF31F85919491C1
:103E6000643010F40E94BE1E6B968DA18F5F8DA3EF
:103E7000DF91CF910895AF92BF92CF92DF92EF92F0
:103E8000FF920F931F93CF93DF93182F062FC1E05C
:103E9000D3E08AEFD82E9EEFE92E842F8470C82EAF
:103EA000842F8270B82E842F8870A82E4170F42E33
:103EB0008C2F880F8F5FE80ECC2081F04D2F400FA4
:103EC0006C2F610F8BEB95E00E94AF0F4C2F400FD2
:103ED0006D2F610F8BEB95E00E94AF0FBB2081F03F
:103EE000402F4D1B6C2F610F8BEB95E00E94AF0FA5
:103EF000402F4C1B6D2F610F8BEB95E00E94AF0F95
:103F0000AA2081F04C2F400F612F6D1B8BEB95E0A9
:103F10000E94AF0F4D2F400F612F6C1B8BEB95E074
:103F20000E94AF0FFF2081F0402F4C1B612F6D1BB3
:103F30008BEB95E00E94AF0F402F4D1B612F6C1B48
:103F40008BEB95E00E94AF0FCD1744F4E7FC04C063
:103F5000D150D394D394ED0CCF5FAACFDF91CF9102
:103F60001F910F91FF90EF90DF90CF90BF90AF9097
:103F700008959F92AF92BF92CF92DF92EF92FF92FD
:103F80000F931F93CF93DF93F82EE62EB22E03E00C
:103F9000020FD0E0C3E08AEFC82E1EEF842F81709D
:103FA000982EAA24A394A20E4270D42EDF5F802FF5
:103FB0008B19180F9920A1F02C2F220F2A0D4E2DAE
:103FC0004C1B6D2F6F0D8BEB95E00E940A11202F7B
:103FD0004E2D4D1B6C2F6F0D8BEB95E00E940A113F
:103FE000DD20A1F02C2F220F2A0D4E2D4C1B6F2D02
:103FF0006D1B8BEB95E00E940A11202F4E2D4D1B5F
:104000006F2D6C1B8BEB95E00E940A11DC1744F4BA
:1040100017FD04C0C150C394C3941C0D0E5FC6CFDE
:10402000DF91CF911F910F91FF90EF90DF90CF9094
:10403000BF90AF909F900895BC01009791F0FC0154
:1040400001900020E9F73197AF01481B590BE0912F
:10405000BB05F091BC050280F381E02D8BEB95E070
:10406000099480E090E008958F929F92AF92BF9262
:104070000F931F93CF93DF93CDB7DEB7A1970FB602
:10408000F894DEBF0FBECDBF19A2423008F44AE05B
:104090008E010F5D1F4F842E912CA12CB12CA501F8
:1040A00094010E94F134E62FB901CA0101501109AF
:1040B000EA3014F4E05D01C0E95CD801EC93232BF5
:1040C000242B252B61F7C8010E941C20A1960FB656
:1040D000F894DEBF0FBECDBFDF91CF911F910F913E
:1040E000BF90AF909F908F900895E091BB05F091A5
:1040F000BC050190F081E02D682F8BEB95E00994D1
:10410000CF93C82FF89460E08091CA050E94C30B3A
:104110008091CB0518161CF460E00E94C30BCEBD45
:1041200000000DB407FEFDCF8EB58091CB051816AB
:104130001CF461E00E94C30B7894CF9108950F9313
:104140001F93CF938091C7058F5F8093C7050FEEB4
:1041500012E0C0E08C2F80640E94802080E80E94E2
:10416000802061E08091CA050E94C30B8091CB053D
:1041700018161CF460E00E94C30B80E090E0F80188
:10418000E80FF91F20812EBD00000DB407FEFDCF02
:104190002EB501968435910591F78091CB051816BF
:1041A0001CF461E00E94C30BCF5F0C5A1F4FC63056
:1041B00089F680E4CF911F910F910C948020CF92CB
:1041C000DF92EF92FF920F931F93CF93DF93C5E09F
:1041D000D5E00CE015E0FF24FA9497E0E92EE00E1C
:1041E00062E088810E94F30B288130E0F901E85DEC
:1041F000F94E8491F901EC5EF94EC490F901E0505A
:10420000FA4ED490DD2071F081110E949A0BED2DB1
:10421000F0E0EE0FFF1FEA50FA4EA591B491EC9139
:10422000EC21B1F4F80180818F5F808360E08881A8
:104230000E94F30B21960F5F1F4FE012D1CFDF9149
:10424000CF911F910F91FF90EF90DF90CF90089545
:10425000F8018081882371F3F8018F3F11F41082F7
:10426000E5CFF082E3CFCF93DF93CDB7DEB76D9785
:104270000FB6F894DEBF0FBECDBF789484B58260D0
:1042800084BD84B5816084BD85B5826085BD85B5FA
:10429000816085BD80916E00816080936E00109278
:1042A00081008091810082608093810080918100F3
:1042B0008160809381008091800081608093800084
:1042C0008091B10084608093B1008091B0008160E2
:1042D0008093B00080917A00846080937A0080910E
:1042E0007A00826080937A0080917A008160809366
:1042F0007A0080917A00806880937A001092C100E1
:104300000E94851B8091DD05882321F081EE92E0DB
:104310000E946A1A1092130582E38093EC0581E0F3
:104320008093300580E090E00E94B1348093AF022A
:10433000CE0101961C018B8B3C8A8D8B3E8A8F8B24
:10434000388E898F3A8E8B8F3C8E298A3A8A0E94CA
:104350004D15882311F40C94AE2E9091CD029987BF
:10436000992311F40C94EC291092D8021092D702E0
:104370001092D6021092D50200910E0501501091B4
:104380000C050E3FB8F08FEF810F8E3F98F06091D3
:10439000CC02062E000C770B880B990B0E94B431CF
:1043A0002AE939E949E15FE30E94D7320E947C3172
:1043B0006093CC028091CB02853814F0835001C009
:1043C00081E88093CB020E3F50F48091CC02873E6F
:1043D0001CF084508093CC0281E080930401115042
:1043E0001E3F48F48091CC028A311CF48C5F80938C
:1043F000CC021092040183E08093CA028091CC0227
:10440000882309F44DC1A4F000E010E018C0909199
:10441000CC028091D602E989FA899F0122193309D9
:10442000283031050CF495C09093CC028093D602CD
:104430008091CC0287FF94C000E010E098C0083063
:1044400011052CF720E030E040E450E46091C10217
:104450007091C2028091C3029091C4020E94983070
:104460006B017C01B801012E000C880B990B0E9496
:10447000B4319B01AC01C701B6010E9499302B01F8
:104480003C0120E030E040E05EE30E94D7320E9431
:10449000EF316D877E878F87988B20E030E040EA90
:1044A00050E46091C5027091C6028091C70290915C
:1044B000C8020E94993020E030E0A9010E949930A2
:1044C0004B015C0120E030E040E05EE30E94D73227
:1044D0000E94EF316B017C0120E030E040E051E4CC
:1044E0006D857E858F8598890E94D732A3019201C0
:1044F0000E94983090580E948331762E20E030E060
:1045000040E051E4C701B6010E94D732A5019401F1
:104510000E94983090580E948331462F6D857E8589
:104520008F85988990584D8F0E948331B62EC70190
:10453000B60190580E948331862F272D4D8D6B2D0B
:104540000E94FB11F101E00FF11F80830F5F1F4FED
:1045500076CF2191213009F060CF898590E05DCF41
:104560009091CC028091D702EB8DFC8D8FC00830EA
:104570001105B4F720E030E040E450E46091C1025E
:104580007091C2028091C3029091C4020E9498303F
:104590006B017C01B801012E000C880B990B0E9465
:1045A000B4319B01AC01C701B6010E9499302B01C7
:1045B0003C0120E030E040E05EE30E94D7320E9400
:1045C000EF316D877E878F87988B20E030E040E861
:1045D00050E46091C5027091C6028091C70290912B
:1045E000C8020E94983020E030E0A9010E94993072
:1045F0004B015C0120E030E040E05EE30E94D732F6
:104600000E94EF316B017C0120E030E040E051E49A
:104610006D857E858F8598890E94D732A30192018E
:104620000E94983090580E948331762E20E030E02E
:1046300040E051E4C701B6010E94D732A5019401C0
:104640000E94983090580E948331462F6D857E8558
:104650008F85988990584D8F0E948331B62EC7015F
:10466000B60190580E948331862F272D4D8D6B2DDA
:104670000E94FB11F101E00FF11F80830F5F1F4FBC
:1046800076CF2191213011F4898590E09F01221984
:10469000330928303105ACF39093CC028093D702D4
:1046A0008091CB02882309F449C184F000E010E036
:1046B00014C08091CB02E98DFA8D9F012219330934
:1046C000283031050CF493C08093CB028091CB024B
:1046D00087FF34C100E010E090C0083011054CF7AE
:1046E00020E030E040EA50E46091C1027091C202E3
:1046F0008091C3029091C4020E94993020E030E082
:10470000A9010E9499302B013C0120E030E040E0FB
:104710005EE30E94D7320E94EF316D877E878F87DC
:10472000988B20E030E040E450E46091C502709145
:10473000C6028091C7029091C8020E9498306B0116
:104740007C01B801012E000C880B990B0E94B4313A
:104750009B01AC01C701B6010E9499304B015C017D
:1047600020E030E040E05EE30E94D7320E94EF316B
:104770006B017C0120E030E040E051E46D857E85F6
:104780008F8598890E94D732A30192010E949830A8
:1047900090580E948331762E20E030E040E051E4D2
:1047A000C701B6010E94D732A50194010E9498303A
:1047B00090580E948331462F6D857E858F8598891C
:1047C00090584D8F0E948331B62EC701B601905884
:1047D0000E948331862F272D4D8D6B2D0E94FB115A
:1047E000F101E00FF11F80830F5F1F4F76CF919192
:1047F000913009F062CF80E060CF083011050CF0F5
:1048000087C020E030E040E850E46091C102709140
:10481000C2028091C3029091C4020E94983020E0AD
:1048200030E0A9010E9499302B013C0120E030E0EA
:1048300040E05EE30E94D7320E94EF316D877E87B1
:104840008F87988B20E030E040E450E46091C5020F
:104850007091C6028091C7029091C8020E94983060
:104860006B017C01B801012E000C880B990B0E9492
:10487000B4319B01AC01C701B6010E9499304B01D4
:104880005C0120E030E040E05EE30E94D7320E940D
:10489000EF316B017C0120E030E040E051E46D85B8
:1048A0007E858F8598890E94D732A30192010E944C
:1048B000983090580E948331762E20E030E040E01E
:1048C00051E4C701B6010E94D732A50194010E94AC
:1048D000983090580E948331462F6D857E858F8554
:1048E000988990584D8F0E948331B62EC701B6012A
:1048F00090580E948331862F272D4D8D6B2D0E945D
:10490000FB11F101E00FF11F80830F5F1F4F75CF87
:104910009091CB028091D802EF89F88D9F012219E6
:1049200033092830310534F421912130B9F78985D4
:1049300090E0F4CF9093CB028093D80200E010E097
:10494000063011050CF087C020E030E040E450E470
:104950006091C1027091C2028091C3029091C40221
:104960000E94983020E030E0A9010E9499302B018C
:104970003C0120E030E040E05EE30E94D7320E943C
:10498000EF3169877A878B879C8720E030E040E0B1
:1049900050E46091C5027091C6028091C702909167
:1049A000C8020E9498306B017C01B801012E000CF6
:1049B000880B990B0E94B4319B01AC01C701B60171
:1049C0000E9499304B015C0120E030E040E05EE362
:1049D0000E94D7320E94EF316B017C0120E030E071
:1049E00040E051E469857A858B859C850E94D732A9
:1049F000A30192010E94983090580E948331762E34
:104A000020E030E040E051E4C701B6010E94D73217
:104A1000A50194010E94983090580E948331462F3E
:104A200069857A858B859C8590584D8F0E9483314E
:104A3000B62EC701B60190580E948331862F272DCC
:104A40004D8D6B2D0E94FB11F101E00FF11F808352
:104A50000F5F1F4F75CF8091CB02EB89FC899F01BF
:104A600022193309263031052CF491919130B9F790
:104A70008EE1F5CF8093CB0280911005813069F4EF
:104A80008091D802882349F060E070E080E090E0F7
:104A90000E94401182E48093CB0280911005813006
:104AA000A1F48091D702882381F08091D8028111EE
:104AB0000CC08CE38093CC0288E38093CB0260E04F
:104AC00070E081E090E00E944011809110058130FB
:104AD000A1F48091D602882381F08091D8028111BF
:104AE0000CC084EC8093CC0288E38093CB0260E01E
:104AF00070E081E090E00E944011809112058130C9
:104B000011F40C94B82E8091C902882329F081EC0D
:104B10008093CC021092C9028091CA02811102C016
:104B200089EE03C0813021F487E18093CC0209C073
:104B3000823039F480911005813019F48EE680932B
:104B4000CB026091CC02062E000C770B880B990BE0
:104B50000E94B43120E030E04EEF52E40E940A316E
:104B600020E030E040E450E40E94D7322091C502BA
:104B70003091C6024091C7025091C8020E949930FC
:104B80006B017C016093C5027093C6028093C702DB
:104B90009093C8021091CB02612F012E000C770B6D
:104BA000880B990B0E94B4312B013C0120E030E0CE
:104BB0004EEF52E40E940A3120E030E040E450E43D
:104BC0000E94D7322091C1023091C2024091C302AB
:104BD0005091C4020E9499304B015C016093C10264
:104BE0007093C2028093C3029093C4021116F4F42E
:104BF0001F332CF085E0809303018AE041C022E757
:104C000031E346E45DEBC301B2010E94D73220E0FC
:104C100030E040E051E40E9499300E94833160937B
:104C2000030127EF30E244E05DE318C0112329F1CE
:104C300020E732E441E25DEBC301B2010E94D732CA
:104C400020E030E040E051E40E9499300E9483313E
:104C5000609303012DEE32E841EC5CE3C301B20145
:104C60000E94D73220E030E040E051E40E949930C9
:104C70000E9483316093020105C088E080930301A4
:104C800080930201809104010091030110910201BF
:104C90006091D1027091D202882309F499C0072E45
:104CA000000C880B990B0E94B4312B013C01602F42
:104CB00070E080E090E00E94B43120E030E040E01D
:104CC0005FE30E94D7329B01AC01C501B4010E9491
:104CD00099309B01AC01C301B2010E9498304B0195
:104CE0005C01612F70E080E090E00E94B4312B0104
:104CF0003C016091CF027091D002072E000C880B0E
:104D0000990B0E94B43169877A878B879C8720E052
:104D100030E040E05FE3C301B2010E94D7329B0163
:104D2000AC01C701B6010E9499309B01AC016985B5
:104D30007A858B859C850E9498306B017C0120E0F0
:104D400030E040E051E4C501B4010E9499300E9476
:104D50007C31698720E030E040E051E4C701B601D2
:104D60000E9499300E947C31212F49858BEB95E080
:104D70000E9407101092DB051092DC0520E030E065
:104D800040E251E4C501B4010E9499300E947C3197
:104D9000162F20E030E040EC50E4C701B6010E943D
:104DA0009930A30192010E9499300E947C3122E047
:104DB000412F8BEB95E00E940A1120E030E040E4A7
:104DC00050E4C701B6010E949930A301920188C046
:104DD000072E000C880B990B0E94B4312B013C016B
:104DE000602F70E080E090E00E94B43120E030E07D
:104DF00040E05FE30E94D7329B01AC01C501B401E2
:104E00000E9499309B01AC01C301B2010E9498300D
:104E10004B015C016091CF027091D002072E000C13
:104E2000880B990B0E94B4312B013C01612F70E07B
:104E300080E090E00E94B43120E030E040E05FE3A9
:104E40000E94D7329B01AC01C701B6010E94993084
:104E50009B01AC01C301B2010E9498306B017C013F
:104E600020E030E040E051E4C501B4010E949930F7
:104E70000E947C31762E20E030E040E051E4C70112
:104E8000B6010E9499300E947C31212F472D8BEB77
:104E900095E00E9407101092DB051092DC0520E0DF
:104EA00030E040E251E4C501B4010E9499300E9413
:104EB0007C31162F20E030E040E151E4C701B6011B
:104EC0000E9499300E947C3122E0412F8BEB95E0CB
:104ED0000E940A1120E030E040E451E4C701B6012D
:104EE0000E9499300E947C3122E0412F8BEB95E0AB
:104EF0000E940A1181E08093DB051092DC0580910D
:104F00000001082F10E08B3060F42CEF2003C0016B
:104F1000219F900D11248A969093D0028093CF0206
:104F20002CC020E030E048E252E46091C50270916C
:104F3000C6028091C7029091C8020E94993020E079
:104F400030E040E051E40E9498300E947C3128EF2C
:104F50002003A001219F500D11249A012C5A3F4F8C
:104F60006217730734F09B011616170614F420E03D
:104F700030E03093D0022093CF0220E030E040ECCC
:104F800051E46091C1027091C2028091C30290917C
:104F9000C4020E94993020E030E040E051E40E94D9
:104FA00098300E947C312091010146E050E0FA01E6
:104FB000E21BF1099F0143E0220F331F4A95E1F7FD
:104FC0006217730734F09B01693F7F4F14F028EF9D
:104FD0003FEF3093D2022093D102D12CCC24C39442
:104FE0008091CE02D81608F038C10091D3021091FA
:104FF000D40225E0D29E000D111D1124F8018281FA
:10500000833010F012828BC08F5FF801828383811E
:10501000882309F440C0618170E06D5F7F4F072EE7
:10502000000C880B990B0E94B43120E030E040E086
:105030005EE30E94D7320E94EF312B013C01F80160
:10504000608170E06B5F7F4F072E000C880B990B1F
:105050000E94B43120E030E040E05EE30E94D732AD
:105060000E94EF314B015C01C301B2010E94833108
:10507000F62EC501B4010E948331862F6F2D0E9448
:10508000E711F801811104C080818F5F808303C024
:1050900083818C258383F8018381811140C06181E4
:1050A00070E06D5F7F4F072E000C880B990B0E94FC
:1050B000B43120E030E040E05EE30E94D7320E944D
:1050C000EF312B013C01F801608170E065507109FE
:1050D000072E000C880B990B0E94B43120E030E0C1
:1050E00040E05EE30E94D7320E94EF314B015C0149
:1050F000C301B2010E948331F62EC501B4010E94A2
:105100008331862F6F2D0E94E711F801811104C0B1
:1051100080818150808303C083818C258383F80143
:105120001482E12CF12C28E0E216F1040CF041C0CD
:10513000F801618170E06C5F7F4F072E000C880BD7
:10514000990B0E94B43120E030E040E05EE30E9421
:10515000D7320E94EF314B015C01F801608170E0B1
:10516000635071096E0D7F1D072E000C880B990B83
:105170000E94B43120E030E040E05EE30E94D7328C
:105180000E94EF312B013C01C501B4010E94833123
:10519000A62EC301B2010E948331862F6A2D0E9480
:1051A000E711F101EE0DFF1D8083FFEFEF1AFF0AFB
:1051B000BACFED89FE89CF018219930908972CF4A3
:1051C00081918130C1F7F8018483F80184818111D4
:1051D00003C081818F5F8183F80123814091D102D7
:1051E00091816091CF0280814450490F6450680FD3
:1051F000222319F02AEF33E002C020EF33E08BEBDB
:1052000095E00E946D0E8091C5029091C602A0911A
:10521000C702B091C802BC01CD0190580E948331F1
:10522000F801808188500E942D118823A1F080917F
:10523000C1029091C202A091C302B091C402BC010C
:10524000CD0190580E948331F801818188500E94DD
:105250002D11811193C5D394C3CE10E0F12C809110
:105260000001F81608F07AC500E0E12C80910101F8
:10527000E81608F0AEC06E2D8F2D0E94D3118F302E
:1052800061F48091C0024091D1026091CF02400F41
:10529000610F882309F481C07DC06E2D8F2D0E947F
:1052A000D311833179F52091B90230E04091BC02ED
:1052B0005091BD02E091BE02F091BF0280E090E00B
:1052C000821793070CF082C061916F1119C0DA0147
:1052D000A80FB91F6C916E1113C02091BA023091C2
:1052E000BB02F901E80FF91F80814091D102609162
:1052F000CF02400F610F811119C021E432E062C07A
:105300000196DECF6E2D8F2D0E94D311843191F541
:105310002091B20230E04091B5025091B602E09186
:10532000B702F091B80280E090E007C02CED33E0C6
:1053300049C061916F1529F0019682179307CCF34C
:1053400045C0DA01A80FB91F6C916E11F5CF2091FD
:10535000B3023091B402F901E80FF91F8081409146
:10536000D1026091CF02400F610F8111DFCF27E39F
:1053700032E028C06E2D8F2D0E94D3118C3181F424
:105380008091C0024091D1026091CF02400F610F25
:10539000811103C029E632E015C026EE33E012C0C9
:1053A0006E2D8F2D0E94D311E82FF0E0EE0FFF1F1E
:1053B000E65DFE4F208131814091D102400F609126
:1053C000CF02610F8BEB95E00E946D0EE394085FB6
:1053D0004DCFF394185F43CF8091B102811106C085
:1053E0001092CD0281E08093B102B8C4813009F0FF
:1053F0007CC0BEE1AB2EE12CF12C67015CE0B090EB
:10540000B0020B2D10E0F801EE0FFF1FE05FFE4F22
:105410000190F081E02DEC0DFD1D8491893019F48F
:105420002AEF33E008C0E491F0E0EE0FFF1FE65DE5
:10543000FE4F20813181452F6A2D8BEB95E05D8FEA
:105440000E946D0E5D8DF3E0CF0ED11C585F54327B
:10545000B1F62FEFE21AF20A88E0A80E93E0E916FF
:10546000F10459F68091AF028B1568F022ED33E01C
:1054700040E060E08BEB95E00E946D0E809110059E
:10548000813049F489C428EC33E040E060E08BEBE4
:1054900095E00E946D0E1091B002112369F02EEB81
:1054A00033E044E160E08BEB95E00E946D0E80916B
:1054B0000C05813009F4BDC51091B002812F90E038
:1054C0000C976CF424EB33E044E16CE48BEB95E057
:1054D0000E946D0E80910E05813009F4B4C5809153
:1054E0001205813009F03AC4B8C58230B1F5809117
:1054F000AD028D3018F48F5F8093AD0212E01093EF
:10550000C3051093C4058091AD028A508093C505F0
:1055100065EA73E08BEB95E00E94760B81E0809367
:10552000C3051093C4056091AD0270E080E090E087
:105530000E94B43120E030E040E05FE30E94D732C7
:1055400020E030E040E951E40E9499300E947C3133
:105550006093C50561E973E038C0833009F03FC04E
:105560008091AD028D3018F48F5F8093AD0212E010
:105570001093C3051093C4058091AD028A508093A7
:10558000C50567E873E08BEB95E00E94760B81E040
:105590008093C3051093C4056091AD0270E080E074
:1055A00090E00E94B43120E030E040E05FE30E94F0
:1055B000D73220E030E040E951E40E9499300E9467
:1055C0007C316093C50563E773E08BEB95E00E9447
:1055D000760B80911005813009F0C0C301CF843073
:1055E00009F077C180911005813009F445C500911B
:1055F000AB021091AC025091A9020D321105C4F515
:105600001091A702E6E2FE2EF10E452F400F405109
:1056100029E633E06F2D8BEB95E05D8F0E946D0ED8
:105620005D8D40E2450F2FE533E06F2D8BEB95E06C
:105630000E946D0EF8EEFF2EF10E00E010E0011555
:10564000110519F00D30110519F425E533E002C0FC
:105650002BE433E048E26F2D8BEB95E00E946D0E5A
:105660000F5F1F4FE8E0FE0E0E30110541F72BC112
:10567000003511050CF05FC060E2D62ED50EE0902B
:10568000A702F090A80266E26E0D2AEF33E04D2DDE
:105690008BEB95E05D8F0E946D0E68EF6E0D2FE530
:1056A00033E04D2D8BEB95E00E946D0E5D8D47E153
:1056B000450F6CEF6E0D21E433E08BEB95E00E941B
:1056C0006D0E78EEB72EBE0CC12CD12CC114D104B6
:1056D00021F0FDE0CF16D10419F425E533E002C036
:1056E0002BE433E048E26B2D8BEB95E00E946D0ECE
:1056F0002FEFC21AD20A88E0B80E9EE0C916D10474
:1057000029F768ED6E0D27E333E048E28BEB95E077
:105710000E946D0E60EE6E0D27E333E048E28BEBE6
:1057200095E00E946D0EEFEFEE1AFE0AF092A802CD
:10573000E092A702BEC0F090A70240E2E42EE50E80
:105740002AEF33E04E2D66E26F0D8BEB95E00E36BF
:10575000110554F50E946D0E4FE553E06E2D88EF54
:105760008F0D0E94D91D38EEE32EEF0CC12CD12CE9
:10577000C114D10421F0FDE0CF16D10419F425E5C0
:1057800033E002C02BE433E048E26E2D8BEB95E072
:105790000E946D0E2FEFC21AD20A88E0E80E9EE03A
:1057A000C916D10429F773C00E946D0EB801012EED
:1057B000000C880B990B0E94B43120E030E04CEDD6
:1057C00052E40E94983020E030E040EF51E40E9423
:1057D0000A3120E030E044E353E40E94D73220E075
:1057E00030E044EB52E40E94983029E33AEF4EE86F
:1057F0005CE30E94D7320E94053120E030E040E8AF
:1058000051E40E94D73290580E947C31E60EB801D4
:105810006E567109072E000C880B990B0E94B4314B
:1058200020E030E040EF51E40E940A3120E030E017
:1058300040EF51E40E94D7320E947C31962F4FE511
:1058400053E06E2D88EF8F0D891B0E94D91D28EE25
:10585000E22EEF0CC12CD12CC114D10421F0EDE0CB
:10586000CE16D10419F425E533E002C02BE433E071
:1058700048E26E2D8BEB95E00E946D0EFFEFCF1A84
:10588000DF0A28E0E20E8EE0C816D10429F768EDA1
:105890006F0D27E333E048E28BEB95E00E946D0E3D
:1058A00060EE6F0D27E333E048E28BEB95E00E945A
:1058B0006D0E063911053CF081E08093CD02109207
:1058C000AC021092AB028091AB029091AC020196B7
:1058D00041C2853009F042C2E090AB02F090AC02C8
:1058E00092E3E916F1040CF0C2C0D12C00E010E004
:1058F0004091A9026091A702485D6D0D0115110547
:1059000019F00A30110519F425E533E002C02BE443
:1059100033E08BEB95E00E946D0E0F5F1F4FE8E0C8
:10592000DE0EF8E5DF12E4CF0091A9021091AA0281
:1059300020E2200F2987C090A702D090A80296E20B
:10594000A92EAC0C2DE233E049856A2D8BEB95E056
:105950000E946D0E89E1E816F10434F423E233E08D
:1059600048E1400F6A2D45C0B70169517109072E02
:10597000000C880B990B0E94B4312B013C01B8013B
:10598000685E7F4F072E000C880B990B0E94B43184
:105990004B015C012DEC3CEC4CEC5DE3C301B2012E
:1059A0000E94D7329B01AC01C501B4010E9498301E
:1059B0000E947C316D87B6016A5D7F4F072E000C17
:1059C000880B990B0E94B4314B015C012DEC3CEC2F
:1059D0004CE45EE3C301B2010E94D7329B01AC01EB
:1059E000C501B4010E9499300E947C3123E233E06A
:1059F0004D858BEB95E00E946D0EB701FF0C880B77
:105A0000990B0E94B4312DEC3CEC4CE45EE30E9417
:105A1000D7322B013C01B801605E7F4F072E000C8E
:105A2000880B990B0E94B431A30192010E94983017
:105A30000E947C31162FB601665E7F4F072E000C48
:105A4000880B990B0E94B431A30192010E949930F6
:105A50000E947C312FE533E0412F8BEB95E00E94D3
:105A60006D0E4AEF53E0698582E38C0DB8C09AE56C
:105A7000E916F1040CF0B6C0D12C00E010E0409122
:105A8000A9026091A702485D6D0D0115110519F07D
:105A90000A30110519F425E533E002C02BE433E0A8
:105AA0008BEB95E00E946D0E0F5F1F4FE8E0DE0E5E
:105AB000F8E5DF12E4CF8090A9029090AA0280E27C
:105AC000B82EB80C0091A7021091A80266E2600FF0
:105AD0002DE233E04B2D8BEB95E00E946D0EB7016C
