:100000000C94CF0F0C94F70F0C94F70F0C94F70F80
:100010000C94F70F0C94F70F0C94F70F0C94F70F48
:100020000C94F70F0C94F70F0C94F70F0C94F90F36
:100030000C94F70F0C94F70F0C94F70F0C94F70F28
:100040000C9406230C94F70F0C94F70F0C94F70FF5
:100050000C94F70F0C94F70F0C94F70F0C94F70F08
:100060000C94F70F0C94F70FE31CD71CD71CEC1C57
:10007000EE1CF01CF21CF41CF61CF81C011D0C1DDF
:1000800053717561776B20706C617965722074654E
:100090007374004D757369632044656D6F0A4D7507
:1000A0006368206368697074756E650A5375636868
:1000B00020776F770A49206861766520326B42208D
:1000C0006F662052414D004C6574277320676F2185
:1000D0000053717561776B20706C61796572207463
:1000E00065737400410E000102030A0B0405040845
:1000F00006070609CC0000BF04C17F7FB2000000E4
:100100000000007F7F7F000000B000C17F7F7F0084
:1001100000000C00007F7F7F0000001000C77F7F81
:10012000B20000001000077F7F7F000000B000C118
:100130007F7F7F0000000C00007F7F7F000000B009
:1001400000C17F7FB00000000000007F7F7F0000C3
:1001500000B000C17F7FB20000000000007F7F7F01
:100160000000001000C77F7F7F0000001C00077F99
:100170007F7F000000B000C17F7FB70000000C004F
:10018000007F7F7F0000000000007F7F7F00000075
:100190000000007F7F7F000000B000C17F7FB700BC
:1001A00000000000007F7F7F0000001000C77F7FFD
:1001B000B50000001000077F7F7F000000B000C185
:1001C0007F7FB20000000000007F7F7F000000B052
:1001D00000C17F7FB50000000C00007F7F7F000022
:1001E00000B000C17F7FB50000000000007F7F7F6E
:1001F0000000001000C77F7FB20000001000077FE2
:100200007F7F000000BC00C17F7F7F0000000000F6
:10021000007F7F7F000000B000C17F7FB200000040
:100220000000007F7F7F000000B000C17F7F7F0063
:1002300000000C00007F7F7F0000001000C77F7F60
:10024000B20000001000077F7F7F000000B000C1F7
:100250007F7F7F0000000C00007F7F7F000000B0E8
:1002600000C17F7FB00000000000007F7F7F0000A2
:1002700000B000C17F7FB20000000000007F7F7FE0
:100280000000001000C77F7F7F0000001C00077F78
:100290007F7F000000B000C17F7FB70000000C002E
:1002A000007F7F7F0000000000007F7F7F00000054
:1002B0000000007F7F7F000000B000C17F7FB7009B
:1002C00000000000007F7F7F0000001000C77F7FDC
:1002D000B00000001000077F7F7F000000B000C169
:1002E0007F7FBC0000000000007F7F7F000000B027
:1002F00000C17F7FB10000000000007F7F7F000011
:1003000000B000C17F7FBD0000000000007F7F7F44
:100310000000001000C77F7FC10000001000077FB1
:100320007F7F000000B000C17F7FBE0000000000A2
:10033000007F7F7F000000BF04C17F7FB20000000C
:100340000000007F7F7F000000B000C17F7F7F0042
:1003500000000C00007F7F7F0000001000C77F7F3F
:10036000B20000001000077F7F7F000000B000C1D6
:100370007F7F7F0000000C00007F7F7F000000B0C7
:1003800000C17F7FB00000000000007F7F7F000081
:1003900000B000C17F7FB20000000000007F7F7FBF
:1003A0000000001000C77F7F7F0000001C00077F57
:1003B0007F7F000000B000C17F7FB70000000C000D
:1003C000007F7F7F0000000000007F7F7F00000033
:1003D0000000007F7F7F000000B000C17F7FB7007A
:1003E00000000000007F7F7F0000001000C77F7FBB
:1003F000B50000001000077F7F7F000000B000C143
:100400007F7FB20000000000007F7F7F000000B00F
:1004100000C17F7FB50000000C00007F7F7F0000DF
:1004200000B000C17F7FB50000000000007F7F7F2B
:100430000000001000C77F7FB20000001000077F9F
:100440007F7F000000BC00C17F7F7F0000000000B4
:10045000007F7F7F000000BF04C17F7FB2000000EB
:100460000000007F7F7F000000B000C17F7F7F0021
:1004700000000C00007F7F7F0000001000C77F7F1E
:100480007F0000001000077F7F7F000000B000C1E8
:100490007F7F7F0000000000007F7F7F000000B0B2
:1004A00000C17F7F7F0000000000007F7F7F000091
:1004B00000B000C17F7F7F0000000000007F7F7FD1
:1004C0000000001000C77F7F7F0000001000077F42
:1004D0007F7F000000B000C17F7FC30000000000EC
:1004E000007F7FC50000000C00007F7F7F000000C0
:1004F0000000007F7F7F0000000000007F7FC500BC
:1005000000000000007F7F7F0000000000007F7F70
:10051000C30000000000007F7F7F0000000000009B
:100520007F7FC10000000000007F7F7F000000008F
:1005300000007F7FC30000000000007F7F7F00007D
:10054000000000007F7FC50000000000007F7F7F6B
:100550000000000000007F7FBE0000000000007F60
:100560007F7F0000000C00007F7F7F000000000004
:10057000007F7F7F000000BF04C17F7FB2000000CA
:100580000000007F7F7F000000B000C17FA67FC019
:1005900000000C00007F7F7FE000C21000C77FB228
:1005A000B20000001000077F7F7F000000B000C194
:1005B0007FA67FC000000C00007F7F7F000000B09E
:1005C00000C17FA4B0C000000000007F7F7F00005A
:1005D00000B000C17FA6B2C000000000007F7F7F96
:1005E0000000001000C77FA97FC000001C00077F2B
:1005F0007F7F000000B000C17FABB7C000000C00DF
:10060000007F7F7F0000000000007F7F7FE000D33D
:100610000000007FA97F000000B000C17FABB7C021
:1006200000000000007F7F7F0000001000C77FA94E
:10063000B5C000001000077F7F7F000000B000C140
:100640007FA6B2C000000000007F7F7F000000B0E6
:1006500000C17FA9B5C000000C00007F7F7F0000B3
:1006600000B000C17FADB5C000000000007F7F7FFB
:100670000000001000C77F7FB20000001000077F5D
:100680007F7F000000BC00C17FA67FC0000000008B
:10069000007F7F7F000000BF04C17F7FB2000000A9
:1006A0000000007F7F7F000000B000C17FA67FC0F8
:1006B00000000C00007F7F7FE000C21000C77FB207
:1006C000B20000001000077F7F7F000000B000C173
:1006D0007FA67FC000000C00007F7F7F000000B07D
:1006E00000C17FA4B0C000000000007F7F7F000039
:1006F00000B000C17FA6B2C000000000007F7F7F75
:100700000000001000C77FA97FC000001C00077F09
:100710007F7F000000B000C17FABB7C000000C00BD
:10072000007F7F7F0000000000007F7F7FE000D31C
:100730000000007FA97F000000B000C17FABB7C000
:1007400000000000007F7F7F0000001000C77FB026
:10075000B0C000001000077F7F7FC00018B000C14C
:100760007FB5BCC000000000007F7F7F000000B0AC
:1007700000C17FABB1C000000000007F7F7F0000A0
:1007800000B000C17FA5BDC000000000007F7F7FDA
:100790000000001000C77FADC10000001000077FFF
:1007A0007F7F000000B000C17F7FBEC0000000005E
:1007B000007F7F7F000000BF04C17FA9B20000005E
:1007C0000000007F7F7F000000B000C17FA67FC0D7
:1007D00000000C00007F7F7FE000C21000C77FB2E6
:1007E000B20000001000077F7F7F000000B000C152
:1007F0007FA67FC000000C00007F7F7F000000B05C
:1008000000C17FA4B0C000000000007F7F7F000017
:1008100000B000C17FA6B2C000000000007F7F7F53
:100820000000001000C77FA97FC000001C00077FE8
:100830007F7F000000B000C17FABB7C000000C009C
:10084000007F7F7F0000000000007F7F7FE000D3FB
:100850000000007FA97F000000B000C17FABB7C0DF
:1008600000000000007F7F7F0000001000C77FA90C
:10087000B5C000001000077F7F7F000000B000C1FE
:100880007FA6B2C000000000007F7F7F000000B0A4
:1008900000C17FA9B5C000000C00007F7F7F000071
:1008A00000B000C17FADB5C000000000007F7F7FB9
:1008B000E000C21000C77FB2B20000001000077F46
:1008C0007F7F000000BC00C17FA67F000000000009
:1008D000007F7F7F000000B000C17FADB20000004C
:1008E0000000007F7F7F000000B000C17FA97FC0B3
:1008F00000000C00007F7F7F0000001000C77FA970
:10090000B2C000001000077F7F7F000000B000C170
:100910007FA67FC000000C00007F7F7F000000B03A
:1009200000C17FA9B0C000000000007F7F7F0000F1
:1009300000B000C17FB9B2C000000000007F7F7F1F
:100940000000001000C77FB07FC000001C00077FC0
:100950007F7F000000B000C17FAFB7C000000C0077
:10096000007F7F7F0000000000007F7F7F0000008D
:100970000000007F7F7F000000B000C17F7FB700D4
:1009800000000000007F7F7F0000001000C77F7F15
:10099000B00000001000077F7F7F000000B000C1A2
:1009A0007F7FBC0000000000007F7F7F0EC100B091
:1009B00000C1B27FB10EC100000000B57F7F0EC143
:1009C00000B000C1B97FBD0EC1000000007F7F7F75
:1009D0000EC1001000C7B57FC10000001000077FE6
:1009E0007F7F0EC100B000C1B57FBE0000000000D7
:1009F000007F7F7F000000BF04C1AB7FB20000001A
:100A0000000000AD7F7FCC0010B000C17FB07FC080
:100A100000000C00007F7F7FC000101000C7ADB247
:100A2000B2CC00001000077F7F7FC00010B000C173
:100A3000ABAB7FC000000C00007F7F7FC00010B018
:100A400000C17FB0B0CC00000000007F7F7FC000FD
:100A500010B000C1A9B2B2C000000000007F7F7FCB
:100A6000CC08101000C77FB07FC000001C00077FBB
:100A70007F7FCEC210B000C1A4ABB7CEC2000C00C5
:100A800000A67F7FC00010000000A6B57FCC10003C
:100A90000000007F7F7FC00010B000C1A4B2B7CCBF
:100AA00008000000007F7F7FC000101000C7A6B5BF
:100AB000B5CC08001000077F7F7FC00010B000C1D8
:100AC000A9B2B2C000000000007F7F7F0C0800B018
:100AD00000C17F7FB50000000C00007F7F7FC00059
:100AE00010B000C1B0B0B5CC10000000007F7F7F17
:100AF0000C08001000C77F7FB20000001000077FC5
:100B00007F7F0EC200BC00C1A97F7F0EC200000023
:100B100000AB7F7F000000BF04C1AB7FB2000000CC
:100B2000000000AD7F7FC00010B000C1ABB07FCC33
:100B300000000C00007F7F7FC000101000C7A9B22A
:100B4000B2CC00001000077F7F7FC00010B000C152
:100B5000ABAB7FC000000C00007F7F7FCC0810B0E3
:100B600000C17FB0B0C000000000007F7F7FC000E8
:100B700010B000C1B0B2B2C000000000007F7F7FA3
:100B8000CC08101000C77FB07FC000001C00077F9A
:100B90007F7FC00010B000C1ADABB7C000000C003B
:100BA000007F7F7FC000100000007FB57FCC080071
:100BB0000000007F7F7FCC0010B000C17FB2B7C0C3
:100BC00000000000007F7F7F0000001000C77FB59D
:100BD000B0C000001000077F7F7F000000B000C1A0
:100BE0007FB2BCC000080000007F7F7F000000B023
:100BF00000C17FB0B1C000080000007F7F7F00000F
:100C000000B000C17FABBDC000080000007F7F7F47
:100C10000000001000C77FADC10000001000077F7A
:100C20007F7FC00000B000C17F7FBE0000000000D9
:100C3000007F7F7F000000BF04C1AB7FB2000000D7
:100C4000000000AD7F7FCC0010B000C17FB07FC03E
:100C500000000C00007F7F7FC000101000C7B0B202
:100C6000B2CC00001000077F7F7FC00010B000C131
:100C7000ADAB7FC000000C00007F7F7FC00010B0D4
:100C800000C17FB0B0CC00000000007F7F7FC000BB
:100C900010B000C1ABB2B2C000000000007F7F7F87
:100CA000CC08101000C77FB07FC000001C00077F79
:100CB0007F7FCEC210B000C1A4ABB7CEC2000C0083
:100CC00000A67F7FC00010000000A9B57FCC1000F7
:100CD0000000007F7F7FC00010B000C1ABB2B7CC76
:100CE00008000000007F7F7FC000101000C7ADB576
:100CF000B5CC08001000077F7F7FC00010B000C196
:100D0000B0B2B2C000000000007F7F7F0C0800B0CE
:100D100000C17F7FB50000000C00007F7F7FC00016
:100D200010B000C1ADB0B5CC10000000007F7F7FD7
:100D30000C08001000C77F7FB20000001000077F82
:100D40007F7F0EC200BC00C1A97F7F0EC2000000E1
:100D500000AB7F7F000000B000C1AB7FB20000009D
:100D6000000000AD7F7FC00010B000C1B0B07FCCEC
:100D700000000C00007F7F7FC000101000C7ADB2E4
:100D8000B2CC00001000077F7F7FC00010B000C110
:100D9000B0AB7FC000000C00007F7F7FCC0810B09C
:100DA00000C17FB0B0C000000000007F7F7FC000A6
:100DB00010B000C1B2B2B2C000000000007F7F7F5F
:100DC000CC08101000C77FB07FC000001C00077F58
:100DD0007F7FC00010B000C1B0ABB7C000000C00F6
:100DE000007F7F7FC000100000007FB57FCC08002F
:100DF0000000007F7F7FCC0010B000C17FB2B7C081
:100E000000000000007F7F7F0000001000C77FB25D
:100E1000B0C000001000077F7F7F000000B000C15D
:100E20007FB5BCC000080000007F7F7F000000B0DD
:100E300000C17FB9B1C000080000007F7F7F0000C3
:100E400000B000C17FB5BDC000080000007F7F7FFB
:100E50000000001000C77FB0C10000001000077F35
:100E60007F7FC00000B000C17F7FBE000000000097
:100E7000007F7F7FAC1004B000C1B0ADB5000000B2
:100E80000000007F7F7FA00004B000C17FA67F002C
:100E90000000BC00C17F7F7FA000041000C77FADB1
:100EA000C10000001C00077F7F7FAC1004B000C1B0
:100EB000B2AFB5000000B000C17F7F7FA00004BCCE
:100EC00000C17FAD7F0000000000007F7F7FA00099
:100ED00004B000C17FAFB5000000B000C17F7F7FCC
:100EE000AC10041000C7B4B0BC0000001000077FB5
:100EF0007F7FA00004B000C17FABC1000000B00044
:100F0000C17F7F7FAC1004000000B2AFB7000000CB
:100F10000000007F7F7FA00004BC00C17FB07F0085
:100F20000000B000C17F7F7FA000041000C77FAF2A
:100F3000B70000001000077F7F7FAC1004B000C135
:100F4000B4B07F000000BC00C17F7F7FA00004B070
:100F500000C17FABB70000000C00007F7F7FA000C6
:100F600004B000C17FA8B5000000BC00C17F7F7F36
:100F7000AC10041000C7B5B2B20000001000077F2B
:100F80007F7FA00004B000C17FAB7F000000BC00E9
:100F9000C17F7F7FAC1004B000C1B7B4B0000000C7
:100FA0000000007F7F7FA00004B000C17FB57F00FC
:100FB0000000BC00C17F7F7FA000041000C77FB489
:100FC000B00000001C00077F7F7FAC1004B000C1A0
:100FD000B5B2BC000000B000C17F7F7FA00004B0AC
:100FE00000C17FAB7F0000000C00007F7F7FA0006E
:100FF00004B000C17FA8B0000000BC00C17F7F7FAB
:10100000AC10041000C7B4B0B70000001C00077F8C
:101010007F7FA00004B000C17FAFB7000000BC001C
:10102000C17F7F7FAC1004000000B0ADB5000000B0
:101030000000007F7F7F000000B000C17F7F7F0045
:101040000000BC00C17F7F7F0000001000C77F7FD1
:10105000B50000001C00077F7F7F000000B000C1CA
:101060007F7FC1000000BC00C17F7F7F000000B017
:1010700000C17F7F7F0000000000007F7F7F0000B5
:1010800000B000C17F7FB5000000BC00C17F7F7F42
:101090000000001000C77F7FB40000001C00077F25
:1010A0007F7F000000B000C17F7FB5000000BC0062
:1010B000C17F7F7FAC1004B000C1B0ADB5000000AF
:1010C0000000007F7F7FA00004B000C17FA67F00EA
:1010D0000000BC00C17F7F7FA000041000C77FAD6F
:1010E000C10000001C00077F7F7FAC1004B000C16E
:1010F000B2AFB5000000B000C17F7F7FA00004BC8C
:1011000000C17FAD7F0000000000007F7F7FA00056
:1011100004B000C17FAFB5000000B000C17F7F7F89
:10112000AC10041000C7B4B0BC0000001000077F72
:101130007F7FA00004B000C17FABC1000000B00001
:10114000C17F7F7FAC1004000000B2AFB700000089
:101150000000007F7F7FA00004BC00C17FB07F0043
:101160000000B000C17F7F7FA000041000C77FAFE8
:10117000B70000001000077F7F7FAC1004B000C1F3
:10118000B4B07F000000BC00C17F7F7FA00004B02E
:1011900000C17FABB70000000C00007F7F7FA00084
:1011A00004B000C17FA8B5000000BC00C17F7F7FF4
:1011B000AC10041000C7B5B2B20000001000077FE9
:1011C0007F7FA00004B000C17FAB7F000000BC00A7
:1011D000C17F7F7FAC1004B000C1B7B4B000000085
:1011E0000000007F7F7FA00004B000C17FB27F00BD
:1011F0000000BC00C17F7F7FA000041000C77FAB50
:10120000B00000001C00077F7F7FA00004B000C179
:101210007FB4BC000000B000C17F7F7FA00004B09D
:1012200000C17FA87F0000000C00007F7F7FA0002E
:1012300004B000C17FB2B0000000BC00C17F7F7F5E
:10124000A000041000C77FABB70000001C00077FA0
:101250007F7FA00004B000C17FB4B7000000BC00D5
:10126000C17F7F7FA000040000007FA8B0000000C5
:101270000000007F7F7FA00004B000C17FB27F002C
:101280000000BC00C17F7F7FA000041000C77FABBF
:10129000B00000001C00077F7F7FA00004B000C1E9
:1012A0007FB4BC000000B000C17F7F7FA00004B00D
:1012B00000C17FA87F0000000C00007F7F7FA0009E
:1012C00004B000C17FB2B0000000BC00C17F7F7FCE
:1012D000A000041000C77FAFB70000001C00077F0C
:1012E0007F7FA00004B000C17FB0B7000000BC0049
:1012F000C17F7F7F000000BF04C1AB7FB200000050
:10130000000000AD7F7FCC0010B000C17FB07FC077
:1013100000000C00007F7F7FC000101000C7B0B23B
:10132000B2CC00001000077F7F7FC00010B000C16A
:10133000ADAB7FC000000C00007F7F7FC00010B00D
:1013400000C17FB0B0CC00000000007F7F7FC000F4
:1013500010B000C1ABB2B2C000000000007F7F7FC0
:10136000CC08101000C77FB07FC000001C00077FB2
:101370007F7FCEC210B000C1A4ABB7CEC2000C00BC
:1013800000A67F7FC00010000000A9B57FCC100030
:101390000000007F7F7FC00010B000C1ABB2B7CCAF
:1013A00008000000007F7F7FC000101000C7ADB5AF
:1013B000B5CC08001000077F7F7FC00010B000C1CF
:1013C000B0B2B2C000000000007F7F7F0C0800B008
:1013D00000C17F7FB50000000C00007F7F7FC00050
:1013E00010B000C1ADB0B5CC10000000007F7F7F11
:1013F0000C08001000C77F7FB20000001000077FBC
:101400007F7F0EC200BC00C1A97F7F0EC20000001A
:1014100000AB7F7F000000B000C1AB7FB2000000D6
:10142000000000AD7F7FC00010B000C1B0B07FCC25
:1014300000000C00007F7F7FC000101000C7ADB21D
:10144000B2CC00001000077F7F7FC00010B000C149
:10145000B0AB7FC000000C00007F7F7FCC0810B0D5
:1014600000C17FB0B0C000000000007F7F7FC000DF
:1014700010B000C1B2B2B2C000000000007F7F7F98
:10148000CC08101000C77FB07FC000001C00077F91
:101490007F7FC00010B000C1B0ABB7C000000C002F
:1014A000007F7F7FC000100000007FB57FCC080068
:1014B0000000007F7F7FCC0010B000C17FB2B7C0BA
:1014C0000000B000C17F7F7F000000B000C17FB28C
:1014D000B0C00000B000C17F7F7F000000B000C13D
:1014E0007FB5BCC00008B000C27F7F7F000000B0A5
:1014F00000C27FB9B1C00008B000C27F7F7F00008A
:1015000000B000C27FB5BDC00008B000C27F7F7FC1
:10151000000000B000C37FB0C1000000B000C37F76
:101520007F7FC00000B000C37F7FBE000000B0001E
:10153000C37F7F7FAC1004B000C1B0ADB500000028
:101540000000007F7F7FA00004B000C17FA67F0065
:101550000000BC00C17F7F7FA000041000C77FADEA
:10156000C10000001C00077F7F7FAC1004B000C1E9
:10157000B2AFB5000000B000C17F7F7FA00004BC07
:1015800000C17FAD7F0000000000007F7F7FA000D2
:1015900004B000C17FAFB5000000B000C17F7F7F05
:1015A000AC10041000C7B4B0BC0000001000077FEE
:1015B0007F7FA00004B000C17FABC1000000B0007D
:1015C000C17F7F7FAC1004000000B2AFB700000005
:1015D0000000007F7F7FA00004BC00C17FB07F00BF
:1015E0000000B000C17F7F7FA000041000C77FAF64
:1015F000B70000001000077F7F7FAC1004B000C16F
:10160000B4B07F000000BC00C17F7F7FA00004B0A9
:1016100000C17FABB70000000C00007F7F7FA000FF
:1016200004B000C17FA8B5000000BC00C17F7F7F6F
:10163000AC10041000C7B5B2B20000001000077F64
:101640007F7FA00004B000C17FAB7F000000BC0022
:10165000C17F7F7FAC1004B000C1B7B4B000000000
:101660000000007F7F7FA00004B000C17FB27F0038
:101670000000BC00C17F7F7FA000041000C77FABCB
:10168000B00000001C00077F7F7FA00004B000C1F5
:101690007FB4BC000000B000C17F7F7FA00004B019
:1016A00000C17FA87F0000000C00007F7F7FA000AA
:1016B00004B000C17FB2B0000000BC00C17F7F7FDA
:1016C000A000041000C77FABB70000001C00077F1C
:1016D0007F7FA00004B000C17FB4B7000000BC0051
:1016E000C17F7F7FA000041000C77FA8B0EEC3C3F6
:1016F000100007B77F7FEEC3C3000000B7B27FEED4
:10170000C3C30C0000B77F7FEEC3C3000000B7ABBC
:101710007FEEC3C3000000B77F7FEEC3C3000000AD
:10172000B7B47FEEC2C3000000B77F7FEEC2C20035
:101730000000B7A87FEEC2C2000000B67F7FEEC2F5
:10174000C2000000B5B27FEEC2C2000000B47F7FCD
:10175000EEC1C2000000B3AF7FEEC1C1000000B215
:101760007F7FEEC1C1000000B1B07FEEC1C10000BB
:1017700000B07F7F000000BF04C17F7FB200000087
:101780000000007F7F7F000000B000C1A9A67FCCD1
:1017900000000C00007F7F7FEEC2C21000C7B9B20C
:1017A000B20EC200100007B57F7F0EC200B000C1AC
:1017B000B5A67FC000000C00007F7F7F000000B056
:1017C00000C1A8A4B0CC00000000007F7F7F000013
:1017D00000B000C17FA6B2C000000000007F7F7F84
:1017E0000EC1001000C7ABA97FC000001C00077F1E
:1017F0007F7F000000B000C1A6ABB7CC00000C009A
:10180000007F7F7F0000000000007F7F7FE000D32B
:101810000000007FA97F000000B000C17FABB7C00F
:1018200000000000007F7F7F0000001000C77FA93C
:10183000B5C000001000077F7F7F000000B000C12E
:101840007FA6B2C000000000007F7F7F000000B0D4
:1018500000C17FA9B5C000000C00007F7F7F0000A1
:1018600000B000C17FADB5C000000000007F7F7FE9
:101870000000001000C77F7FB20000001000077F4B
:101880007F7F000000BC00C17FA67FC00000000079
:10189000007F7F7F000000BF04C17F7FB200000097
:1018A0000000007F7F7F000000B000C1A9A67FCCB0
:1018B00000000C00007F7F7FEEC2C21000C7B9B2EB
:1018C000B20EC200100007B57F7F0EC200B000C18B
:1018D000B5A67FC000000C00007F7F7F000000B035
:1018E00000C1A8A4B0CC00000000007F7F7F0000F2
:1018F00000B000C17FA6B2C000000000007F7F7F63
:101900000EC1001000C7ABA97FC000001C00077FFC
:101910007F7F000000B000C1A6ABB7CC00000C0078
:10192000007F7F7F0000000000007F7F7FE000D30A
:101930000000007FA97F000000B000C17FABB7C0EE
:1019400000000000007F7F7F0000001000C77FB014
:10195000B0C000001000077F7F7FC00018B000C13A
:101960007FB5BCC000000000007F7F7F000000B09A
:1019700000C17FABB1C000000000007F7F7F00008E
:1019800000B000C17FA5BDC000000000007F7F7FC8
:101990000000001000C77FADC10000001000077FED
:1019A0007F7F000000B000C17F7FBEC0000000004C
:1019B000007F7F7F000000BF04C1ADA9B20000001E
:1019C0000000007F7F7F000000B000C1A9A67FCC8F
:1019D00000000C00007F7F7FEEC2C21000C7B9B2CA
:1019E000B20EC200100007B57F7F0EC200B000C16A
:1019F000B5A67FC000000C00007F7F7F000000B014
:101A000000C1A8A4B0CC00000000007F7F7F0000D0
:101A100000B000C17FA6B2C000000000007F7F7F41
:101A20000EC1001000C7ABA97FC000001C00077FDB
:101A30007F7F000000B000C1A6ABB7CC00000C0057
:101A4000007F7F7F0000000000007F7F7FE000D3E9
:101A50000000007FA97F000000B000C17FABB7C0CD
:101A600000000000007F7F7F0000001000C77FA9FA
:101A7000B5C000001000077F7F7F000000B000C1EC
:101A80007FA6B2C000000000007F7F7F000000B092
:101A900000C17FA9B5C000000C00007F7F7F00005F
:101AA00000B000C17FADB5C000000000007F7F7FA7
:101AB000E000C21000C77FB2B20000001000077F34
:101AC0007F7F000000BC00C17FA67F0000000000F7
:101AD000007F7F7F000000B000C1B2ADB200000007
:101AE0000000007F7F7F000000B000C1B0A97FCC64
:101AF00000000C00007F7F7F0EC2001000C7B9A954
:101B0000B2CEC200100007B57F7F0EC200B000C188
:101B1000B5A67FC000000C00007F7F7F000000B0F2
:101B200000C1ADA9B0CC00000000007F7F7F0000A5
:101B300000B000C17FB9B2C000000000007F7F7F0D
:101B40000EC100B000C1ABB07FC000000C00007F30
:101B50007F7F0000001000C77F7FC30000001000DF
:101B6000077F7FC50000000C00007F7F7F00000022
:101B70000000007F7F7F0000000000007F7FC50025
:101B800000000000007F7F7F0000000000007F7FDA
:101B9000C30000000000007F7F7F00000000000005
:101BA0007F7FC10000000000007F7F7F0EC100002A
:101BB0000000B27FC30EC100000000B57F7F0EC1E0
:101BC00000000000B97FC50000000000007F7F7F9B
:101BD0000EC100000000B57FBE0000000000007FC5
:101BE0007F7F0EC1000C0000B57F7F000000000069
:101BF000007F7F7F03053F213F1208120A100A0E63
:101C00001C0E0C1E0C141A14161F161E131E1E1B5F
:101C10001E1E1F1E3F213F3A2F3A173D173F213FFF
:101C2000181F02040A041F0E04040E1F0A1F0A0EC6
:101C30000E1F04110E2E252E2F2A2E262929021FB3
:101C400002081F08150E04040E150E15151B151B92
:101C5000040604040C040000000017000300031F26
:101C60000A1F16371A1904130A153A000300000E4A
:101C700011110E000A040A040E04003000040404CA
:101C80000010001804031F111F121F101D1517113B
:101C9000151F07041F17151D1F151D01011F1F15F7
:101CA0001F17151F000A00003200040A110A0A0A51
:101CB000110A040115020E11171E051E1F150A0E2A
:101CC000110A1F110E1F15111F05010E111D1F04F2
:101CD0001F111F1108100F1F041B1F10101F061FBC
:101CE0001E040F0E110E1F09060E112E1F051A12CB
:101CF0001509011F011F101F0F180F1F0C1F1B04B8
:101D00001B031C03191513001F11030418111F00D6
:101D10000201022020200001020C121E1F120C0CD6
:101D200012120C121F0C1A14041E05242A1E1F0264
:101D30001C141D1020201D1F0814111F101E041E2E
:101D40001E021C0C120C3E0A040C123E1E0402144D
:101D5000160A020F120E101E0E100E1E081E120C76
:101D60001226281E322A26041E21001F00211E04CE
:101D70000102013F213F0A4E6F20534420636172EC
:101D800064206F720A6E6F204C4F414445522E48BA
:101D900045580A0A153A45786974001D20466C6159
:101DA0007368696E670A20206C6F616465722E2EFD
:101DB0002E0A0A444F4E2754205455524E204F4667
:101DC0004621000A0A153A49676E6F7265006D5622
:101DD0000A0A504C45415345205455524E204F4617
:101DE0004620004C4F57204241545445525921201F
:101DF0000017534400161378001613140015102012
:101E00000015201000540A03E181867F3E186D837F
:101E10000F0F0E0183866033186DC3198F1803C32B
:101E20008E6033186DE330CF1803C39E603630CD1B
:101E3000E360CF3006C79E7E3E30CDB360CF300C1E
:101E4000C6F6603330D9B660CF33CFCCF66061B020
:101E5000DB1E60CF30D86CE6C061B0DB1E618F192D
:101E6000986CC6C063B19B0E330F0FB078C6FF7E6F
:101E70001F1B061E0F000C1825303C47515A626A82
:101E800070767A7D7F7F7F7D7A76706A625A51475D
:101E90003C3025180C600DA00CE80B400B980A0094
:101EA0000A7009E8086808F00780071607B00650AE
:101EB00006F405A0054C050005B80474043404F8C4
:101EC00003C0038B0358032803FA02D002A6028042
:101ED000025C023A021A02FC01E001C501AC019465
:101EE000017D016801530140012E011D010D01FE1C
:101EF00000F000E200D600CA00BE00B400AA00A0B4
:101F00000097008F0087007F00780071006B0065EC
:101F1000005F005A00550050004B00470043003F4F
:101F2000003C003800350032002F002D002A002828
:101F3000002500230021001F001E001C00000000DF
:101F40000800020100000304070000000000000078
:101F50000001020408102040800102040810200142
:101F6000020408102004040404040404040202020D
:101F70000202020303030303030000000023002600
:101F800000290000000000250028002B00000000B0
:101F900000240027002A00000511F022FF2211244E
:101FA0001FBECFEFD8E0DEBFCDBF11E0A0E0B1E0B3
:101FB000E0E1F5E502C005900D92AA36B107D9F728
:101FC00024E0AAE6B1E001C01D92A339B207E1F70F
:101FD0001FE1CCE9DFE104C02297FE010E94CB287B
:101FE000C839D107C9F70E9422250C947B2A0C948A
:101FF00000002F922FB62F93BF93AF930F921F9293
:102000002091DD030090DF03020E0092DF03209198
:10201000DE031090E003121E1092E003B12DB7FD15
:10202000B095BB0FA091DC03B058BA02110CA12DE2
:102030002091D3030090D503020E0092D503209186
:10204000D4031090D603121E1092D603212D220F16
:102050002121B091D20327FDB195AB0F2091D80378
:102060000090DA03020E0092DA032091D903109057
:10207000DB03121E1092DB03B091D70317FCB1955E
:10208000AB0FB1E00090E2031090E303000C111CD1
:1020900017FC0B2616FC0B260092E2031092E303BA
:1020A000B091E10317FCB195AB0FB0911001AB0FEC
:1020B000A093B400B0916B01A0916A01119761F0F7
:1020C000B0936B01A0936A011F900F90AF91BF91E5
:1020D0002F912FBE2F901895B0916D01A0916C019A
:1020E000B0936B01A0936A0178943F934F935F93F1
:1020F0006F937F938F939F93EF93FF9311240E948D
:10210000151FFF91EF919F918F917F916F915F913B
:102110004F913F911F900F90AF91BF912F912FBE84
:102120002F9018958EE691E00E946A1B61ED70E099
:102130008EE691E00E94F21A44E667EC70E08EE6CB
:1021400091E00E94041860E07DE781ED93E00E9439
:10215000B71D64EE70E081ED93E00E94071F40E040
:1021600050E060E070E481ED93E00E94771D60E351
:1021700070E081ED93E00C94A81DCF93DF938EE681
:1021800091E00E9411198823E9F163E970E086E982
:1021900091E00E94A325C091B901D091BA0168E1F4
:1021A00071E086E991E00E9496254AE050E0BE0188
:1021B00086E991E00E94602665E271E086E991E09F
:1021C0000E9496258EE691E00E94F5174AE050E0C5
:1021D000682F86E991E00E9485266FE271E086E92A
:1021E00091E00E94962566E088E791E00E9438120F
:1021F000882341F060E870E08EE691E0DF91CF91B6
:102200000C94F21ADF91CF910895109299011092D7
:10221000980185E391E0909397018093960108954A
:10222000CF93CFB7F8948091CF01811127C0EFE60B
:10223000FFE18491EBE5FFE19491E82FF0E0EE0FF0
:10224000FF1FE357F04EA591B4918C91892321F49F
:1022500061E08AE00E94C02461E08AE00E94872455
:102260008CB580618CBD8CB580648CBD61E08DE0E7
:102270000E94872461E08BE00E9487248091CF0137
:102280008F5F8093CF01CFBFCF91089521E0FC01F4
:102290002083089570E085E00C94FF23AF92BF92F5
:1022A000CF92DF92EF92FF920F931F93CF93DF9322
:1022B000EC0189819A812FE0289F8001299F100DD0
:1022C000112485E10E94E223800F911F24E096955E
:1022D00087952A95E1F79A8389832881222391F1B2
:1022E000AC81AD80B12CC12CD12CE885F9857F0162
:1022F00000E010E06E817F819B0140E050E0861796
:10230000970728F0BC01E817F90708F4BF0180E03F
:1023100090E01F921F921F92AF930E9492266B83B0
:102320000F900F900F900F9070E085E0DF91CF91AC
:102330001F910F91FF90EF90DF90CF90BF90AF90E3
:102340000C94FF23DF91CF911F910F91FF90EF909D
:10235000DF90CF90BF90AF900895FC018CE39FE099
:102360009383828384E0818381E084870895CF937F
:10237000DF93EC018C819D81892B81F18C858F719C
:1023800051F584E10E94E223BC01882777FD809506
:10239000982F0E94752726EE3FE34EEC50E40E94F2
:1023A00001280E9447279B017B836A836115710581
:1023B00081F084E08983FE0140E0848195812817C3
:1023C000390710F449830AC04F5F32964430A9F7A9
:1023D00002C08FEF89838C858F5F8C87DF91CF91CF
:1023E0000895FC0188E0808389E0818387E082830F
:1023F00086E0838384E0848382E0858381E1868331
:102400000895DF92EF92FF920F931F93CF93DF9384
:102410007C01EC0100E010E0DD24DA9462E08881C8
:102420000E94872488810E94F624F701E00FF11FA3
:10243000892B21F487818F5F878308C08781882358
:1024400049F08F3F11F4178201C0D78260E0888184
:102450000E9487240F5F1F4F219607301105F1F668
:10246000DF91CF911F910F91FF90EF90DF90089532
:10247000FC01E60FF11D81E09781913009F080E0C9
:1024800008958EBD00000DB407FEFDCF8EB50895F2
:10249000DC01643508F053C0403308F050C090961A
:1024A0008C919097342F359535953595E62FFF27EC
:1024B000E7FDF095242F2770823099F4DF01A053B7
:1024C000BE4F84E53802A00DB11D11248C9190E01F
:1024D000022E02C0959587950A94E2F78095817047
:1024E00009C0833039F446271C968C91482740FF59
:1024F00003C014C0811112C084E53802E00DF11D43
:102500001124E053FE4F81E090E0022E01C0880FBD
:102510000A94EAF780959081982310C084E53802E8
:10252000E00DF11D1124E053FE4F81E090E0022EFA
:1025300001C0880F0A94EAF79081982B9083089540
:102540001F93CF93DF93EC01162FF89460E08F85F3
:102550000E94C024888918161CF460E00E94C024E0
:10256000812F0E944112888918161CF461E00E9494
:10257000C0247894DF91CF911F91089528EF31E026
:10258000E0EDF1E0DF01A9011D9241505040E1F77B
:10259000DC0119961C9219971A961C920895DF92E5
:1025A000EF92FF920F931F93CF93DF93EC018C85F3
:1025B0008F5F8C8780EDE82E81E0F82ED12C6D2D79
:1025C0006064CE010E94A01260E8CE010E94A012B9
:1025D00061E08F850E94C024888918161CF460E091
:1025E0000E94C02400E010E0F701E00FF11F80819D
:1025F0000E9441120F5F1F4F04351105A9F788890A
:1026000018161CF461E00E94C024D39484E5E80EFF
:10261000F11C86E0D812D3CF60E4CE01DF91CF91D8
:102620001F910F91FF90EF90DF900C94A012FC018E
:1026300060A361A30895FC0160A341A30895CF9214
:10264000DF92FF920F931F93CF93DF931F92CDB72B
:10265000DEB76C01062FF42E10E0121754F4412F50
:102660004F0D602FC60129830E9448121F5F2981E8
:10267000F4CF0F90DF91CF911F910F91FF90DF90DA
:10268000CF900895CF92DF92FF920F931F93CF9335
:10269000DF931F92CDB7DEB76C01062FF42E10E04A
:1026A000121754F4612F600F4F2DC60129830E9429
:1026B00048121F5F2981F4CF0F90DF91CF911F91B6
:1026C0000F91FF90DF90CF900895DF92EF92FF92ED
:1026D0000F931F93CF93DF93EC01E62ED22EF42EAF
:1026E000112707FD1095040F111D47FD1A958F2D19
:1026F000992787FD90958017910744F42D2D4F2D34
:102700006E2DCE010E944213F394F1CFDF91CF9151
:102710001F910F91FF90EF90DF9008958F929F92FD
:10272000AF92BF92CF92DF92EF92FF920F931F93DF
:10273000CF93DF93EC01E62ED42E122FCC24C3943A
:10274000C21AB22EB194BB0CF12C802F8470A82E2B
:10275000802F8270982E802F8870882E0170F1163D
:102760000CF04DC0C7FC04C01150B394B394CB0C13
:10277000F3948F2D880F8F5FC80EAA2071F0412F20
:102780004D0D6F2D6E0DCE010E9448124F2D4D0D37
:10279000612F6E0DCE010E944812992071F04D2DCF
:1027A000411B6F2D6E0DCE010E9448124D2D4F1909
:1027B000612F6E0DCE010E944812882071F04F2DBE
:1027C0004D0D6E2D611BCE010E944812412F4D0D03
:1027D0006E2D6F19CE010E944812002309F4BFCF5D
:1027E0004D2D4F196E2D611BCE010E9448124D2DAB
:1027F000411B6E2D6F19CE010E944812B0CFDF91A0
:10280000CF911F910F91FF90EF90DF90CF90BF90ED
:10281000AF909F908F9008958F929F92AF92BF92AA
:10282000CF92DF92EF92FF920F931F93CF93DF939C
:10283000EC01B62EA42E122FDD24D394D21AC22E70
:10284000C194CC0CFF24F394802F8170882E99249E
:1028500093949E0C02708FEF8F0D8117C4F5D7FCF7
:1028600004C01150C394C394DC0C8F2D880F8F5F6C
:10287000D80E882099F0212F220F290D4A2D411BB7
:102880006F2D6B0DCE010E941F1323E02E0D4A2DDC
:102890004F19612F6B0DCE010E941F13002399F079
:1028A000212F220F290D4A2D411B6B2D6F19CE01AF
:1028B0000E941F1323E02E0D4A2D4F196B2D611B13
:1028C000CE010E941F13F394E394E394C4CFDF91ED
:1028D000CF911F910F91FF90EF90DF90CF90BF901D
:1028E000AF909F908F9008959F92AF92BF92CF929A
:1028F000DF92EF92FF920F931F93CF93DF93EC0140
:10290000B62EF42EA22EDE2CD194DD0C9D2C920E30
:102910001E2D160F292D612F0E944213CC24CA941C
:10292000C00ECF0C292D4C2D612FCE010E944213D9
:10293000D00EFE0C2D2D4F2D6B2DCE010E941F139E
:10294000BA0C6FEF6B0D2D2D4F2DCE010E941F1372
:1029500001E02E2D4F2D612FCE010E948E13DE2C13
:10296000D094DB0C02E02E2D4F2D6D2DCE010E9458
:102970008E13CE1804E02E2D4C2D6D2DCE010E940D
:102980008E1308E02E2D4C2D612FCE010E948E1348
:10299000DF91CF911F910F91FF90EF90DF90CF903B
:1029A000BF90AF909F900895AF92BF92CF92DF9269
:1029B000EF92FF920F931F93CF93DF93EC01A62E1C
:1029C000C42EB22EF02E1E2DE194EE0CD12ED60E7A
:1029D0002E2D2B0D6D2D0E946513FA94FE0CC10E49
:1029E0006FEF6A0D6B0D611BEF2C01E0212F4C2D59
:1029F000CE010E940C1402E0212F4C2D6D2DCE0132
:102A00000E940C14DF91CF911F910F91FF90EF90D6
:102A1000DF90CF90BF90AF9008956F927F928F928A
:102A20009F92AF92BF92CF92DF92EF92FF920F935D
:102A30001F93CF93DF93F901A49031965491FC0139
:102A4000F0A064350CF00CC1BB24A7FCB094A62FF9
:102A5000BB27A7FDB095FD01EA0DFB1D1E161F0645
:102A60000CF0FEC040330CF0FBC0C52E042F112724
:102A700007FD1095E801C50FD11D57FDDA951C160D
:102A80001D060CF0EDC0E90122969501295F3F4F2C
:102A900037FF02C0295F3F4F73E0359527957A9540
:102AA000E1F747FF0AC0C52EC40E209FA001219F59
:102AB000500D1124C41BD50B40E00C2D112707FD30
:102AC0001095040F111D47FD1A95013311051CF0D7
:102AD00070E3C72EC41A67FD60E0E535F10514F018
:102AE000E4E5F0E01E2FFC0174857427862F9927FA
:102AF00087FD9095FC01EA1BFB0BDF015F01F7E00E
:102B0000AF22BB24E0E8F0E002C0F595E795AA9477
:102B1000E2F70E2FB7FD179653E0B595A7955A9596
:102B2000E1F7AC0FBD1FE42FE77051E001C0550F76
:102B3000EA95EAF7459545954595E4E54E02800D01
:102B4000911D112480539E4F40E0DD24C7FCD0949A
:102B5000BB24B3943327E42FF0E0EC15FD050CF013
:102B60007FC0FD01E490F1E0FF1219C0EC01A02E3E
:102B7000FD01862E881A9C2E980C911608F067C0CD
:102B80009E2C9A2019F09880952A9882A69429F470
:102B90003196E4906894AA24A7F82196ECCFF1101E
:102BA0001BC0752E7094EC01A02EFD01862E881A94
:102BB0009C2E980C911608F04AC09E2C9A2019F071
:102BC000988097209882A69429F43196E49068948E
:102BD000AA24A7F82196ECCFE3E0FE1631F0EC0131
:102BE000A02EFD01862E881A2EC0752E7094962E6A
:102BF000EC01A02EFD019116B0F48E2C8A2049F034
:102C00008880692C672660FE02C0852A01C0872063
:102C10008882A69429F43196E4906894AA24A7F8AF
:102C200093942196E8CF7B2512C09E2C9A2019F010
:102C3000988095269882A69429F43196E490689419
:102C4000AA24A7F821969C2E980C911670F3550F84
:102C500019F48C5A9F4F51E04F5FA20FB31F7BCFE7
:102C6000DF91CF911F910F91FF90EF90DF90CF9068
:102C7000BF90AF909F908F907F906F900895DC01F0
:102C8000FB0184918F5F14968C9314973196E49195
:102C9000EF5F1596EC9315976E5F7F4F5F967C9371
:102CA0006E935E970895EF920F93CF93DF93EC01AD
:102CB0004E876D872F87E98A088B81E0888788A3F4
:102CC00019A28F8364EF7BE1CE010E943F160E9420
:102CD00010118CB58F7D8CBD8CB58C7F81608CBDC7
:102CE0008DB581608DBD8CB58C608CBD61E08E85AD
:102CF0000E94872461E08D850E94872461E08F8592
:102D00000E948724898918161CF461E00E94872498
:102D1000888918161CF461E00E9487248989181696
:102D20006CF460E00E94C0246AE070E080E090E013
:102D30000E947F2361E089890E94C0248D859927A4
:102D400087FD9095FC01EB59F04EE491F0E0EE0F19
:102D5000FF1FED57F04E259134913D8B2C8BFC01DC
:102D6000EF5AF04E84918B8F8E85992787FD909531
:102D7000FC01EB59F04EE491F0E0EE0FFF1FED5730
:102D8000F04E259134913B8B2A8BFC01EF5AF04E8B
:102D900084918A8F8889992787FD9095FC01EB594A
:102DA000F04EE491F0E0EE0FFF1FED57F04E25914D
:102DB00034913F8B2E8BFC01EF5AF04E84918C8F17
:102DC0008F85992787FD9095FC01EB59F04EE49192
:102DD000F0E0EE0FFF1FED57F04E25913491398F43
:102DE000288FFC01EF5AF04E84918D8F61E2CE0165
:102DF0000E94A01264E1CE010E94A0128B8587FF81
:102E000002C08FE78B876B856068CE010E94A0129D
:102E100060E2CE010E94A0126CE0CE010E94A012DE
:102E2000CE01DF91CF910F91EF900C94CF126F9262
:102E30007F928F929F92AF92BF92CF92DF92EF924A
:102E4000FF920F931F93CF93DF93EC01162FF42E75
:102E5000B02EE8A064350CF081C08FE284170CF42A
:102E60007DC0EC81F0E031970E9FC0010F9F900D67
:102E70001124860F911D67FD9A95181619060CF0FE
:102E80006DC08D81809FC0011124840F911D47FD6D
:102E90009A95181619060CF061C0A62E962EC22E11
:102EA000D12C8A2D811B992787FD90952C8130E0AC
:102EB000821793070CF051C02150310982179307F4
:102EC00079F0C29ED001C39EB00DD29EB00D1124E8
:102ED000A80FB91FEE8DFF8DEA0FFB1F749001C084
:102EE000712C8F2C6F2C282D2F19332727FD30950F
:102EF0008D8190E0281739076CF570FE11C081E0D4
:102F0000B81206C0482D6A2DCE010E9448121EC07C
:102F10000B2D2B2D462D692DCE010E94651316C059
:102F200089A198A1891791F088A381E0B81206C001
:102F3000482D6A2DCE010E94481207C00B2D2B2D63
:102F4000462D692DCE010E946513E8A276946B0C84
:102F50008394C9CF9B0CA394A4CFE8A2DF91CF9117
:102F60001F910F91FF90EF90DF90CF90BF90AF90A7
:102F70009F908F907F906F9008950F93CF93DF93E2
:102F8000EC01262F6A3039F42D8198858A85299F96
:102F9000800D112422C06D3011F108854A856985A4
:102FA0000E94171748855C812985549F200D1124A4
:102FB00029878F81882399F0332727FD309584E571
:102FC00090E0459F801991091124821793073CF4E2
:102FD0009D818A85499F800D11248A87198681E009
:102FE00090E0DF91CF910F910895FC01E75AFF4FD8
:102FF00060813A978AE0689FB001112480819181B5
:103000000E947428862F0895FC01E25AFF4F7183B5
:1030100060833296445F40830895AF92BF92CF920F
:10302000DF92EF92FF920F931F93CF93DF93EC0108
:103030005C0180E6A80EB11CF5018081882309F4AB
:103040003FC08C3018F41CE0181B01C010E081E078
:1030500088AB6E01F8E2CF0ED11C60E0C6010E9481
:1030600017138DA503E0080F9DE2F92E4F2D481B85
:10307000410F23E0E22E24E560E0C6010E94D41453
:1030800061E0C6010E9417138DA503E0080F4F2DC4
:10309000481B410F24E560E0C6010E94741484E0DF
:1030A00089AB8DA5181B115D1AABC25ADF4F688121
:1030B0007981C6010E947125F5018081815080834C
:1030C000DF91CF911F910F91FF90EF90DF90CF9004
:1030D000BF90AF900895DF92EF92FF920F931F93EE
:1030E000CF93DF93EC018C8D9D8D892B09F491C0DA
:1030F0008E01085D1F4F40E061E0C8010E941B1374
:1031000085E59CA5891B89AB1AAA698D613009F4F4
:103110005CC028F0888D653008F06EC069C0CE01B3
:1031200085960E94C31B81E088AB64EF7BE1C801F8
:103130000E943F161D8E1C8E1EA638EAD32E7E01DD
:103140008AE0E80EF11CCE010E9411198823D9F300
:1031500063EE7DE1C8010E9471256A8D7B8D4AE096
:1031600050E0C8010E948C266EEC7DE1C8010E94EF
:1031700071256D2D62956F7070E04AE050E0C801D6
:103180000E94582663EC7DE1C8010E94712564E02D
:10319000C7010E94381281113CC0DA94A1F660E0A8
:1031A000CE010E944A1183B7817F846083BF83B7B9
:1031B000816083BF83B7816083BF889583B78E7F2B
:1031C00083BF83B78E7F83BFBECFC55BDF4F488190
:1031D00059816A817B814F70552766277727483050
:1031E00051056105710510F467E009C068E707C083
:1031F000882379F06B5F03C0882359F06FE2C80120
:10320000DF91CF911F910F91FF90EF90DF900C9481
:103210009825DF91CF911F910F91FF90EF90DF9054
:1032200008958F929F92AF92BF92EF92FF920F9369
:103230001F93CF93DF93EC017C010AE5E00EF11CB4
:10324000F70180809180A280B3800E945023950175
:103250008401061B170B280B390BB901A8015E016D
:1032600019E5A10EB11CF501808190E0A0E0B0E06D
:103270008E010B5A1F4F84179507A607B70748F40E
:10328000F80180819181A281B381892B8A2B8B2BBC
:10329000E9F5F80180819181A281B381892B8A2B84
:1032A0008B2B91F57E01F5E2EF0EF11CC7010E9418
:1032B000C01BC7010E94C11BC7010E94C41BCE01D5
:1032C0000E940D18CE010E946B187E0128E2E20ECA
:1032D000F11CC7010E94CF128EA5811103C0C70146
:1032E0000E94BE120E945C23F80160837183828376
:1032F0009383FE01E15BFF4FCF5ADF4F2881398175
:10330000621B730B7183608380E036C00E94502380
:10331000F5012081620F711D811D911DF7016083F0
:10332000718382839383FE01E55BFF4F408151816E
:10333000628173814F5F5F4F6F4F7F4F4083518337
:1033400062837383F80110821182128213820E94B9
:103350005C23FE01EF5AFF4F608371838283938366
:10336000CE010E944E11CE010A960E940112CE019A
:1033700048960E94B71181E0DF91CF911F910F9184
:10338000FF90EF90BF90AF909F908F9008950F9314
:103390001F93CF93DF938C01EC01A896CE010E947E
:1033A000BE126BE97DE1CE010E947125CE010E9423
:1033B000CF128CB583608CBD8DB58E7F8DBD89E3BA
:1033C00091E0EEEFFFE30995F80116A666E77DE1CF
:1033D000CE010E94A325CE010E94CF12065F1F4F8F
:1033E000C8010E94011264E0C8010E9438128111D4
:1033F00007C062E370E080E090E00E947F23F0CF9E
:10340000DF91CF911F910F9108952F923F924F928C
:103410005F926F927F928F929F92AF92BF92CF9264
:10342000DF92EF92FF920F931F93CF93DF93EC0104
:103430005B014A017C018AE4E80EF11CF7018081FE
:10344000882309F4BCC081E088AB1FA61EA6188E95
:103450008E01085D1F4F61E0C8010E9417138CE0C8
:10346000382E2E01FBE44F0E511C6E018AE0C80E6F
:10347000D11C3E01E5E26E0E711CCE010E941119B5
:103480008823D9F3F5018491882311F02DA401C07C
:10349000212C25E03EE140E060E0C8010E940D15CE
:1034A0008114910439F04CE0420D940160E0C801B0
:1034B0000E940D1519AA3AAAB501C8010E947125EA
:1034C0009CA5892F880F890F81958D5A89AB9DA561
:1034D000892F880F890F8195835D8AABF2018081E6
:1034E00084FF03C061E07EE102C06DEF7DE1C801B1
:1034F0000E94A3259CA5892F880F890F81958D5A3D
:1035000089AB8AA98F5F8AAB8EA1882319F069EFF6
:103510007DE102C065EF7DE1C8010E94A3259CA565
:10352000892F880F890F81958D5A89AB8AA98F5F62
:103530008AAB61EF7DE1C8010E94A32565E0C60169
:103540000E943812882341F06EA16F5FC3010E9470
:10355000C71BC3010E94C61B64E0C6010E9438124B
:10356000811112C0F7012081822F90E0A0E0B0E02D
:10357000F2014081518162817381481759076A07BE
:103580007B0790F02F3F81F08FEFF70180838E0152
:103590000B5D1F4F60E0C8010E94C21BC8010E9462
:1035A000C51B81E0888F0BC066E0C6010E943812FF
:1035B000882309F462CFCE010E94C7195ECFDF9144
:1035C000CF911F910F91FF90EF90DF90CF90BF9020
:1035D000AF909F908F907F906F905F904F903F90B3
:1035E0002F90089540E050E00C94051AE0E8F7E7CA
:1035F0002591349181E02130304C09F080E008952C
:10360000CF93DF93EC010E94F61ADE01A65BBF4F59
:10361000882309F43BC0E6E9F7E7E491EBABE7E97F
:10362000F7E7E491EC83E8E9F7E7E491ED83E9E972
:10363000F7E7859194919F838E83EBE9F7E7859176
:10364000949199878887EDE9F7E7E491EFA3EEE994
:10365000F7E7E491EEA3EFE9F7E7E491EC93E0EA12
:10366000F7E7859194919D8F8C8FE2EAF7E785913A
:1036700094919F8F8E8FE4EAF7E78591949199A3B7
:1036800088A3E6EAF7E7859194911FC08CE38BABA2
:103690001C822FEF2D8380E293E09F838E8384ED45
:1036A00093E09987888781E08FA38EA32C938CEA7F
:1036B0009DE09D8F8C8F8EED9DE09F8F8E8F84E798
:1036C0009EE099A388A38CE39FE09BA38AA3DF914C
:1036D000CF910895CF92DF92EF920F93CF93DF9324
:1036E000EC01FC01E75AFF4F82E38083349741E00D
:1036F00050E060E070E040835183628373833B97C6
:103700008FEF8083CE010E94001BCE010E944611E4
:103710006FEFCE010E944A116E018AE0C80ED11CE3
:10372000C6010E94F111C6010E940112CE01489605
:103730000E94AD119EE0E92E0FE020E14BE06DE02C
:10374000CE0188960E945316A596CE010E94BF1BFB
:1037500065E0C6010E943812882351F060E0CE0176
:10376000DF91CF910F91EF90DF90CF900C94C71B1A
:10377000DF91CF910F91EF90DF90CF900895089552
:103780000895089508950895089508950895089551
:10379000DC011496ED91FC9115979F012F5F3F4F2F
:1037A00015963C932E93149784910895FC012281E1
:1037B0003381260F371F3583248308958091EE03CC
:1037C0009091EF03FC01A081B181E0914104F0E010
:1037D000EB5BFB4F40812091420430E0F0E44F9FCF
:1037E000200D311D112449E0429FB001439F700D0F
:1037F00011242091EC033091ED03620F731F169694
:10380000ED91FC91179709958091EE039091EF034C
:10381000DC01ED91FC910480F581E02D0995982F54
:103820009295907F9093F603807F8093F903809127
:10383000EE039091EF03DC01ED91FC910480F581A2
:10384000E02D09958093F7038091EE039091EF03AB
:10385000DC01ED91FC910480F581E02D09958093C8
:10386000FA038091EE039091EF03DC01ED91FC915E
:103870000480F581E02D0995982F9295907F909383
:10388000FC0390E024E0959587952A95E1F78093D5
:10389000FF038091EE039091EF03DC01ED91FC9129
:1038A0000480F581E02D09958093FD038091EE035E
:1038B0009091EF03DC01ED91FC910480F581E02D06
:1038C0000995809300048091EE039091EF03DC0151
:1038D000ED91FC910480F581E02D09958093F8032A
:1038E0008091EE039091EF03DC01ED91FC91048057
:1038F000F581E02D09958093FB038091EE03909173
:10390000EF03DC01ED91FC910480F581E02D099538
:103910008093FE038091F603803E59F49091F70363
:10392000892F82958F70806E8093F6039F7090939D
:10393000F7038091F903803E59F49091FA03892F9F
:1039400082958F70806E8093F9039F709093FA0335
:103950008091FC03803E59F49091FD03892F82955C
:103960008F70806E8093FC039F709093FD03209175
:10397000000427FF02C080E001C08FE726FF02C0DD
:1039800090E801C090E0892B80930104322F3F73AF
:10399000309300044091FF03842F90E0FC013197A5
:1039A000EC30F105E0F5EC5CFF4F0C94C92840FFCA
:1039B00003C03064309300048091000482958093AA
:1039C000000480E72AC023FF05C027702295207FCE
:1039D0002093000480EA21C080EC1FC080EB1DC052
:1039E00080ED1BC080EF19C087EE17C089EE15C0AF
:1039F00023FF02C08AEE01C08BEE8093FF03277085
:103A000008C024FF02C08DEE01C08CEE8093FF033E
:103A10002F702093000403C08EEE8093FF0380E09C
:103A200090E0E6EFF3E02081322F3F7B303141F030
:103A3000303231F03FE1320F323010F0203A61F491
:103A40002181DC01AE5FBB4F222319F01D962C9320
:103A500003C01D962C91218333960F968C339105CC
:103A600011F7089524E431E0FC01318320830895A7
:103A700024E431E0FC01318320830C943125CF9381
:103A8000DF93EC019A819370923099F09330B1F00A
:103A90008981913051F0982FE82FEF71F0E0EB58C9
:103AA000F14E849195FF0EC002C0880F880F81955A
:103AB00009C0898185FF05C08FE704C00E945E2A86
:103AC00001C080E89881292F2F70392F32953F70DF
:103AD0009981930F9983382F3203C001112436E066
:103AE000959587953A95E1F7DF91CF910895CF921B
:103AF000DF92EF92FF926A017B0140931301509392
:103B0000140160931501709316016091F003709198
:103B1000F10380E090E00E9473279B01AC0160EC10
:103B200073EB8AE59FE40E94DA26A70196010E94C2
:103B300001280E9442276093F2037093F30380935D
:103B4000F4039093F503FF90EF90DF90CF900895EA
:103B500070931201609311018091F0039091F10331
:103B60000E94742870936D0160936C010895CF9347
:103B7000DF93EB017093F1036093F00380E090E03A
:103B80000E9473279B01AC0160EC73EB8AE59FE414
:103B90000E94DA2620911301309114014091150101
:103BA000509116010E9401280E9442276093F2035F
:103BB0007093F3038093F4039093F50360911101E4
:103BC00070911201CE010E94742870936D01609370
:103BD0006C0180910E0190910F018734910569F479
:103BE000569A83E884BD81E085BD80916E008E7F0A
:103BF00080936E0080E887BD30C08834910569F4F9
:103C0000559A83E284BD81E085BD80E888BD8091BE
:103C10006E008E7F80936E0020C0833B910559F427
:103C2000239A83E88093B00081E08093B10080E81C
:103C30008093B30012C0843B910559F4539A83E2F8
:103C40008093B00081E08093B10080E88093B4005D
:103C500004C08B9711F48FEF8AB981E090E09093C4
:103C6000E3038093E2032091F0033091F10340E0FD
:103C700050E060E074E284EF90E00E94AA28109285
:103C8000800089E080938100832F992780938900A9
:103C900020938800DF91CF910895CF93CB011092AC
:103CA0006F007093EF036093EE03DB01ED91FC91E5
:103CB0000680F781E02D60E070E009958091EE03C9
:103CC0009091EF03DC01ED91FC910480F581E02DF2
:103CD0000995833599F58091EE039091EF03DC010E
:103CE000ED91FC910680F781E02D64E070E009958C
:103CF0008091EE039091EF03DC01ED91FC91048043
:103D0000F581E02D09951092EC038093ED038091ED
:103D1000EE039091EF03DC01ED91FC910480F581BD
:103D2000E02D09952091EC033091ED03282B2A5FBB
:103D30003F4F3093ED032093EC0306C081E090E009
:103D40009093ED038093EC038091EE039091EF0349
:103D5000DC01ED91FC916091EC037091ED03068024
:103D6000F781E02D09958091EE039091EF03DC013E
:103D7000ED91FC910480F581E02D099580938504F7
:103D8000813408F040C02091EC033091ED032F5FA7
:103D90003F4F280F311D3093ED032093EC03C0E01B
:103DA00080918504C81790F48091EE039091EF0301
:103DB000DC01ED91FC910480F581E02D0995EC2F5B
:103DC000F0E0EB5BFB4F8083CF5FEACF8CE3E2E078
:103DD000F4E0DF011D928A95E9F7109243041092F6
:103DE0004204109241048FEF8093400480933F047B
:103DF00010923E0486E0809344040E94DE1B82E021
:103E000080936F0002C010928504CF9108951092A4
:103E10006F007093E9036093E8037093EB03609382
:103E2000EA0366EE73E00C944D1E2F923F924F9280
:103E30005F926F927F928F929F92AF92BF92CF923A
:103E4000DF92EF92FF920F931F93CF93DF9300D0F7
:103E500000D000D0CDB7DEB780918504882309F467
:103E6000A6C3F8948091D003882311F078949FC35F
:103E700081E08093D003789490913E04992389F057
:103E800080914304811103C0915090933E048F5F51
:103E90008093430490914404891387C31092430490
:103EA00084C371E1E72E74E0F72EE0E1CE2EE4E06A
:103EB000DE2E1C821B82F6EF2F2EF3E03F2E82EDCA
:103EC00093E09A838983A2E0B4E0BE83AD83F101DD
:103ED00010810181E28180904304882D90E01D3E95
:103EE00039F4202F30E08217930709F0C9C203C0CC
:103EF000892B09F04FC1E7FF07C080E2AD81BE8189
:103F00008C93A981BA818C93EF77EF3709F442C083
:103F1000D70118978C9182FD02C011971C92D7018E
:103F200015978C9182FD02C011971C92F0E0EE0F64
:103F3000FF1FEB56F14E103311F0103539F4859117
:103F40009491ED81FE819383828324C025913491E5
:103F5000AD81BE811C963C932E931B97BB81B330E1
:103F6000C9F040E050E06091F2037091F30380915A
:103F7000F4039091F5030E948828F6018081992727
:103F800087FD9095820F931FA981BA8112969C9309
:103F90008E931197123E09F48FC0B0F4103BA9F133
:103FA00050F4103409F469C0103709F46DC01033AF
:103FB00009F0F3C124C0103DE1F1113E09F46AC0DB
:103FC000103C09F0EAC12FC0173E09F4B6C048F40E
:103FD000143E09F4A6C008F49DC0153E09F4A4C01F
:103FE000DCC11B3E09F4C1C020F41A3E09F4A8C08C
:103FF000D4C11E3E09F4CBC0103FC9F1CEC100238D
:1040000009F43EC2F7013E973DC080918504081730
:1040100010F0912C01C0902E90923F041092400419
:10402000B1E0BC832DC2802F013208F4AAC080E227
:10403000A8C0BC81B11111C040914104842F90E00F
:1040400001962091850430E0821793071CF481E0EB
:10405000840F01C080E080933F04003410F0912C65
:1040600001C0902E90924004E1E0EC8309C201323D
:1040700008F006C20093440403C2002309F400C2FE
:10408000F7013A970083FCC1002309F4F9C1F70155
:104090003797F8CFFB81F33009F4F2C1AD81BE81CF
:1040A0001B962D913C911C97201B31092C31310519
:1040B000A8F42CE130E012C0FB81F33009F4E0C138
:1040C000AD81BE811B962D913C911C97200F311D17
:1040D0002136BDE03B0710F020E63DE0ED81FE819A
:1040E0003487238740E050E06091F2037091F3033E
:1040F0008091F4039091F5030E948828D6018C9159
:10410000992787FD9095820F931FE981FA81928309
:104110008183B6C1F7013B9781E0011124C080E0A3
:1041200022C0F7013897AECF03FF03C080EF800FA6
:1041300001C0802FD6018C93A3C1F7013597A2CF80
:10414000ED81FE812081802F90E0820F911D27FD5F
:104150009A958132910514F080E290E0AD81BE81A4
:104160008C93E981FA8180838BC1AD81BE818C9172
:10417000992787FD9095801B910997FF02C080E0E9
:1041800090E0ED81FE818083A981BA81D4CF009334
:104190003E0476C11032B1F01C3E09F443C0103128
:1041A00009F046C0BB81B33009F46AC1ED81FE81DC
:1041B00023853485201B31092C31310598F42CE1FD
:1041C00030E010C0BB81B33009F45AC1ED81FE81EB
:1041D00023853485200F311D2136FDE03F0710F087
:1041E00020E63DE0AD81BE811C963C932E931B974B
:1041F00040E050E06091F2037091F3038091F4038A
:104200009091F5030E948828F6018081992787FD07
:104210009095820F931FA981BA8112969C938E93D9
:1042200011972EC108112CC1E981FA81108228C191
:10423000FB81F33009F489C0103331F0103521F0DF
:10424000103609F08EC084C0AD81BE811B962D91C1
:104250003C911C9712968D919C911397F7013E9774
:1042600040812817390758F4240F311D821793070E
:1042700008F49C01ED81FE81348723870CC0241B48
:1042800031092817390708F49C01AD81BE811C96BD
:104290003C932E931B97F7013B9720816091F2038B
:1042A0007091F3038091F4039091F5032223B1F10F
:1042B000F6012081A22EBB24A7FCB094AD81BE8163
:1042C0001B962D913C911C9745E95EE1FA014590C2
:1042D00054904E5F5F4FFA01659074902415350538
:1042E00068F42615370550F0A201421B530B26191E
:1042F00037092417350730F0320104C0BEE1433FCF
:104300005B0721F7930140E050E00E9488282A0DC6
:104310003B1DE981FA813283218317C0AD81BE81C3
:104320001B962D913C911C9740E050E00E948828FC
:10433000F6018081992787FD9095820F931FA981AF
:10434000BA8112969C938E931197103509F078CF0D
:10435000802F807F49F4ED81FE818081801B8083E6
:1043600003C0103AD1F4F4CF802F8F7041F4AD81A7
:10437000BE818C91902F92959F70890F8C93ED81C7
:10438000FE81808181320CF080E287FD80E0AD818A
:10439000BE818C93E981FA818083111171C0FB8108
:1043A000F33009F4B2C022E0281518F48A948A94F4
:1043B000FACF811020C0AD81BE811B962D913C911A
:1043C0001C9740E050E06091F2037091F3038091FC
:1043D000F4039091F5030E948828F60180819927C3
:1043E00087FD9095820F931FA981BA8112969C93A5
:1043F0008E9311978AC0002309F487C0F601A0802C
:10440000BB24A7FCB0946091F2037091F3038091F8
:10441000F4039091F503F1E0B02F8F1201C0B29533
:10442000BF70ED81FE812385348505E91EE1A0E0A2
:10443000F801459154912417350728F4AF5F0E5FBA
:104440001F4FA335A9F72B2F30E02A0F311D203342
:10445000310514F02FE230E0F901EE0FFF1FEB56AB
:10446000F14E2591349140E050E00E9488282A0DB9
:104470003B1DA981BA8112963C932E93119745C09A
:10448000812F8F7D803469F5BB81B33009F43DC045
:10449000F601A080BB24A7FCB0944090F20350909A
:1044A000F3036090F4037090F503AD81BE811B9619
:1044B0008D909C901C97CD0105960E943F1D940104
:1044C000280F311D87FD3A9540E050E0C301B2014D
:1044D0000E9488282A0D3B1DE981FA8132832183BD
:1044E00014C0103791F4AD81BE81BC90CD01089607
:1044F0000E943F1D8B0D181624F481321CF080E2BF
:1045000001C080E0E981FA8180838D819E810F96D0
:104510009E838D8393E0290E311CA981BA81159663
:10452000BA83A983BB81BF5FBB83EFE0EE0EF11CB2
:10453000FFE0CF0ED11CB43009F0C9CC8091430408
:104540008F5F8093430490914404891302C01092BA
:10455000430480914304811128C0809142048F5FFD
:1045600080934204803469F41092420480914104A3
:104570008F5F8093410490918504891710F0109209
:10458000410480913F048F3F29F0809341048FEFD5
:1045900080933F04809140048F3F29F08093420430
:1045A0008FEF809340040E94DE1B1092D00326966A
:1045B0000FB6F894DEBF0FBECDBFDF91CF911F9134
:1045C0000F91FF90EF90DF90CF90BF90AF909F90B2
:1045D0008F907F906F905F904F903F902F900895B5
:1045E00080E591E09093E7038093E6031092EB035C
:1045F0001092EA031092E9031092E803089584E40C
:1046000091E09093E7038093E60308951F920F9241
:104610000FB60F9211242F933F938F939F93AF93D5
:10462000BF938091870490918804A0918904B091F0
:104630008A043091860423E0230F2D3720F401965D
:10464000A11DB11D05C026E8230F0296A11DB11DB5
:10465000209386048093870490938804A093890410
:10466000B0938A0480918B0490918C04A0918D0466
:10467000B0918E040196A11DB11D80938B0490937F
:104680008C04A0938D04B0938E04BF91AF919F9141
:104690008F913F912F910F900FBE0F901F90189503
:1046A0002FB7F894609187047091880480918904F1
:1046B00090918A042FBF08953FB7F89480918B049E
:1046C00090918C04A0918D04B0918E0426B5A89B86
:1046D00005C02F3F19F00196A11DB11D3FBF6627F0
:1046E000782F892F9A2F620F711D811D911D42E035
:1046F000660F771F881F991F4A95D1F70895CF92AB
:10470000DF92EF92FF92CF93DF936B017C010E94C7
:104710005C23EB01C114D104E104F10489F00E948F
:10472000D9260E945C236C1B7D0B683E734090F37E
:1047300081E0C81AD108E108F108C851DC4FEACF7E
:10474000DF91CF91FF90EF90DF90CF900895789414
:1047500084B5826084BD84B5816084BD85B5826086
:1047600085BD85B5816085BDEEE6F0E08081816024
:104770008083E1E8F0E01082808182608083808124
:1047800081608083E0E8F0E0808181608083E1EBFC
:10479000F0E0808184608083E0EBF0E080818160E4
:1047A0008083EAE7F0E0808184608083808182609A
:1047B0008083808181608083808180688083109283
:1047C000C10008958E3008F08E5087702091170137
:1047D00090E4299F90011124822B80937C0080918A
:1047E0007A00806480937A0080917A0086FDFCCF05
:1047F000809178002091790090E0922B08951F938A
:10480000CF93DF93182FEB0161E00E94872420975C
:1048100011F460E004C0CF3FD10539F461E0812F8D
:10482000DF91CF911F910C94C024E12FF0E0E35C65
:10483000F04EE491E330F9F048F4E130B9F0E230C1
:10484000A1F584B5806284BDC8BD34C0E730E9F00D
:10485000E83019F1E43049F580918000806280935E
:104860008000D0938B00C0938A0024C084B58068F8
:1048700084BDC7BD1FC08091800080688093800088
:10488000D0938900C093880015C08091B0008068E3
:104890008093B000C093B3000DC08091B0008062DF
:1048A0008093B000C093B40005C0C038D1050CF0AF
:1048B000B5CFAFCFDF91CF911F910895833081F0B5
:1048C00028F4813099F08230A1F008958730A9F062
:1048D0008830B9F08430D1F4809180008F7D03C09E
:1048E000809180008F7780938000089584B58F77C2
:1048F00002C084B58F7D84BD08958091B0008F770C
:1049000003C08091B0008F7D8093B0000895CF9355
:10491000DF9390E0FC01EF5AF04E2491FC01EB593B
:10492000F04E8491882349F190E0880F991FFC0193
:10493000E357F04EA591B4918D57904EFC01C5916F
:10494000D4919FB7611108C0F8948C91209582236F
:104950008C93888182230AC0623051F4F8948C9140
:10496000322F309583238C938881822B888304C0D7
:10497000F8948C91822B8C939FBFDF91CF910895F7
:104980000F931F93CF93DF931F92CDB7DEB7282FDE
:1049900030E0F901E35CF04E8491F901EF5AF04EFA
:1049A0001491F901EB59F04E04910023C9F08823CA
:1049B00021F069830E945E246981E02FF0E0EE0F10
:1049C000FF1FED57F04EA591B4919FB7F8948C91CD
:1049D000611103C01095812301C0812B8C939FBF6F
:1049E0000F90DF91CF911F910F910895CF93DF9397
:1049F000282F30E0F901E35CF04E8491F901EF5A81
:104A0000F04ED491F901EB59F04EC491CC2391F0C2
:104A100081110E945E24EC2FF0E0EE0FFF1FE7589B
:104A2000F04EA591B4912C912D2381E090E021F4DA
:104A300080E002C080E090E0DF91CF9108950E9475
:104A40006E2A08950E94A7230E9421250E94921099
:104A5000C0E0D0E00E94BD102097E1F30E9400006A
:104A6000F9CF0C948129CF92DF92EF92FF920F93AE
:104A70001F93CF93DF936C017A01EB01E60EF71ED3
:104A800000E010E0CE15DF0561F06991D601ED91EF
:104A9000FC910190F081E02DC6010995080F191FC6
:104AA000F1CFC801DF91CF911F910F91FF90EF904F
:104AB000DF90CF9008956115710581F0DB010D90B5
:104AC0000020E9F7AD0141505109461B570BDC01AD
:104AD000ED91FC910280F381E02D099480E090E05B
:104AE0000895EF92FF920F931F93CF93DF938C0162
:104AF000FB01C0E0D0E064917F018FEFE81AF80A73
:104B0000662361F0D801ED91FC910190F081E02DD8
:104B1000C8010995C80FD91FF701EDCFCE01DF916C
:104B2000CF911F910F91FF90EF9008950C945B250A
:104B3000DC01ED91FC910190F081E02D099468E594
:104B400071E00C945B250F931F93CF93DF93EC01DF
:104B50000E9471258C01CE010E949F25800F911F1C
:104B6000DF91CF911F910F9108958F929F92AF92F5
:104B7000BF92CF92DF92EF92FF920F931F93CF934A
:104B8000DF93CDB7DEB7A1970FB6F894DEBF0FBEA7
:104B9000CDBF7C01C42EE52FCB01D22E19A221E07E
:104BA0002D1510F02AE0D22E8E010F5D1F4F8D2C97
:104BB000912CA12CB12C6C2D7E2FA50194010E946B
:104BC00088288C2DD29E80191124015011098A3019
:104BD00014F4805D01C0895CF801808321153105E2
:104BE0004105510521F0C22EE32FCA01E4CFB801DF
:104BF000C7010E945B25A1960FB6F894DEBF0FBED9
:104C0000CDBFDF91CF911F910F91FF90EF90DF907B
:104C1000CF90BF90AF909F908F900895CF92DF92EA
:104C2000EF92FF920F931F93CF93DF93EC016A01F2
:104C30007B012115310579F4E881F9810190F0813A
:104C4000E02D642FDF91CF911F910F91FF90EF9096
:104C5000DF90CF9009942A303105E9F477FF1AC02C
:104C60006DE20E9498258C0144275527BA014C1902
:104C70005D096E097F092AE0CE010E94B525800FEB
:104C8000911FDF91CF911F910F91FF90EF90DF90D7
:104C9000CF9008952AE0B701A601CE01DF91CF9110
:104CA0001F910F91FF90EF90DF90CF900C94B5255E
:104CB0009A01AB01662757FD6095762F0C940E265E
:104CC0000F931F93CF93DF93EC019A01AB016627FB
:104CD00057FD6095762F0E940E268C01CE010E9412
:104CE0009F25800F911FDF91CF911F910F91089504
:104CF0002115310541F4DC01ED91FC910190F08129
:104D0000E02D642F09940C94B5259A01462F50E0AC
:104D100060E070E00C9478269A01AB0160E070E0EE
:104D20000C9478264F925F926F927F92AF92BF92CF
:104D3000CF92DF92EF92FF920F931F93CF93DF9367
:104D4000CDB7DEB729013A01621B730B840B950BBB
:104D500029893A894B895C892A193B094C095D09E3
:104D6000298B3A8B4B8B5C8B9B01AC0169897A89CF
:104D70008B899C890E946428E418F50806091709A4
:104D8000A80197010E94AA282A0D3B1D4C1D5D1DFC
:104D9000CA01B901DF91CF911F910F91FF90EF9060
:104DA000DF90CF90BF90AF907F906F905F904F90CB
:104DB000089508950CD0EBC0E3D040F0DAD030F085
:104DC00021F45F3F19F0CCC0511115C1CFC0F0D014
:104DD00098F39923C9F35523B1F3951B550BBB27C2
:104DE000AA2762177307840738F09F5F5F4F220F6F
:104DF000331F441FAA1FA9F333D00E2E3AF0E0E868
:104E000030D091505040E695001CCAF729D0FE2FB3
:104E100027D0660F771F881FBB1F26173707480745
:104E2000AB07B0E809F0BB0B802DBF01FF279358FB
:104E30005F4F2AF09E3F510568F092C0DCC05F3F93
:104E4000ECF3983EDCF3869577956795B795F795E3
:104E50009F5FC9F7880F911D9695879597F90895DB
:104E6000E1E0660F771F881FBB1F62177307840777
:104E7000BA0720F0621B730B840BBA0BEE1F88F786
:104E8000E095089504D06894B111B5C0089598D004
:104E900088F09F5790F0B92F9927B751A0F0D1F023
:104EA000660F771F881F991F1AF0BA95C9F712C0AD
:104EB000B13081F09FD0B1E008959CC0672F782F6A
:104EC0008827B85F39F0B93FCCF386957795679519
:104ED000B395D9F73EF490958095709561957F4F85
:104EE0008F4F9F4F0895E89409C097FB3EF490952B
:104EF0008095709561957F4F8F4F9F4F9923A9F0B3
:104F0000F92F96E9BB279395F69587957795679541
:104F1000B795F111F8CFFAF4BB0F11F460FF1BC085
:104F20006F5F7F4F8F4F9F4F16C0882311F096E918
:104F300011C0772321F09EE8872F762F05C06623C6
:104F400071F096E8862F70E060E02AF09A95660F7F
:104F5000771F881FDAF7880F9695879597F9089538
:104F600097F99F6780E870E060E008959FEF80EC1C
:104F7000089500240A9416161706180609060895BF
:104F800000240A9412161306140605060895092E25
:104F90000394000C11F4882352F0BB0F40F4BF2B94
:104FA00011F460FF04C06F5F7F4F8F4F9F4F0895D4
:104FB00057FD9058440F551F59F05F3F71F04795CA
:104FC000880F97FB991F61F09F3F79F087950895AF
:104FD000121613061406551FF2CF4695F1DF08C0CE
:104FE000161617061806991FF1CF869571056105EB
:104FF00008940895E894BB2766277727CB0197F993
:1050000008950BD0C4CFB5DF28F0BADF18F0952390
:1050100009F0A6CFABCF1124EECFCADFA0F3959F46
:10502000D1F3950F50E0551F629FF001729FBB278F
:10503000F00DB11D639FAA27F00DB11DAA1F649F3B
:105040006627B00DA11D661F829F2227B00DA11DEE
:10505000621F739FB00DA11D621F839FA00D611D74
:10506000221F749F3327A00D611D231F849F600D95
:10507000211D822F762F6A2F11249F5750408AF0CE
:10508000E1F088234AF0EE0FFF1FBB1F661F771F5A
:10509000881F91505040A9F79E3F510570F060CF96
:1050A000AACF5F3FECF3983EDCF386957795679542
:1050B000B795F795E7959F5FC1F7FE2B880F911D78
:1050C0009695879597F90895DB018F939F930E949A
:1050D000CF28BF91AF91A29F800D911DA39F900DEE
:1050E000B29F900D11240895AA1BBB1B51E107C06C
:1050F000AA1FBB1FA617B70710F0A61BB70B881F68
:10510000991F5A95A9F780959095BC01CD010895F6
:10511000A1E21A2EAA1BBB1BFD010DC0AA1FBB1FBB
:10512000EE1FFF1FA217B307E407F50720F0A21B2D
:10513000B30BE40BF50B661F771F881F991F1A949A
:1051400069F760957095809590959B01AC01BD01C4
:10515000CF010895052E97FB1EF400940E94C128EC
:1051600057FD07D00E94882807FC03D04EF40C940A
:10517000C12850954095309521953F4F4F4F5F4F37
:10518000089590958095709561957F4F8F4F9F4FB3
:105190000895EE0FFF1F0590F491E02D09940E94F1
:1051A000DA28A59F900DB49F900DA49F800D911DAE
:1051B00011240895A29FB001B39FC001A39F700D59
:1051C000811D1124911DB29F700D811D1124911D0F
:1051D0000895CF93DF938230910510F482E090E040
:1051E000E0919104F091920420E030E0A0E0B0E082
:1051F000309739F14081518148175907B8F0481765
:10520000590771F482819381109729F013969C932A
:105210008E9312972CC0909392048093910427C090
:105220002115310531F04217530718F0A901DB01B0
:1052300001C0EF019A01BD01DF010280F381E02D81
:10524000D7CF21153105F9F0281B390B2430310552
:1052500080F48A819B816115710521F0FB019383A4
:10526000828304C09093920480939104FE0132964D
:1052700044C0FE01E20FF31F819391932250310944
:10528000398328833AC020918F0430919004232BD6
:1052900041F4209102013091030130939004209356
:1052A0008F0420910001309101012115310541F455
:1052B0002DB73EB74091040150910501241B350BD9
:1052C000E0918F04F0919004E217F307A0F42E1BF5
:1052D0003F0B2817390778F0AC014E5F5F4F24175A
:1052E000350748F04E0F5F1F5093900440938F0492
:1052F0008193919302C0E0E0F0E0CF01DF91CF9184
:105300000895CF93DF93009709F487C0FC0132978B
:1053100013821282C0919104D0919204209781F45B
:1053200020813181280F391F80918F049091900442
:105330008217930779F5F0939004E0938F046DC082
:10534000DE0120E030E0AE17BF0750F412964D9119
:105350005C9113979D014115510509F1DA01F3CFD5
:10536000B383A28340815181840F951F8A179B07C5
:1053700071F48D919C911197840F951F02969183E2
:10538000808312968D919C9113979383828321152C
:10539000310529F4F0939204E09391043EC0D901C1
:1053A0001396FC93EE9312974D915D91A40FB51F48
:1053B000EA17FB0779F480819181840F951F02968B
:1053C000D90111969C938E938281938113969C931D
:1053D0008E931297E0E0F0E08A819B81009719F0AC
:1053E000FE01EC01F9CFCE01029628813981820FAE
:1053F000931F20918F04309190042817390769F486
:10540000309729F4109292041092910402C01382F2
:105410001282D0939004C0938F04DF91CF910895AE
:105420008F929F92AF92BF92CF92DF92EF92FF92B4
:10543000CF93DF93EC01688179818A819B8161152B
:1054400071058105910521F464E279ED8BE597E022
:105450002DE133EF41E050E00E94AA2849015A01B2
:105460009B01AC01A7EAB1E40E94CF286B017C014B
:10547000ACEEB4EFA50194010E94762AC60ED71EA9
:10548000E81EF91EF7FE06C081E0C81AD108E1083F
:1054900080E8F80AC882D982EA82FB82C6019F7737
:1054A000DF91CF91FF90EF90DF90CF90BF90AF90C2
:1054B0009F908F9008950E94102A089586E091E0B1
:1054C0000E94102A0895A0E0B0E080930601909316
:1054D0000701A0930801B0930901089581E090E0CD
:1054E000F8940C947B2AB7FF0C94CF280E94CF2805
:1054F000821B930B08951FE1CCE9DFE104C0FE019C
:105500000E94CB282296CE39D107C9F7F894FFCF55
:105510000000930480000100000001000000B400BE
:105520008032000000803F016672616D6520636F0C
:10553000756E743A00435055206C6F61643A0025D3
:105540000000000000BD1733254C4F414445520078
:10555000000000001F251F251F251F25000000003B
:10556000321D381DC81BD61B0D0A006E616E006906
:0A5570006E66006F7666002E0000E4
:00000001FF
