:100000000C94C5040C94ED040C94ED040C94ED04D4
:100010000C94ED040C94ED040C94ED040C94ED049C
:100020000C94ED040C94ED040C94ED040C9419075D
:100030000C94ED040C94ED040C94ED040C94ED047C
:100040000C94BC060C94ED040C94ED040C94ED049B
:100050000C94ED040C94ED040C94ED040C94ED045C
:100060000C94ED040C94ED04F417FC17FF17891A97
:10007000261B291B401B0101FF030101F703436FEE
:100080006E7472617374004D617820766F6C756D5B
:10009000650044656661756C7420766F6C756D657E
:1000A000005374617274206D656E752064757261A1
:1000B00074696F6E005361766500496E746572668F
:1000C00061636500536F756E6400506C6179657291
:1000D000206E616D6500446973706C6179005361D5
:1000E0007665206368616E6765730045726173654C
:1000F0002073657474696E6773207061676500446E
:10010000656661756C742073657474696E677300DD
:1001100053656520616C6C2073657474696E6773D8
:10012000004368616E67652073657474696E6773F8
:1001300000436865636B75702057697A617264006B
:100140007A00760000000000240027002A00010247
:100150000408102040800102040810200102040855
:10016000102000000000250028002B0004040404D7
:100170000404040402020202020203030303030351
:1001800003053F213F1208120A100A0E1C0E0C1E16
:100190000C141A14161F161E131E1E1B1E1E1F1EC5
:1001A0003F213F3A2F3A173D173F213F181F0204C6
:1001B0000A041F0E04040E1F0A1F0A0E0E1F04114C
:1001C0000E2E252E2F2A2E262929021F02081F084F
:1001D000150E04040E150E15151B151B040604043C
:1001E0000C040000000017000300031F0A1F16374D
:1001F0001A1904130A153A000300000E11110E001B
:100200000A040A040E04003000040404001000185C
:1002100004031F111F121F101D151711151F0704AE
:100220001F17151D1F151D01011F1F151F17151F56
:10023000000A00003200040A110A0A0A110A040125
:1002400015020E11171E051E1F150A0E110A1F1189
:100250000E1F15111F05010E111D1F041F111F1167
:1002600008100F1F041B1F10101F061F1E040F0E67
:10027000110E1F09060E112E1F051A121509011F56
:10028000011F101F0F180F1F0C1F1B041B031C0343
:10029000191513001F11030418111F000201022079
:1002A00020200001020C121E1F120C0C12120C1244
:1002B0001F0C1A14041E05242A1E1F021C141D10D4
:1002C00020201D1F0814111F101E041E1E021C0CCE
:1002D000120C3E0A040C123E1E040214160A020FEF
:1002E000120E101E0E100E1E081E120C1226281EB4
:1002F000322A26041E21001F00211E040102013F94
:10030000213F05008930080238024978681400004E
:100310007E00B500177361766500166261636B003D
:100320001574797065000A0A0A153A6F6B617920B5
:10033000163A6564697400596F7520656E7465724C
:1003400065640A004D617820766F6C756D653A00C2
:1003500044656661756C7420766F6C756D653A00E6
:1003600092008700B5005374617274206D656E75DC
:10037000206475726174696F6E0A696E206E756DA6
:10038000626572206F66206672616D65730A28323D
:1003900030206672616D65732F7365636F6E6429BB
:1003A0000A3020746F2064697361626C65206D652A
:1003B0006E750A32353520746F2064697361626C22
:1003C000652074696D650A00A100B500D600CA00F9
:1003D000C400BA00B5001510007374617274206D0A
:1003E000656E752074696D65723A00766F6C756D17
:1003F000652064656661756C743A00766F6C756D26
:1004000065206D61783A00636F6E74726173743A3F
:10041000002200706C617965723A220022006761E7
:100420006D653A2200746F6B656E3A3078005061EA
:1004300067652065726173656400310121011001F7
:10044000FF00EB00DE0053657474696E6773207300
:1004500061766564000A0A486F6C642015001B18F9
:100460001A1915161700436865636B20627574745A
:100470006F6E730A0005077F4141417F3E5B4F5B12
:100480003E3E6B4F6B3E183C783C18183C7E3C1847
:100490001C577D571C1C5E7F5E1C007E43437E0004
:1004A0007E73737E007E7F7F7E7F4141417F304837
:1004B0003A060E06297929067F4141417F60703F47
:1004C00002042A1C361C2A7F3E1C080000081C3E21
:1004D0007F14227F22143C3C3C7EFF18423C817EEC
:1004E0003E6375633E3E616B633E3E636B6B3E04F1
:1004F000027F020410207F201008082A1C08081C14
:100500002A0808143E554122637569756310181C4A
:100510001810040C1C0C04000000000000005F0018
:10052000000007000700147F147F14042A7F2A109C
:100530002313086462364956205000080703000060
:100540001C2241000041221C002A1C3E1C2A0808D3
:100550003E080800E0600000080808080800606025
:10056000000060100804033E5149453E00427F40B0
:100570000062514949462141494D331814127F10F8
:1005800027454545393C4A4949304121110907363B
:1005900049494936064949291E00002400000080C7
:1005A00064000008142241001414141414004122A1
:1005B000140802015909063E415D594E7C12111280
:1005C0007C7F494949363E414141227F4141221CBD
:1005D0007F494949417F090909013E414151327F23
:1005E0000808087F00417F41002041413F017F080A
:1005F0001422417F404040407F020C027F7F020472
:10060000087F3E4141413E7F090909063E41614163
:10061000BE7F09192946264949493201017F010156
:100620003F4040403F1F2040201F3F4038403F6335
:100630001408146303047804036151494543007F9F
:1006400041410003040810600041417F00040201A1
:1006500002048080808080000307080020545478C2
:10066000407F284444383844444428384444287F50
:100670003854545418087E09090218A4A49C787FA1
:100680000804047800447D4000006080847D7F1071
:1006900010284400417F40007C047804787C0804E2
:1006A00004783844444438FC1824241818242418A6
:1006B000FC7C080404080854545420043F4444209B
:1006C0003C4040207C1C2040201C3C4020403C44BE
:1006D000281028444C9090907C4464544C4400086A
:1006E00036410000007F0000004136080018040871
:1006F000100C7F4141417F1020153A4163636570C2
:100700007400110041646A75737420636F6E7472B3
:100710006173740044656661756C747320726573EF
:10072000746F7265642E000000000023002600290B
:100730000005003801680100004500680100000064
:100740000000080002010000030407000000000090
:10075000000000F6E8DBCFC3B8AEA49B928A827B90
:10076000746E68625C57524E4945413E3A373431A7
:100770002E2C2927252321172B152010204C4F41E3
:1007800044455200172B16201314000A4E6F2053B5
:10079000442063617264206F720A6E6F204C4F4177
:1007A0004445522E4845580A0A153A45786974005E
:1007B0001D20466C617368696E670A20206C6F614A
:1007C0006465722E2E2E0A0A444F4E27542054552B
:1007D000524E204F464621000500680138010000B6
:1007E0004024FFFFFFFFFFFFFFFF8000000000002D
:1007F00000019E00000000000001B300C6300000B0
:100800000001B300C63000000001B300C6000000C4
:100810000001983DFFB6E7CF00018C66C637ECD9E2
:1008200080018666C6366CD80001837EC6366CCEE3
:1008300000018360C6366CC30001B366C6366CC166
:100840008001B366C6366CD980019E3C73B667CF13
:1008500000018000000000C00001800000000CC00A
:100860000001800000000CC0000180000000078033
:100870000001800000000000E00180000000000195
:10088000BF0180000000000321C1800000000006BD
:1008900020618000003FFFFC20318000004000010B
:1008A000BFF18000009000082001800000B800091E
:1008B000A00180000090000820018000004000019D
:1008C00090018000003FFFFC0FF180000000000756
:1008D0000031800000000001806180000000000005
:1008E000E1C18000000000003F0180000000000026
:1008F00000018000000000000001FFFFFFFFFFFF7C
:10090000FFFF001753440016137800161314001548
:1009100010200015201000540A03E181867F3E1844
:100920006D830F0F0E0183866033186DC3198F1806
:1009300003C38E6033186DE330CF1803C39E603657
:1009400030CDE360CF3006C79E7E3E30CDB360CF62
:10095000300CC6F6603330D9B660CF33CFCCF660FA
:1009600061B0DB1E60CF30D86CE6C061B0DB1E61C9
:100970008F19986CC6C063B19B0E330F0FB078C649
:10098000FF7E1F1B061E0F00AF1B11241FBECFEFE3
:10099000D8E0DEBFCDBF11E0A0E0B1E0E8E4F8E3CD
:1009A00002C005900D92AE32B107D9F724E0AEE255
:1009B000B1E001C01D92A337B207E1F714E0C5EC26
:1009C000D4E004C02197FE010E94DA1BC43CD10789
:1009D000C9F70E9406150C94221C0C940000CF92BB
:1009E000DF92EF92FF920F931F93CF93DF936C01EF
:1009F0007A018B01C0E0D0E0CE15DF0589F0D80187
:100A00006D918D01D601ED91FC910190F081E02D69
:100A1000C6010995892B11F47E0102C02196ECCF05
:100A2000C701DF91CF911F910F91FF90EF90DF9061
:100A3000CF900895833081F028F4813099F082308E
:100A4000A1F008958730A9F08830B9F08430D1F44E
:100A5000809180008F7D03C0809180008F7780938C
:100A60008000089584B58F7702C084B58F7D84BDE2
:100A700008958091B0008F7703C08091B0008F7D82
:100A80008093B00008950E94F41BEF92FF920F93A1
:100A90001F93CF93DF938C017B01C0E0D0E0F7017F
:100AA000EC0FFD1F6491662361F0D801ED91FC917C
:100AB0000190F081E02DC8010995892B11F0219654
:100AC000EECFCE01DF91CF911F910F91FF90EF906C
:100AD00008956115710579F0FB0101900020E9F797
:100AE0003197AF01461B570BDC01ED91FC91028061
:100AF000F381E02D099480E090E008950F931F9317
:100B0000CF93DF93EC010E9445058C0163E171E016
:100B1000CE010E946905800F911FDF91CF911F9137
:100B20000F9108951F93CF93DF93282F30E0F901A1
:100B3000E15CF84F8491F901E25BFE4FD491F90139
:100B4000E459FE4FC491CC23C9F0162F81110E94A5
:100B50001A05EC2FF0E0EE0FFF1FEE59FE4FA591A6
:100B6000B4918FB7F894111105C09C91ED2FE095C9
:100B7000E92302C0EC91ED2BEC938FBFDF91CF9175
:100B80001F910895CF93DF9390E0FC01E25BFE4F4D
:100B90002491FC01E459FE4F8491882361F190E097
:100BA000880F991FFC01EC5BFE4FC591D491FC01AD
:100BB000EE59FE4FA591B491611109C09FB7F89409
:100BC0008881209582238883EC912E230BC062308C
:100BD00061F49FB7F8943881822F809583238883AE
:100BE000EC912E2B2C939FBF06C08FB7F894E88111
:100BF0002E2B28838FBFDF91CF9108951F93CF9322
:100C0000DF93182FEB0161E00E94C205209711F4D9
:100C100060E004C0CF3FD10539F461E0812FDF915E
:100C2000CF911F910C949205E12FF0E0E15CF84F19
:100C3000E491E330F9F048F4E130B9F0E230A1F5A5
:100C400084B5806284BDC8BD34C0E730E9F0E830C7
:100C500019F1E43049F58091800080628093800032
:100C6000D0938B00C0938A0024C084B5806884BD73
:100C7000C7BD1FC080918000806880938000D093A2
:100C80008900C093880015C08091B000806880936F
:100C9000B000C093B3000DC08091B000806280931B
:100CA000B000C093B40005C0C038D1050CF0B5CF7A
:100CB000AFCFDF91CF911F9108953FB7F894809106
:100CC000DF019091E001A091E101B091E20126B530
:100CD000A89B05C02F3F19F00196A11DB11D3FBF74
:100CE000BA2FA92F982F8827820F911DA11DB11D02
:100CF000BC01CD0142E0660F771F881F991F4A95FE
:100D0000D1F708958F929F92AF92BF92CF92DF92C8
:100D1000EF92FF926B017C010E945D064B015C012A
:100D2000C114D104E104F104F1F00E945D06DC017C
:100D3000CB0188199909AA09BB09883E9340A105EE
:100D4000B10570F321E0C21AD108E108F10888EE7C
:100D5000880E83E0981EA11CB11CC114D104E104CB
:100D6000F10419F7DDCFFF90EF90DF90CF90BF90A7
:100D7000AF909F908F9008951F920F920FB60F9291
:100D800011242F933F938F939F93AF93BF938091A1
:100D9000E8039091E903A091EA03B091EB0330914D
:100DA000DE0123E0230F2D3720F40196A11DB11D94
:100DB00005C026E8230F0296A11DB11D2093DE0178
:100DC0008093E8039093E903A093EA03B093EB03C5
:100DD0008091DF019091E001A091E101B091E201E9
:100DE0000196A11DB11D8093DF019093E001A093B6
:100DF000E101B093E201BF91AF919F918F913F913B
:100E00002F910F900FBE0F901F901895FC019681A7
:100E100067FF02C0692F0BC0262F660F330B692FA7
:100E200070E06F5F7F4FC9010E94C61B682F65830A
:100E300008951F920F920FB60F9211242F936F9364
:100E40007F938F939F936091E503662359F180917F
:100E5000DD018F5F8093DD019091E603891710F12A
:100E60002091E30381E028272093E3031092DD0122
:100E70008091E703882369F08091000193E4899FC2
:100E8000802D1124895B809300010E94BA1B9093EE
:100E9000E403222329F08091E4038093B40002C08C
:100EA00080E0FBCF9F918F917F916F912F910F9059
:100EB0000FBE0F901F901895FC0161110DC0178A8D
:100EC000158A14A213A2108E1092E4031092E50367
:100ED0001092E3031092B4000895EF92FF920F93E3
:100EE0001F93CF93DF931F92CDB7DEB77C018B01A9
:100EF000411105C060E049830E945C07498150E0D0
:100F0000FA01EE0FFF1FEE0DFF1D16870587DA01B0
:100F10001996AA0FBB1FAE0DBF1D1D921C92F701A3
:100F2000E40FF51F81E0818389E0868B118E138E9B
:100F3000158E0F90DF91CF911F910F91FF90EF9041
:100F4000089540E069E377E00C946D0740E061E3C9
:100F500077E00C946D0728EF31E0E3EEF1E0DF017C
:100F6000A9011D9241505040E1F7DC0119961C92F5
:100F700019971A961C9208951F93CF93DF93EC0153
:100F8000162FF89460E08F850E94920588891816C4
:100F90001CF460E00E9492051EBD00000DB407FE27
:100FA000FDCF8EB5888918161CF461E00E94920569
:100FB0007894DF91CF911F910895EF92FF921F9344
:100FC000CF93DF93EC018C858F5F8C8783EEE82EC7
:100FD00081E0F82E10E0612F6064CE010E94BC0712
:100FE00060E8CE010E94BC0761E08F850E949205F7
:100FF000888918161CF460E00E94920580E090E059
:10100000F701E80FF91F20812EBD00000DB407FE87
:10101000FDCF2EB501968435910591F78889181674
:101020001CF461E00E9492051F5F84E5E80EF11C4C
:10103000163089F660E4CE01DF91CF911F91FF90C9
:10104000EF900C94BC07FC01643508F053C04033AA
:1010500008F050C090A1742F759575957595262F41
:10106000062E000C330B542F57709230A1F4F90167
:10107000ED51FE4F84E57802E00DF11D11248081D1
:1010800090E0052E02C0959587950A94E2F7809529
:10109000982F91700AC0933041F48485817046275F
:1010A00040954170841303C014C0911112C084E5AF
:1010B0007802200D311D1124F901ED51FE4F81E020
:1010C00090E001C0880F5A95EAF7809590818923B6
:1010D00010C084E57802200D311D1124F901ED5175
:1010E000FE4F81E090E001C0880F5A95EAF79081A9
:1010F000892B80830895DF92EF92FF920F931F93C5
:10110000CF93DF931F92CDB7DEB78C01D62EF42E8E
:10111000E12CE21654F46E2D6D0D4F2DC80129837C
:101120000E942308E3942981F4CF0F90DF91CF919F
:101130001F910F91FF90EF90DF900895DF92EF9253
:10114000FF920F931F93CF93DF937C01D62FD22E64
:10115000C42F002E000C110B040F111D47FD1A9512
:101160004C2F0C2E000C550B4017510744F42D2D1D
:101170004C2F6D2FC7010E947B08CF5FF1CFDF910D
:10118000CF911F910F91FF90EF90DF9008956F9294
:101190007F928F929F92AF92BF92CF92DF92EF9207
:1011A000FF920F931F93CF93DF93EC0188A06435D8
:1011B0000CF080C040330CF07DC0EC81F0E0319742
:1011C0000E9FC0010F9F900D1124860F911D67FD8A
:1011D0009A95181619060CF06DC0ED81E09FF0018C
:1011E0001124E40FF11D47FDFA951E161F060CF0A1
:1011F00061C0102FE42EF62E962EB62EC22ED12CC4
:10120000EB2DEF190E2E000CFF0B8C8190E0E817F0
:10121000F9070CF04EC00197E817F90779F0C89E5E
:101220009001C99E300DD89E300D1124E20FF31F9E
:101230008E8D9F8DE80FF91F749001C0712C6E2C5C
:10124000AE2C2A2D2E19022E000C330B8D8190E02E
:10125000281739075CF570FE10C0113031F44A2DA3
:101260006B2DCE010E9423081DC0012F212F462D7A
:10127000692DCE010E949E0815C089A198A18917E9
:1012800089F088A3113031F44A2D6B2DCE010E94D4
:10129000230807C0012F212F462D692DCE010E9462
:1012A0009E0888A27694A394610ECBCFB394910E3E
:1012B000A7CF88A2DF91CF911F910F91FF90EF9060
:1012C000DF90CF90BF90AF909F908F907F906F9066
:1012D00008950F93CF93DF93EC016A3019F42D81B9
:1012E00098851FC06D3019F1262F08854A856985BC
:1012F0000E94C70828853C818985329F800D112472
:1013000089879F81992399F0082E000C990B44E559
:1013100050E0239F401951091124481759073CF404
:101320009D818A85299F800D11248A87198681E0F5
:1013300090E0DF91CF910F910895DF92EF92FF92AD
:101340000F931F93CF93DF931F92CDB7DEB78C011E
:10135000D62EF42EE12CE21654F44E2D4F0D6D2DA9
:10136000C80129830E942308E3942981F4CF0F90B8
:10137000DF91CF911F910F91FF90EF90DF90089533
:10138000FC01262F30E0E20FF31F423030F497814A
:10139000915081E09E3F58F009C087818F3F31F026
:1013A000642F0E94BA1B81E0913009F080E008951B
:1013B000BF92CF92DF92EF92FF920F931F93CF9342
:1013C000DF937C018C01095F1F4FE801DD24DA9473
:1013D00062E0F70180810E94C205F701208130E0C0
:1013E000F901E15CF84F8491F901E25BFE4FB490A2
:1013F000F901E459FE4FC490CC2071F081110E9494
:101400001A05EC2DF0E0EE0FFF1FE95DF84FA591F6
:10141000B491EC91EB21D1F488818F5F888360E0F7
:10142000F70180810E94C205FFEFEF1AFF0A2196A3
:10143000E016F10609F0CCCFDF91CF911F910F910B
:10144000FF90EF90DF90CF90BF9008958881882320
:1014500059F38F3F11F41882E2CFD882E0CF81E0B8
:1014600090EC909352018093510166E171E086E423
:1014700091E00E94F91B8CE390E0909345018093EA
:10148000440110923D0110923C018FEF90E0909347
:101490003B0180933A0120E233E0309339012093FD
:1014A000380124ED33E0309337012093360127E0F3
:1014B00030E0309343012093420130934101209367
:1014C000400190933F0180933E01109235011092AC
:1014D00034011092330110923201109231011092B6
:1014E000300110922F0110922E0184E197E0909329
:1014F00071048093700484E3809372040895CF9202
:10150000DF92EF92FF920F931F93CF93DF93EC0143
:101510007B016A01890180910104813031F481E10C
:1015200094E00E94A60781E089C080910204813086
:10153000B1F36091FF036F3F09F460E070E086E46F
:1015400090E00E94C61B462F62E086EF93E00E9467
:10155000C009882399F0888199819C012F5F3F4FB2
:10156000398328832091FF032D53223C18F40296DF
:101570009983888381E194E00E94A1072091FD0373
:101580002F3F09F420E0622F70E086E490E00E9493
:10159000C61B462F60E086EF93E00E94C0098823B7
:1015A00099F0888199819C012150310939832883E0
:1015B0002091FD032D53223C18F4029799838883D0
:1015C00081E194E00E94A10788819981C816D9061B
:1015D00014F4F982E882888199818E159F0514F4AC
:1015E000D982C8821092430490913F0480E3891B02
:1015F0008093440462E077E08AE394E00E9445052A
:1016000068817981072E000C880B990B97FF03C026
:101610000E942D0E03C04AE00E94EA0D67EF76E0BB
:101620008AE394E00E947E051092430410924404E1
:10163000B8018AE394E00E947E0580E0DF91CF91BB
:101640001F910F91FF90EF90DF90CF900895CF9270
:10165000DF92EF92FF920F93CF93DF9387E1809316
:101660006B0482E080931504D4E144E5C42ED12CB0
:10167000E12CF12CC1E00E94150F8823E1F324E056
:1016800037E040E550E06EE170E084E491E00E94D4
:101690007F0A81119BC010924304D093440480912F
:1016A0005D0490915E04A0915F04B0916004BC0160
:1016B000CD01660F771F881F991FA70196010E9411
:1016C000001C03E023E048E08AE394E00E949E08C7
:1016D00060915D0470915E0480915F04909160045C
:1016E000A70196010E94001C23E04CE08AE394E0ED
:1016F0000E949E0880915D0490915E04A0915F0419
:10170000B0916004BC01CD0132E096958795779544
:1017100067953A95D1F7A70196010E94001C23E036
:1017200040E18AE394E00E949E0800E120E146E166
:1017300060E08AE394E00E949E0883E080935A046C
:1017400080935B0420E146E161E18AE394E00E943A
:101750009E08C0935A04C0935B0420E146E162E214
:101760008AE394E00E947B0820E145E262E28AE39A
:1017700094E00E947B0820E146E162E28AE394E083
:101780000E949D0920E146E161E38AE394E00E9422
:101790009D09809144018E3120F0813518F080E55B
:1017A00001C08EE18093450461E28AE394E00E94E7
:1017B000BC076091450460688AE394E00E94BC071E
:1017C00060E28AE394E00E94BC0755CF82E38093F5
:1017D0006B0481E080931504DF91CF910F91FF900E
:1017E000EF90DF90CF900895EF92FF921F93CF93E9
:1017F000DF930E94270BE5E7F4E0E491EF5FE093CD
:101800003E04E6E7F4E0E491EF5FE0933F0487E70E
:1018100094E090935904809358048DEF93E017E07F
:10182000180F0E94150F8823E1F366E674E08AE33F
:1018300094E00E947E056EE574E08AE394E00E94E5
:101840007E05CDEFD3E07E018881882319F061E227
:1018500071E002C063E271E08AE394E00E946905EE
:101860002196F7018081813021F481E194E00E948A
:10187000A1071C13E8CF65E574E08AE394E00E94B9
:101880004505C0E0909101049F3F11F0892F01C0F0
:1018900080E086958695C81740F465E271E08AE39A
:1018A00094E00E946905CF5FEDCF913109F0B9CF87
:1018B000E0E8F1E0E491EF5FE0933E04E1E8F1E07D
:1018C000E491EF5FE0933F0482E891E09093590444
:1018D00080935804DF91CF911F91FF90EF9008956E
:1018E000CF93DF93C3E5D1E08091510190915201F4
:1018F0009983888366E471E08EE591E00E94F91B8C
:10190000809144018E8B80913C018F8B80913A01B4
:10191000888F80913801909139019A8F898F8091B9
:101920003601909137019C8F8B8F809142018D8F72
:10193000809140018E8F80913E018F8F8091340184
:101940009091350199A388A3809132019091330140
:101950009BA38AA380913001909131019DA38CA318
:1019600080912E0190912F019FA38EA3BE0180E84C
:1019700097E7EDEFFFE3099586E494E09093710417
:101980008093700484E380937204DF91CF91089573
:10199000CF93DF93482F50E0EA01C451DC4F9DA163
:1019A0009923A1F19EA1911131C09EA5FA01EE0FDC
:1019B000FF1FED50FC4F35A126A1E32FF22FE90FB9
:1019C000F11DE90FF11D259134912F3F9FEF39074C
:1019D00011F41DA21BC039AB440F551FFA01EA5088
:1019E000FC4F3327220F331F05A0F6A1E02DE20F95
:1019F000F31F65917491811105C040E081E194E08D
:101A00000E946D0729968DA18F5F8DA3DF91CF91E5
:101A10000895AF92BF92CF92DF92EF92FF920F9311
:101A20001F93CF93DF93182F062FC1E0D3E08AEFE7
:101A3000D82E9EEFE92E842F8470C82E842F8270BA
:101A4000B82E842F8870A82E4170F42E8C2F880F0A
:101A50008F5FE80ECC2081F04D2F400F6C2F610F6F
:101A60008AE394E00E9423084C2F400F6D2F610FF2
:101A70008AE394E00E942308BB2081F0402F4D1B95
:101A80006C2F610F8AE394E00E942308402F4C1BC7
:101A90006D2F610F8AE394E00E942308AA2081F051
:101AA0004C2F400F612F6D1B8AE394E00E942308A6
:101AB0004D2F400F612F6C1B8AE394E00E94230896
:101AC000FF2081F0402F4C1B612F6D1B8AE394E0B7
:101AD0000E942308402F4D1B612F6C1B8AE394E06A
:101AE0000E942308CD1744F4E7FC04C0D150D394DE
:101AF000D394ED0CCF5FAACFDF91CF911F910F91BF
:101B0000FF90EF90DF90CF90BF90AF9008959F929D
:101B1000AF92BF92CF92DF92EF92FF920F931F93FB
:101B2000CF93DF93F82EE62EB22E03E0020FD0E023
:101B3000C3E08AEFC82E1EEF842F8170982EAA244E
:101B4000A394A20E4270D42EDF5F802F8B19180F42
:101B50009920A1F02C2F220F2A0D4E2D4C1B6D2FFA
:101B60006F0D8AE394E00E949D09202F4E2D4D1B9E
:101B70006C2F6F0D8AE394E00E949D09DD20A1F097
:101B80002C2F220F2A0D4E2D4C1B6F2D6D1B8AE31F
:101B900094E00E949D09202F4E2D4D1B6F2D6C1B34
:101BA0008AE394E00E949D09DC1744F417FD04C009
:101BB000C150C394C3941C0D0E5FC6CFDF91CF916B
:101BC0001F910F91FF90EF90DF90CF90BF90AF905B
:101BD0009F9008958F929F92AF92BF920F931F9301
:101BE000CF93DF93CDB7DEB7A1970FB6F894DEBFE2
:101BF0000FBECDBF19A2423008F44AE08E010F5D3E
:101C00001F4F842E912CA12CB12CA50194010E9470
:101C1000001CE62FB901CA0101501109EA3014F481
:101C2000E05D01C0E95CD801EC93232B242B252B2C
:101C300061F7B8018AE394E00E946905A1960FB6A6
:101C4000F894DEBF0FBECDBFDF91CF911F910F91F2
:101C5000BF90AF909F908F900895CF92DF92EF92B8
:101C6000FF92CF93DF936B017C01E0913A04F091F6
:101C70003B040190F081E02D6DE28AE394E0099548
:101C8000EC0166277727CB016C197D098E099F0926
:101C90004AE00E94EA0D8C0F9D1FDF91CF91FF90CB
:101CA000EF90DF90CF9008958AE394E00E94AB0715
:101CB00060EB77E08AE394E00E9445058AE394E0D4
:101CC0000E94DD078CB583608CBD8DB58E7F8DBD88
:101CD00087E291E0EEEFFFE30995109240046BE894
:101CE00077E08AE394E00E947E058AE394E00E9414
:101CF000DD0786EF93E00E94D809809101048130CE
:101D000039F062E370E080E090E00E948206F1CF5B
:101D1000089570E0DB01AA0FBB1FA451BC4FD496FD
:101D20002C91D497D5969C91D597E22FF92FE80F57
:101D3000F11DE80FF11D259134915F9696963C9325
:101D40002E939597F9018591949190911504989F00
:101D5000802D112464517C4FFB01B19685A3F901BC
:101D6000A591B4914B2F50E0E82FF0E04E175F079C
:101D700020F4F90125913491832FFB01B296899FBC
:101D8000802D112485A30895DF92EF92FF920F9387
:101D90001F93CF93DF93C82FD62FE42E022F8AEF05
:101DA000D82ED40E93E0F92EFC0E2D2D462F6F2D3C
:101DB0008AE394E00E947B081D2F100F4FEF410F24
:101DC0002D2D6F2D8AE394E00E947B080650DD5F85
:101DD000202F4D2F6C2F8AE394E00E949D09CE0D99
:101DE0006FEF6C0F202F4D2F8AE394E00E949D0926
:101DF00041E06D2F8F2D0E94090DC45042E06D2FE0
:101E00008C2F0E94090D145044E0612F8C2F0E94EA
:101E1000090D48E0612F8F2DDF91CF911F910F9118
:101E2000FF90EF90DF900C94090DDF92EF92FF92FC
:101E30000F931F93CF93DF931F92CDB7DEB74091DF
:101E40006C0450916D0460916E0470916F042FB713
:101E5000F8948091E8039091E903A091EA03B0918E
:101E6000EB032FBF481B590B6A0B7B0B80916B0454
:101E700090E0A0E0B0E00091670410916804209128
:101E8000690430916A0484179507A607B70730F4F0
:101E9000011511052105310509F05FC2012B022B47
:101EA000032B09F058C28091030481508E3FC0F487
:101EB000809102048130C9F4609116046F5F81E162
:101EC00094E00E94060784E897E090937104809361
:101ED000700488E48093720481E194E00E94A10779
:101EE0008091030481508E3F70F480910104813011
:101EF00009F077C287E797E09093710480937004AC
:101F000088E48093720480E00E94C80C80911204DF
:101F1000882309F4ADC0809126048111A9C0809165
:101F20001E0490911F04E0912304F0912404EE0F0D
:101F3000FF1FE80FF91F459154914115510501F517
:101F400020912204222331F01092240410922304C1
:101F5000FC0114C01092120480911104882341F0F6
:101F600080E00E94C80CE0912304F09124042FC06B
:101F700060E081E194E00E945C077AC04591549151
:101F80009A01369527953695279540FF51C0CA018D
:101F9000B6E096958795BA95E1F78F71952F96954E
:101FA0009695969590512F70223071F1F8F4211189
:101FB00017C08B3008F08AE080932704E091230457
:101FC000F09124043196F0932404E0932304EE0F5F
:101FD000FF1F80911E0490911F04E80FF91FCECFC0
:101FE000213061F760E00E94890EE8CF2330B1F024
:101FF000243021F720911504829F802D1124809395
:102000002E0490932F04DACF20911504829F802D07
:10201000112480932A0490932B04D0CF209115048F
:10202000829F802D112480932C0490932D04C6CF81
:102030002F732093250480911504859F802D1124F2
:1020400080932604109236041092350410923404C2
:1020500081E0809328048093E30310922904809107
:1020600023049091240401969093240480932304E4
:1020700080912804882309F4F3C0809126048111FB
:1020800006C060E081E194E00E945C07E9C08150F5
:102090008093260480913604811148C02091340435
:1020A000309135042F5F3F4FC901880F991FE09190
:1020B0003004F0913104E80FF91F65917491862F77
:1020C000877080933704AB0163E0569547956A9516
:1020D000E1F7CA0196958795972F969596959093D7
:1020E00038048F7390911504899F802D112480935B
:1020F000360441704093E703309335042093340451
:102100008091320490E02817390780F02091330441
:10211000222339F0821B9109909335048093340473
:1021200005C060E081E194E00E945C078091360484
:102130008150809336048091290421E0280F209358
:1021400029044091250430913804340F80911D04F6
:10215000380F3093130460912C04662371F070E003
:10216000822F022E000C990B0E94C61B80912D0419
:10217000869F300D1124309313048091130490E056
:10218000849664E270E00E94C61B80931304309131
:1021900027043093140460912A04662381F0062EEC
:1021A000000C770B822F022E000C990B0E94C61B8D
:1021B00080912B04869F300D11243093140460917C
:1021C0002E046623A1F0822F220F990B70E00E944B
:1021D000C61BCB0162E070E00E94C61B20912F0459
:1021E00090911404289F900D1124909314048091D1
:1021F00014044F3341F08A300CF089E087FD80E011
:102200008093140402C010921404F894E091130413
:10221000F0E0ED5AF84FE491E093E60330911404B6
:102220002091390432039001112440913704420374
:10223000C001439F900D11240090160402C0880F26
:10224000991F0A94E2F797FF02C081589F4F880FA9
:10225000892F881F990B8093E5038093E40378947A
:1022600080917204882309F456C08C3020F49CE0DD
:10227000E92EE81A01C0E12CFF24F394F092420405
:1022800010925A0410925B0430913F041DE2D12E4B
:10229000D31ADE0C03E0030F2EE44D2D63E08AE336
:1022A00094E039830E949E0839810CEF030F83E08C
:1022B000D80E202F41E06D2D80E50E94870D202F44
:1022C00042E06D2D83E00E94870DF0925A04F09257
:1022D0005B0480913F0423E0280F612F681B6E0D83
:1022E00044E580E00E94C40E84E080934304809122
:1022F0003F04E81A8E2D815D809344046091700440
:10230000709171048AE394E00E9445058091720403
:102310008150809372048AE394E00E94DD078091EB
:102320004004811104C08AE394E00E94AB070E943C
:102330005D066093670470936804809369049093CA
:102340006A042091630430916404621B730B7093E0
:1023500062046093610480E04AC02FB7F8948091D2
:10236000E8039091E903A091EA03B091EB032FBF3A
:1023700020916B04820F911DA11DB11D80936C04EF
:1023800090936D04A0936E04B0936F0480915D04EC
:1023900090915E04A0915F04B09160040196A11D2C
:1023A000B11D80935D0490935E04A0935F04B0938D
:1023B00060041092670410926804109269041092ED
:1023C0006A040E945D0660936304709364048093C2
:1023D00065049093660486EF93E00E94D80981E03B
:1023E00006C0893209F08FCD0E94540E8CCD0F901B
:1023F000DF91CF911F910F91FF90EF90DF900895A3
:102400008F929F92AF92BF92CF92DF92EF92FF9204
:102410000F931F93CF93DF93FB0124913196C490C8
:10242000F0905A04022E000C330B121613060CF017
:10243000D7C080330CF0D4C0482F082E000C550BA9
:10244000FA01EC0DF11DC7FCFA951E161F060CF0E3
:10245000C7C06E5F7F4FD901179693E0B595A795DA
:102460009A95E1F787FF0BC0C80EA49FC001A59FF6
:10247000900DB49F900D1124681B790B80E04C2DBA
:102480000C2C000C550B480F511D87FD5A954133FC
:1024900051051CF090E3C92EC81A2535310514F0FA
:1024A00024E530E0109146041827982F977031E00A
:1024B00001C0330F9A95EAF7859585958595F4E5E2
:1024C0008F02C00111248D519E4F00E00C2C000C96
:1024D000DD08BB24B394402F50E04C155D050CF093
:1024E0007FC0FB01E490F1E0FF1218C0FB01EC019A
:1024F00040E8542F5E2119F05881532B588350E047
:10250000559547954115510519F43196E49040E8E9
:1025100021965C2F581B521760F359C0F1101AC056
:10252000A32EA094FB01EC0140E8542F5E2119F08A
:1025300058815A21588350E05595479541155105CA
:1025400019F43196E49040E821965C2F581B5217FD
:1025500060F33DC043E0F41223C0932E9094FB013E
:10256000EC0140E8A82E8C2E881A542F5E2141F0F1
:102570008126588180FE02C0532B01C05921588307
:1025800050E0559547954115510519F43196E49061
:1025900040E821965C2F5A19521728F31B2517C0C3
:1025A000FB01EC0140E8542F5E2119F058815327BC
:1025B000588350E0559547954115510519F43196CA
:1025C000E49040E821965C2F581B521760F3330FBC
:1025D00019F48C5A9F4F31E00F5F6A0F7B1F7BCF3E
:1025E000DF91CF911F910F91FF90EF90DF90CF90EF
:1025F000BF90AF909F908F900895CF92DF92EF920F
:10260000FF920F931F93CF93DF9381E08093420457
:1026100010924104109240041092040480935A04D2
:1026200080935B04C2E0D9E01CE00E94150F882370
:10263000E1F3FE018491882319F000913F0401C069
:1026400000E067E179E080E00E94001260EE77E050
:102650008CE0800F0E9400121092430410934404F7
:1026600062E079E08AE394E00E94450580913E04AF
:10267000982F990F890F81958D5A809343048091EB
:102680003F04982F990F890F8195835D80934404AF
:1026900080915D0484FF03C063E179E002C06FE0D4
:1026A00079E08AE394E00E947E0580913E04982FB1
:1026B000990F890F81958D5A80934304809144042A
:1026C0008F5F8093440480911604882319F06BE097
:1026D00079E002C067E079E08AE394E00E947E0539
:1026E00080913E04982F990F890F81958D5A809380
:1026F0004304809144048F5F8093440463E079E055
:102700008AE394E00E947E0580910204813099F171
:10271000809101048130A9F080915C04482F50E041
:1027200060E070E0C0905D04D0905E04E0905F04D3
:10273000F0906004C416D506E606F70640F18F3F18
:1027400031F18FEF80935C0460E081E194E00E94BE
:102750005C071092120481E194E00E94A60781E0D8
:1027600080930404DF91CF911F910F91FF90EF9020
:10277000DF90CF900895609116046F5F81E194E03F
:102780000E94060781E194E00E94A107C1CF8091D9
:102790000304813009F049CF0E94540E46CFCF93F5
:1027A000DF93BC01990F880B990B97FF03C00E9420
:1027B0002D0E03C04AE00E94EA0DEC0163E171E0D6
:1027C0008AE394E00E9469058C0F9D1FDF91CF91F1
:1027D00008952F923F924F925F926F927F928F92C5
:1027E0009F92AF92BF92CF92DF92EF92FF920F93A0
:1027F0001F93CF93DF9300D000D0CDB7DEB7382E34
:10280000292EB62E10924004AA24AA9419821B8263
:1028100000E31C82662E712C2FEF260F2A830E9464
:10282000150F8823E1F380910104002E000C110B99
:10283000813009F443C090910204913009F43EC004
:1028400080910304813009F4B9C08981811146C0A7
:1028500044E063E086EF93E00E94C009882339F0EA
:102860009C819F5F9C8381E194E00E94A10744E0EA
:1028700061E086EF93E00E94C009882339F0EC8183
:10288000E150EC8381E194E00E94A107FC818F2F4D
:102890000F2E000C990B8615970529F0F7FF04C041
:1028A0002A812C8301C01C8280913F0494E0980F00
:1028B000EC818E9F901911249B831BC090913F0443
:1028C00091959B9D902D112492509B83813009F00E
:1028D0007DC081E194E00E94A607AC80C801FB8125
:1028E0008F1B9109F7FD939502970CF477C021E0B7
:1028F00029838B81080F111D87FD1A9517FF02C0D0
:102900000F5F1F4F7801F594E7941E2D0E2D109246
:102910004304E092440481E0809342041092410415
:10292000C32CD22C812C912C9C81492E990F5508B7
:1029300086149704E9F08414950461F4E3E0E093CD
:10294000430480913F04F12F2C81289FF00D112426
:10295000F0934404F601659174918AE394E00E9437
:102960007E058FEF881A980A92E0C90ED11CE0CF3D
:1029700010925A0410925B0480913F044E2DEC811A
:10298000E89F400D1124415024E560E08AE394E083
:102990000E947B0881E080935A0480935B048091BD
:1029A0003F0423E0280F6E2DFC81F89F600D112459
:1029B000625044E580E00E94C40E31CF80913F0414
:1029C00081958B9D802D112482508B8340E068ED92
:1029D00077E081E194E00E946D0780CF8A2D0F900F
:1029E0000F900F900F90DF91CF911F910F91FF905B
:1029F000EF90DF90CF90BF90AF909F908F907F909F
:102A00006F905F904F903F902F900895CF93DF93FA
:102A100000D000D01F92CDB7DEB7789484B5826025
:102A200084BD84B5816084BD85B5826085BD85B572
:102A3000816085BD80916E00816080936E001092F0
:102A4000810080918100826080938100809181006B
:102A500081608093810080918000816080938000FC
:102A60008091B10084608093B1008091B00081605A
:102A70008093B00080917A00846080937A00809186
:102A80007A00826080937A0080917A0081608093DE
:102A90007A0080917A00806880937A001092C10059
:102AA00082E380936B0481E090E0A0E0B0E080934B
:102AB000670490936804A0936904B0936A04E0E803
:102AC000F7E7859194918130904C09F0E3C5E6E9F0
:102AD000F7E7E491E0934504E7E9F7E7E491E09351
:102AE000F003E8E9F7E7E491E093F103E9E9F7E7B8
:102AF000859194919093F3038093F203EBE9F7E7C8
:102B0000859194919093F5038093F40387E08093EB
:102B10001704EEE9F7E7E491E0931604EFE9F7E72D
:102B2000E491E0935C04E0EAF7E785919491909357
:102B3000090480930804E2EAF7E785919491909361
:102B40000B0480930A04E4EAF7E78591949190934B
:102B50000D0480930C04E6EAF7E785919491909335
:102B60000F0480930E046FEF70E085E00E94FE0575
:102B700088E08093F60389E08093F70387E08093F1
:102B8000F80386E08093F90384E08093FA0382E0FF
:102B90008093FB0381E18093FC0386EF93E00E9426
:102BA000D8098BE0809348048DE08093470480E14E
:102BB000809349048EE080934B048FE080934A0415
:102BC00081E08093420480935A0410925B048093C6
:102BD0004104E0E8F1E0E491EF5FE0933E04E1E8D6
:102BE000F1E0E491EF5FE0933F0482E891E090939D
:102BF0005904809358041FB7F8948091D301811130
:102C000027C0E6E7F1E08491E8E5F1E09491E82F50
:102C1000F0E0EE0FFF1FEC5BFE4FA591B491EC913D
:102C2000E92321F461E08AE00E94920561E08AE0F4
:102C30000E94C2058CB580618CBD8CB580648CBD52
:102C400061E08DE00E94C20561E08BE00E94C20558
:102C50008091D3018F5F8093D3011FBF8CB58F7D8F
:102C60008CBD8CB58C7F81608CBD8DB581608DBD38
:102C70008CB58C608CBD61E0809148040E94C205D7
:102C800061E0809147040E94C20561E0809149049F
:102C90000E94C20580914B0418161CF461E00E944A
:102CA000C20580914A0418161CF461E00E94C20516
:102CB00080914B04181674F460E00E9492056AE05B
:102CC00070E080E090E00E94820661E080914B0419
:102CD0000E94920580914704082E000C990BFC017C
:102CE000E459FE4FE491F0E0EE0FFF1FEE59FE4F66
:102CF0002591349130934F0420934E04FC01E25B04
:102D0000FE4FE491E093550480914804082E000C96
:102D1000990BFC01E459FE4FE491F0E0EE0FFF1F28
:102D2000EE59FE4F2591349130934D0420934C047D
:102D3000FC01E25BFE4FE491E093540480914A046D
:102D4000082E000C990BFC01E459FE4FE491F0E0D1
:102D5000EE0FFF1FEE59FE4F259134913093510431
:102D600020935004FC01E25BFE4FE491E093560493
:102D700080914904082E000C990BFC01E459FE4F88
:102D8000E491F0E0EE0FFF1FEE59FE4F25913491D4
:102D90003093530420935204FC01E25BFE4FE49114
:102DA000E093570461E28AE394E00E94BC0764E187
:102DB0008AE394E00E94BC078091450487FF03C02A
:102DC0008FE7809345046091450460688AE394E04E
:102DD0000E94BC0760E28AE394E00E94BC076CE0BA
:102DE0008AE394E00E94BC078AE394E00E94DD0736
:102DF00081E08093150484E08093390480E491E0BD
:102E0000909321048093200460E080E00E94890E6A
:102E100061E070E083E00E94FE058091B100887F50
:102E200081608093B100F89410928000109281002C
:102E3000109285001092840088E191E090938900BF
:102E400080938800809181008860809381008091C8
:102E5000810081608093810080916F008260809307
:102E60006F00789480910204813019F41092160456
:102E70000BC0809105048823C9F340E062E073E051
:102E800081E194E00E946D07E0E8F7E78591949175
:102E90008130904C09F02BC4A3E5B1E0E0E8F7E7FE
:102EA00084918D933196E11588E7F807C9F7E0E83A
:102EB000F7E7859194919093520180935101A4ED8D
:102EC000B1E0E2E8F7E784918D933196EB3897E72C
:102ED000F907C9F7A6E4B1E084918D933196E539FD
:102EE00027E7F207C9F7E6E9F7E7E491F0E0F093A6
:102EF0004501E0934401E7E9F7E7E491F0E0F0935E
:102F00003D01E0933C01E8E9F7E7E491F0E0F0935C
:102F10003B01E0933A01E9E9F7E7859194919093B9
:102F2000390180933801EBE9F7E78591949190930B
:102F3000370180933601EDE9F7E7E491F0E0F09393
:102F40004301E0934201EEE9F7E76491862F90E0B8
:102F50009093410180934001EFE9F7E7849190E07D
:102F600090933F0180933E01E0EAF7E785919491C9
:102F70009093350180933401E2EAF7E785919491CB
:102F80009093330180933201E4EAF7E785919491BD
:102F90009093310180933001E6EAF7E785919491AF
:102FA00090932F0180932E0181E194E00E94060707
:102FB00080915C0481110E94FD12F2E08F2E912C11
:102FC00066E08AE394E00E94E913082E000C990B56
:102FD000AA0BBB0BFC013196E730F10508F052C398
:102FE000EC5CFF4F0C94DA1B80915C04882309F49D
:102FF00049C30E94FD1246C30E94F40B41C37AEFFD
:10300000772EEEE22E2E65E08CEC93E00E94E91321
:10301000823009F412C2B4F48823E9F0813009F057
:103020002FC3109240041092500130E3E32E44E588
:10303000F42E32E03C8310E01D825FE2352E60E327
:10304000662E93C0833009F457C2843009F018C348
:103050000E94700C15C362E080E193E00E94E913C6
:10306000811151C20E94270BF6CF44E063E086EF46
:1030700093E00E94C009882339F03C813F5F3C8384
:1030800081E194E00E94A10744E061E086EF93E0D3
:103090000E94C009882339F03C8131503C8381E192
:1030A00094E00E94A10744E062E086EF93E00E9472
:1030B000C009882329F01F5F81E194E00E94A107E5
:1030C00044E060E086EF93E00E94C009882329F085
:1030D000115081E194E00E94A107103109F04AC02B
:1030E00010E03C81383009F049C01C8290913F04C7
:1030F00080913E048095819F802D1124895DCF2C85
:10310000FF0CDD08C80ED11C87FDDA94D7FE03C082
:103110008FEFC81AD80AD594C7945C2CFC2C84E194
:10312000891B90953C81939F800D1124AE2CEE0C51
:10313000BB08A80EB11C87FDBA94B7FE03C08FEF81
:10314000A81AB80AB594A7944A2CEA2C80910104D5
:103150008130A1F53D813A3034F5212F3C8190E159
:10316000399F200D112421110EC00E94150F8823B4
:10317000E1F37BCF17FFB5CF1FE0B3CF37FFB6CF5B
:1031800037E03C83B3CF2A3081F32D3071F33D819A
:10319000832F330F990BFC01EA5BFE4F2083FC0168
:1031A000E95BFE4F10820D810F5F81E194E00E9488
:1031B000A6070D830C3014F03BE03D8380910204A0
:1031C0008130A1F43D8131503D8340E068ED77E0EE
:1031D00081E194E00E946D073D8137FD8FC23D8102
:1031E000E32F330FFF0BEA5BFE4F10828091030445
:1031F000813069F485C280910204813009F084C273
:1032000040E068ED77E081E194E00E946D0770E0B6
:1032100050E030E0232F270F80913F04452F589F27
:10322000400D1124440D80913E04632F389F600DA2
:103230001124650D01E08AE394E03A8359837B838E
:103240000E94C7083A813F5F59817B81303111F775
:103250005F5F705F5830E9F680913E049C2D879D3A
:10326000900D1124892F82508093430480913F0454
:103270008F5F8A0D8093440460E273E08AE394E0F8
:103280000E94450580913E04AC2D879DA00D112420
:103290008A2F82508093430480913F04880F8E5F71
:1032A0008A0D809344046AE173E08AE394E00E940B
:1032B000450580913E04BC2D879DB00D11248B2FB8
:1032C00082508093430480913F0490E00196982FB0
:1032D000990F890F8A0D8093440464E173E08AE3B7
:1032E00094E00E94450510925A0410925B0480916C
:1032F0003F044C81489F400D112442504A0D80915B
:103300003E04612F189F600D112461506C0D27E061
:103310008AE394E00E947B08DD24D394D0925A047F
:10332000D0925B0430913F0440913E04E42FF0E0E2
:1033300025E0230F4E5FCF010197B4010E94C61B09
:10334000480F6C81639F600D112463506A0D812FBB
:103350001E9F800D112482508C0D0E94C40E8091FE
:103360003F04422D481B24E560E08AE394E00E947C
:103370007B0810925A0410925B0480913F0401E094
:10338000080F432D481B24E560E08AE394E00E9487
:103390009E081092430480913F04E62DE81BE093C1
:1033A0004404D0925A04D0925B0466E471E08AE34C
:1033B00094E00E94690580915D0490915E04A09163
:1033C0005F04B091600487709927AA27BB270497F0
:1033D000A105B10508F0C9CE3D813A300CF0C5CE4B
:1033E00080913F04462D481B60913E04369F602D1E
:1033F000112401E02FE58AE394E00E94C708B5CECE
:10340000823009F483C08111FECD0E94150F8823FC
:10341000E1F3409142015091430120E533E060E047
:1034200070E080E491E00E947F0A882371F060914F
:10343000420181E194E00E94060763E080E693E0A8
:103440000E94E9138130E1F637C044E060E086EF86
:1034500093E00E94C009811108C044E062E086EF59
:1034600093E00E94C009882381F26091400181E1CC
:1034700094E00E94060781E194E00E94A607C5CF70
:1034800024E433E047E050E060E070E082E491E063
:103490000E947F0A8111CBCF44E060E086EF93E089
:1034A0000E94C00981110DC044E062E086EF93E004
:1034B0000E94C009811105C00E94150F8823E1F305
:1034C000DFCF6091420181E194E00E94060781E133
:1034D00094E00E94A607F0CF0E94150F8823E1F325
:1034E00026E633E04FEF50E060E070E08EE391E0DD
:1034F0000E947F0A882381F362E088EC93E00E94B7
:10350000E913882349F3813009F07DCD0E94700CC6
:103510007ACD8AE394E00E94AB078AE394E00E94AC
:10352000DD0781E08093400465E274E08AE394E083
:103530000E944505609151017091520180E090E038
:1035400040E10E94EA0D63E171E08AE394E00E94A9
:1035500069056EE174E08AE394E00E94450564ED3C
:1035600071E08AE394E00E9469056CE174E08AE30B
:1035700094E00E947E0563E174E08AE394E00E9497
:10358000450566E471E08AE394E00E94690561E123
:1035900074E08AE394E00E947E0567E074E08AE3C9
:1035A00094E00E94450580914401909145010E945C
:1035B000CF136BEF73E08AE394E00E94450580919E
:1035C0004201909143010E94CF136BEE73E08AE3B6
:1035D00094E00E94450580914001909141010E9434
:1035E000CF1369ED73E08AE394E00E944505809172
:1035F0003E0190913F010E94CF1320913E048AE248
:1036000090E0821B9109880F8093430490913F04BE
:1036100080E3891B8093440466ED73E08AE394E0C1
:103620000E9445058AE394E00E94DD0786EF93E05F
:103630000E94D80980910104813009F485C064E1B9
:1036400070E080E090E00E948206F0CF0E942F0A96
:1036500019C080E8E3E5F1E0DF011D928A95E9F702
:10366000BF0180E897E7EDEFFFE309958EE294E074
:10367000909371048093700484E38093720402C079
:103680000E94700C80E090E0892B09F499CC0E9494
:10369000000096CC8CE3809345041092F0038FEFEA
:1036A0008093F10380E293E09093F3038093F2031D
:1036B00084ED93E09093F5038093F40387E0809387
:1036C00017048093160484E180935C04109209042B
:1036D0001092080410920B0410920A0410920D0428
:1036E00010920C0410920F0410920E043CCA0E9417
:1036F0002F0A0E94F40B0E94700CCECB1D8276CD57
:1037000081E194E00E94A6070E94150F8823E1F34F
:1037100067E373E08AE394E00E947E0566E471E06B
:103720008AE394E00E94690566E273E08AE394E02C
:103730000E947E0580910104813009F05CCD81E119
:1037400094E00E94A6075FCC8AE394E00E94AB0756
:103750008AE394E00E94DD071092400493CF109218
:103760003D0410923C048FE091E090933B048093E1
:103770003A040895991B79E004C0991F961708F040
:10378000961B881F7A95C9F78095089597FB072E99
:1037900016F4009407D077FD09D00E94E01B07FCC7
:1037A00005D03EF4909581959F4F08957095619551
:1037B0007F4F0895EE0FFF1F0590F491E02D0994BF
:1037C000AA1BBB1B51E107C0AA1FBB1FA617B70747
:1037D00010F0A61BB70B881F991F5A95A9F7809563
:1037E0009095BC01CD01089581E090E0F8940C948F
:1037F000221CFB01DC0101900D920020E1F70895ED
:10380000A1E21A2EAA1BBB1BFD010DC0AA1FBB1FE4
:10381000EE1FFF1FA217B307E407F50720F0A21B56
:10382000B30BE40BF50B661F771F881F991F1A94C3
:1038300069F760957095809590959B01AC01BD01ED
:08384000CF010895F894FFCFB9
:10384800010000730480000100000000000000690E
:1038580009EF040D0A004A6F686E20536D69746899
:0E386800002A00200010004C4F414445520041
:00000001FF
